:020000040800F2
:10000000005000200D010008951700089717000800
:10001000991700089B1700089D17000800000000B2
:100020000000000000000000000000009F17000812
:10003000A117000800000000A3170008A51700087A
:100040005901000859010008590100085901000828
:100050005901000859010008590100085901000818
:10006000AD1700085901000859010008590100089E
:10007000590100085901000859010008A917000892
:1000800059010008590100085901000859010008E8
:100090004D180008590100085901000859010008CD
:1000A0005901000859010008590100080518000805
:1000B00059010008590100085901000859010008B8
:1000C00059010008590100085901000859010008A8
:1000D0005901000859010008590100085901000898
:1000E000B11700085901000859010008000000007C
:1000F0000000000000000000000000000000000000
:0C01000000000000000000005FF808F1A3
:10010C00002100F004B80C4B5B58435004310B48F1
:10011C000B4B42189A42FFF4F6AF0A4A00F003B8B0
:10012C00002342F8043B084B9A42FFF4F9AF01F06C
:10013C0089FB00F095FF7047C09300080000002079
:10014C00AC090020AC09002014170020FFF7FEBFFB
:10015C007047704708B5064B0022186005490648E1
:10016C009A601961DA80DA609A80036A984708BD50
:10017C00E0090020F40D0020BC16002008B5044B4B
:10018C001A690AB10020186102494B6A984708BDE8
:10019C00E0090020BC16002062B6704708B572B6A4
:1001AC0006484FF4805105F0BDFC054B022218693E
:1001BC009A6019680530884708BD00BF000C0140E3
:1001CC00E009002070B50646002014460D4600F0EC
:1001DC00B5FC012EA4B207D130462946224600F0C8
:1001EC0035FC0020124907E0124B01201969224608
:1001FC0000F02CFC00202946224600F027FC0E487B
:10020C000221012205F0BDFB012000F097FC0A48F9
:10021C0005F0BFFB0028FAD1084805F0BAFB00280E
:10022C00FAD10748802105F0F9FC0028F9D170BDFE
:10023C0000000020E0090020580002404400024069
:10024C000038004003460A4601201946FFF7BABFA2
:10025C0070B50646002014460D4600F06FFC012ECA
:10026C00A4B207D130462946224600F0EFFB00200D
:10027C00104907E0104B01201969224600F0E6FBFB
:10028C0000202946224600F0E1FB012000F056FC3C
:10029C000A4805F07EFB0028FAD1094805F079FBE5
:1002AC000028FAD10748802105F0B8FC0028F9D1C4
:1002BC0070BD00BF00000020E00900205800024083
:1002CC00440002400038004003460A46002019460C
:1002DC00FFF7BEBF70B50E4D04460E4628464FF4D0
:1002EC00805105F021FC002021460422FFF7B0FFCD
:1002FC000020211D321FFFF7ABFF064B02222846C0
:10030C004FF480519A6005F00DFC002070BD00BFC9
:10031C00000C0140E009002070B501F00106044614
:10032C0086F001000D18012300262370C5F3072267
:10033C001D4BE67026716270A57005319D6808181A
:10034C0086B215B99A68012AFCD19968164D012913
:10035C0007D120463146FFF7BDFFAA68022AFCD11F
:10036C001FE0A8680228FCD11048802105F056FC3B
:10037C000028F9D10E4BDD69A8470028FAD00A4DA8
:10038C0003220C484FF48051AA60EC60AE8005F05B
:10039C00CBFB0749C86980470028FAD0AB68022B11
:1003AC00FCD1002070BD00BFE009002000380040E7
:1003BC00BC160020000C014070B5184E35696B79E5
:1003CC00022B08D0042B25D1287A441E14F0010FDF
:1003DC0018BF044614E0681D032105F0F0FDB0F5CC
:1003EC00806F044608DB05F10A004FF48061072496
:1003FC00FFF728FFB4600EE0C30701D4441C00E0F3
:10040C0024B105F10A00A1B2FFF71CFF0349082231
:10041C008A6000E00024204670BD00BFE009002087
:10042C00024B012019690A22FFF7CCBEE00900201B
:10043C0008B5FFF7C1FF18B9BDE80840FFF7AEBE1D
:10044C0008BD000070B5384C4FF40030266905F03B
:10045C00A3FA05464FF4005005F09EFAA368062B4C
:10046C000BD1002D5ED000285CD04FF4083005F085
:10047C00A1FABDE87040FFF7DBBFA16807291BD1CB
:10048C0000284FD04FF4083005F094FA0321701D6A
:10049C0005F095FDA0F58064A1B2234CCA0758BFA6
:1004AC00A0F2FF31206958BF89B200F20A40FFF771
:1004BC00C9FE0823A36070BDA268082A09D10028D0
:1004CC0030D04FF4083005F075FABDE87040FFF7F6
:1004DC0065BEA068052814D1002D23D013488021B7
:1004EC0005F09CFB0028F9D14FF4083005F062FAB6
:1004FC004FF480510E4805F015FB0B4A0221916018
:10050C0070BDA368042B0DD165B1A088E2680521EC
:10051C00A0F58063A16002F5806099B2BDE87040DF
:10052C00FFF7D2BE70BD00BFE009002000380040CC
:10053C00000C014008B5184BD869804700282AD117
:10054C00164B9A6812B90120986008BD9968022967
:10055C000AD1062212484FF480519A6005F0E4FA51
:10056C00BDE80840FFF75CBF9A68032A13D19A884C
:10057C00B2F5806F06D805219960D968BDE80840AE
:10058C00FFF720BE04209860D8684FF48061BDE866
:10059C000840FFF799BE08BDBC160020E0090020FA
:1005AC00000C014010B50131002393420ED0040F12
:1005BC00092C01D8303400E0373401F8014C0133F8
:1005CC000024000101F8024BDBB2EEE710BD4FF442
:1005DC00A06005F0D7B80000082812D8012907D16F
:1005EC000A4B0B4A53F8201032F8100008610AE04D
:1005FC0049B9064B064A53F8201032F810004861EE
:10060C0001E0FF2300E0002358B2704708000020EF
:10061C00FC89000837B50E4D044605EB80031869BC
:10062C00012105F0AFFA35F814000A4B1021ADF892
:10063C0004008DF80710032253F8240001A98DF84B
:10064C00062005F019FA20460021FFF7C5FF3EBD34
:10065C00FC8900080800002070B5012188B04FF417
:10066C00006005F08FFA314B42F210701C68632663
:10067C00B4FBF0F14A1E2E4C01A895B205F01CFCFF
:10068C0001A805F019FC01A9ADF80450204600257D
:10069C00ADF80860ADF80A50ADF8065005F0C4FA94
:1006AC0004A805F012FC01266023204604A9ADF82D
:1006BC001030ADF81260ADF81650ADF81850ADF81A
:1006CC001C5005F0FBFA2046082105F037FC2046AB
:1006DC0004A905F037FB2046082105F037FC20461D
:1006EC0004A905F073FB2046082105F039FC2046CF
:1006FC0004A9ADF81050ADF81260ADF81650ADF875
:10070C00185005F0A5FB2046294605F031FC204683
:10071C00314605F007FC2046314605F0E0FB20464B
:10072C00314605F0E8FB08B070BD00BF7400002036
:10073C00002C014073B50D4D84002B190646012188
:10074C00186B05F01FFA05EB4605094BB5F8400090
:10075C0018211C19ADF804008DF807100322206A2B
:10076C0001A98DF8062005F087F97CBDFC890008ED
:10077C000800002028B1012807D1044B64221A87F5
:10078C0003E002496420888670477047002C0140C2
:10079C0028B1012806D1044B00221A8702E0024935
:1007AC0088867047704700BF002C014040B101287B
:1007BC000DD1074B1A8F90B280F06401198706E0B7
:1007CC00034B9A8E90B280F0640199867047704703
:1007DC00002C014073B5104C0E4604EB400494F809
:1007EC004C10054694F8480005F0A0F9B4F85040B8
:1007FC00204605F025F909480023451995F83010D5
:10080C00684600948DF804308DF805108DF806605C
:10081C0005F0DAF87CBD00BFFC8900080800002058
:10082C002DE9F341234E8700F3190546586D0C460C
:10083C0040F00100012105F0A5F91F4B06EB450620
:10084C005A1992F83210B6F85C0002AADF198DF82A
:10085C00031022F8080D6946786B05F00DF9012C90
:10086C0026D11021002215481B2705F052FB4FF012
:10087C0002088DF8047001A800278DF805808DF80A
:10088C0006708DF8074004F087FFB6F8603001A8B9
:10089C008DF804308DF805808DF806408DF80740F2
:1008AC0004F07AFF064928464F552146FFF792FF80
:1008BC00BDE8FC81FC89000808000020002C0140E8
:1008CC00AC09002010B501214FF0C05005F066F9BD
:1008DC00012005F045F9FFF77AFE0120014605F0ED
:1008EC0051F90024E0B20134FFF794FE082CF9D141
:1008FC00FFF7B2FE0020FFF71DFF0020FFF748FFB7
:10090C000120FFF717FF0120FFF742FF0020012114
:10091C00FFF786FF154B4FF47A701A68144BB2FB35
:10092C00F0F14A1E1349F0205A6081F8230000228E
:10093C0007209A601860CB68C3F30220011D0629BA
:10094C00C0F1070388BFC21E042B28BF042301205B
:10095C0000FA03F14B1E03F0030000FA02F2054B00
:10096C001101C8B283F8230010BD00BF7400002031
:10097C0010E000E000ED00E0054A064B02EB8001C0
:10098C0003EB4002486BB2F85C1005F0C5B800BF31
:10099C0008000020FC890008034B187810B10022D5
:1009AC001A700120704700BFAC09002030B5082038
:1009BC0087B0012105F0E6F8224C01214FF480406C
:1009CC0005F0ECF818204FF4005301258DF80300C6
:1009DC0069462046ADF800308DF8025005F04CF811
:1009EC004FF40041ADF800102046694605F044F87C
:1009FC0004234FF4804220466946ADF800208DF860
:100A0C00033005F039F80020ADF804004FF4827182
:100A1C00ADF80800ADF80A00ADF812000720ADF8EB
:100A2C0006104FF400722023ADF8140001A90648FB
:100A3C00ADF80C50ADF80E20ADF8103005F0BAF84A
:100A4C0007B030BD000C01400038004070B50446C2
:100A5C0001208CB00E460146154605F087F8124B66
:100A6C00002080224FF44051012C019302960590F6
:100A7C0006920790089009900A910B9006D103906A
:100A8C000A48049504F0DAFE084807E04CB9102334
:100A9C0007480393049504F0D1FE054801A904F01E
:100AAC0045FF0CB070BD00BF0C3800404400024044
:100ABC005800024073B50F230124002501A88DF8BE
:100ACC0004308DF805508DF80650174E8DF8074000
:100ADC0004F062FEFFF76AFF20462A461349FFF72F
:100AEC00B5FF28462A461249124DFFF7AFFF304694
:100AFC000221224604F045FF28462146224605F0F5
:100B0C0084F822462846022105F07FF82846214623
:100B1C0005F06FF82146084804F028FF30462146BE
:100B2C0004F024FF7CBD00BF58000240F40D0020EF
:100B3C00F4090020003800404400024010B504467F
:100B4C002146044804F012FF03482146BDE810403A
:100B5C0004F00CBF440002405800024008B54FF4AA
:100B6C000061024804F0D8FF08BD00BF000C014032
:100B7C0030B5092085B0012105F004F84FF400646C
:100B8C004823694614488DF80330ADF8004004F052
:100B9C0073FF0B21012004F0C9FF204604F050FF25
:100BAC000C200294002501248DF80D0002A88DF86C
:100BBC000C508DF80E4004F007FF282101A88DF889
:100BCC0004108DF805508DF806408DF8074004F0A0
:100BDC00E3FD05B030BD00BF000C01401FB528235C
:100BEC00002401A88DF804308DF8074004F0D4FDE2
:100BFC004FF40060029002A88DF80E4004F0E4FE61
:100C0C001FBD000020B105484FF4807104F08ABF6D
:100C1C0002484FF4807104F087BF00BF000C014004
:100C2C0037B5114C0820012104F0ACFF1020032330
:100C3C004FF480558DF8070001A920468DF8063039
:100C4C00ADF8045004F018FF2046294604F06AFF62
:100C5C004FF48071ADF80410204601A904F00CFF8C
:100C6C000020FFF7CFFF3EBD000C014020B105482E
:100C7C004FF4806104F058BF02484FF4806104F0D7
:100C8C0051BF00BF000C014070B51D4A137B012BF6
:100C9C0034D01069B0F5807F01D100211161136946
:100CAC0092681748934202D10021017370BD8CBF2A
:100CBC00C3F58072C3EB0202114C4261656999B2B3
:100CCC00402D05D94033403D23616561402604E049
:100CDC00E8180023AEB2206163610A4A012550185E
:100CEC00C0213246257304F0F1FB2846314604F04E
:100CFC00F7FC2846BDE8704004F060BC70BD00BF36
:100D0C00AC09002034120020094B10B593E81400F4
:100D1C000833186810180AD008220649FFF742FC5D
:100D2C00054920460422BDE81040FFF73BBC10BD2E
:100D3C00E8F7FF1F8A0000209A000020BFF34F8FB6
:100D4C00054A064BD16801F4E06040EA0301D1602A
:100D5C00BFF34F8FFEE700BF00ED00E00400FA0583
:100D6C000023036018467047002303601846704741
:100D7C00002303601846704748F20203984217D0CC
:100D8C0007DC99282DD0591E88422DD10122174BF2
:100D9C0029E048F2100290421AD07032904223D1CE
:100DAC00134B14490120187008700022124B1AE0E2
:100DBC000E49124B124A002010700870187011491D
:100DCC00114B124A0870187010700120FFF7E0BC2C
:100DDC000A7D0A4B1AB901201870FFF7CBBC002210
:100DEC0001E00B4B01221A70704700BF3513002035
:100DFC0064130020581300204800002050130020DA
:100E0C003F1300204A1300204913002051130020E7
:100E1C0034130020024B18601A68002AFCD170476A
:100E2C004413002038B53F4B3F491A68501C1860DA
:100E3C000C6814B10B685A1E0A603C4C206810B147
:100E4C002068421E05E03A49087820B9FFF7AEFC4D
:100E5C006422226006E0374C207818B9FFF78AFC30
:100E6C00012323700020FFF797FD28B108204FF6CF
:100E7C00FF7104F0C5FC0EE02F490B78A3B12F4A8B
:100E8C00107888B92E490B785BB92E4847F22F534E
:100E9C000168994201D9FFF751FF0268511C0160AA
:100EAC0002E00A78022AF6D824480378002B37D0BF
:100EBC00234C217811B10020207001E0214A1160EF
:100ECC00214C0123214923700A68C72A07D9002520
:100EDC000D6000F04FFCA84204DA257002E00868AF
:100EEC00431C0B6012490A786AB1194843F69721E2
:100EFC0003688B4204D9002101601348017002E0A1
:100F0C000268531C0360104A1378012B08D000F0C0
:100F1C000BFB0A48064A0A4B00210170117019702C
:100F2C0038BD00BF60130020441300204013002084
:100F3C0049130020C4090020351300203F13002062
:100F4C00511300205C1300204A130020541300207E
:100F5C004C1300201FB50A223C234FF461504FF470
:100F6C0061618DE80F0004204FF6FF7104F048FC1E
:100F7C0001A9684602AA03AB05F01AFC04204AF644
:100F8C00AA2104F03DFC05B000BD00002C482D4901
:100F9C0038B52D4A00242D4B2D4D04700C700820B3
:100FAC004FF6FF711C7014702C7004F029FC204655
:100FBC002146224606F054FBFF2006F05DFC2C78FF
:100FCC00012C05D16420FFF725FF05F053F9F6E756
:100FDC00204806F0B9FC012006F09AFC1B4B0120BE
:100FEC00197829B9FFF7E2FB6420FFF713FFF5E747
:100FFC00FFF7CEFB10210C2005F098FC164806F0EC
:10100C005FF806F0BFFC00200122014606F028FB29
:10101C0006F0ACFA4BF6BB31082004F0F1FB0F489C
:10102C00002404704FF47A70FFF7F4FE204606F0AB
:10103C0053FA48F24420BDE8384006F037BC00BFF4
:10104C006413002050130020341300205813002088
:10105C003513002049000020608A00083C13002052
:10106C0030B585B0FFF72EFC00F0F6F8504B187831
:10107C00012803D04F4909B1FFF76AF8FFF7D0FDFB
:10108C004D4CFFF717FD4D4D4D4A4E4B4E490092BE
:10109C0003934E4A4E4B4F480194029506F008FAC2
:1010AC004FF47A70FFF7B6FE002006F015FA48F2FE
:1010BC00442006F0FBFB042004F0B0FB4AF6AA2106
:1010CC00884201D0FFF746FF434802784AB908200E
:1010DC0004F0A4FB4BF6BB34A04202D03F4B0125DD
:1010EC001D703F4805F008FC3C49087810B1FFF72B
:1010FC004DFF15E0384D2A7892B13A4C24787CB9E2
:10110C0021462246204606F0ABFA374B0821032035
:10111C000093019102463549234606F03DFA2C70A6
:10112C0033480578012D16D12E4A1478012C12D192
:10113C00304B197801290ED103252F4807F098FB65
:10114C002D4982B2012006F07DF9681E10F0FF05D2
:10115C00F3D1274A1570234C23787BB1274C257883
:10116C0065B927490878421CD3B20B7000F0ACF972
:10117C00002801DA257001E0012525701F4C21782B
:10118C000029B1D01F480278002AADD0084D2B7829
:10119C00012B03D01C4C0CB1FEF7DBFF2978012985
:1011AC00A2D01A480268002A9ED090479CE700BF44
:1011BC00481300205D0100087D0B0008E90B0008B6
:1011CC00690B0008110C00086D0D0008750D000866
:1011DC007D0D0008850D0008480000203C13002000
:1011EC003D13002050130020238F00081F8F000890
:1011FC0064130020351300204C0000203F13002006
:10120C0051130020491300205F01000888150020AD
:10121C0008B528204FF4A04104F0F2FAFFF78EFD38
:10122C0008B50B4B5A680AB90A4959605B68EFF369
:10123C0008821818904206D906F010FC0C230360A3
:10124C004FF0FF3301E002494860184608BD00BF6B
:10125C00C40900201417002070B5DCB000219C22BA
:10126C0035A807F0C9F8802310213E4A37A83693D9
:10127C0001F01AFB10213C4A3AA801F015FB102191
:10128C003A4A3DA801F010FB1021394A40A801F060
:10129C000BFB1021374A43A801F006FB1021364AFC
:1012AC0046A801F001FB1021344A49A801F0FCFAD0
:1012BC004CA81021324A01F0F7FA35A801F0ACFF26
:1012CC0008B101204CE035A801F0D0FF0028F8D17E
:1012DC002C4B09AC03F1180518685968224603C257
:1012EC000833AB421446F7D115AC009435A8002155
:1012FC00182209AB02F006F90028E2D10FAD18262E
:10130C000095019635A8012103AA234602F046F95F
:10131C000028D6D1284609A9039A06F063FF0028B5
:10132C00CFD104AD09A831462A4603F0C3FB0121F5
:10133C000095019435A80522142302F075F9014695
:10134C000028BED10194009535A80522142302F083
:10135C0029FA04460028B4D135A802F0A9FA20468F
:10136C005CB070BD2C8F00082D90000833900008E5
:10137C0034910008B591000836920008B792000825
:10138C0038930008718A00080346A0F13000C0B2FF
:10139C00092817D9612B0CD0622B0CD0632B0CD0E5
:1013AC00642B0CD0652B0CD0662B14BF00200F20A7
:1013BC0070470A2070470B2070470C2070470D2097
:1013CC0070470E2070472DE9F041C0B00F468046A3
:1013DC001646684600214FF480721D4607F00CF843
:1013EC004FB1384607F044FA04463946684622465F
:1013FC0006F054FF00E03C4666B1304607F038FA80
:10140C0000AB02463146181906F048FF304607F08B
:10141C002FFA041965B1284607F02AFA024600A8EB
:10142C000019294606F03AFF284607F021FA04195C
:10143C000A210DF8041040466946621C002305F091
:10144C00F7FF40B0BDE8F0811FB5194B002B2ED033
:10145C001848002404601848AFF3008020B93023EA
:10146C008DF80430012316E0024623460A215C1C49
:10147C0092FBF1F2E3B2002AF8D101A9C9180A24AF
:10148C0090FBF4F204FB12000C4C205C01F8010DF3
:10149C001046002AF3D104A9C818094B09490022A7
:1014AC0000F80C2C18680A1D01ABFFF78CFF1FBD50
:1014BC000000000088150020881400205A0000202D
:1014CC006C1300208A8A000810B502200121062224
:1014DC0005F01EFE114C002820601BDB1049022277
:1014EC000A801D222323CA70EB228B704A7136238B
:1014FC00F9220B71CA714F2310228B7105F05CFE1F
:10150C00002807DB0022206806491346BDE810407E
:10151C00FFF759BF4FF0FF3010BD00BF6C13002018
:10152C0070140020988A000810B5044C206805F04F
:10153C001DFE10B94FF0FF33236010BD6C1300205B
:10154C00264BF7B51C682CB9254821464FF4807200
:10155C0006F052FF234F01213868234D00F01F0283
:10156C0001FA02F3460945F82630204B4FF4FA7283
:10157C00C4F1FF0600245A601C60401800932946F1
:10158C002246234605F044FEA04202DC002E22DC5B
:10159C001CE03868410955F8212000F01F0342FA7D
:1015AC0003F1CB07F2D50D4D0D4F2B683246F918D0
:1015BC00234605F0C5FE00280EDB2A680A21101808
:1015CC002860384606F0E8FF0028DFD003490023E6
:1015DC0008680B6000E00020FEBD00BFCC090020B5
:1015EC00701300206C13002068130020801400205E
:1015FC0070B54D4C032220464C4907F069F9024660
:10160C0018B94B4B4B49186816E020464A4905223D
:10161C0007F05EF990B9494803780BB901210170C4
:10162C00474A48480023136002784149086812B1C0
:10163C0045491A4672E0404913466FE0204643493B
:10164C00062207F045F910B9FFF7E2FD6AE0404DBC
:10165C00204605F10B01062207F03AF9064690B92F
:10166C00A0796874FFF790FE0121FEF7B5FF304AB0
:10167C00034610681BB9374905F10B024EE0364999
:10168C0005F10B0219E0204605F11301052207F0C4
:10169C001FF9064698B960792876FFF775FE314632
:1016AC00FEF79AFF2249034608681BB9294905F140
:1016BC00130233E0284905F1130233462EE020468D
:1016CC002649092207F004F9F0B904F109000A21AE
:1016DC0006F062FF30B110F8011C0D2908BF01386B
:1016EC000022027000214FF480721D4806F084FE27
:1016FC001C4807F0BDF81B490246194806F0CEFD00
:10170C0019481A4B18600DE02046194906F0C2FF23
:10171C0040B1074B1049186822460023BDE87040C1
:10172C00FFF751BE002070BD701300209F8A000887
:10173C006C130020A38A0008B38A00084913002008
:10174C004C13002048130020B98A0008C18A0008F5
:10175C005A0000208A8A0008C88A00088E8A00086D
:10176C0088140020791300205514000888150020D7
:10177C00CE8A000808B5FFF7E3FE002803DDBDE8BC
:10178C000840FFF735BF08BD7047FEE7FEE7FEE7F0
:10179C00FEE7704770477047FFF744BBFEF752BE39
:1017AC007047000008B54FF4006004F04FF928B101
:1017BC004FF4006004F05AF9FEF7BCFE4FF4806061
:1017CC0004F044F9A0B14FF4806004F04FF900200C
:1017DC000146FEF7FFFF07480122B0F840306433A2
:1017EC0099B2A0F840101021BDE8084004F091BB5C
:1017FC0008BD00BF002C014008B50F48102104F0B3
:10180C00C1FBB8B10C48102104F0C7FB0A481021E9
:10181C00002204F07EFB0020FFF7AEF8074B08B95E
:10182C00012200E00022002001211A70BDE80840CE
:10183C00FEF7D0BF08BD00BF002C0140AC09002052
:10184C0000F0E0B83A4B82B01A6842F00100186020
:10185C005968384A0A405A60186820F0847121F49B
:10186C0080321A60186820F4802119605A684FF48D
:10187C001F0122F4FE000022586099600092019230
:10188C00186840F480311960294B1A6802F4003052
:10189C00019000994A1C0092019818B90099B1F571
:1018AC00A06FF1D11B6813F4003218BF0122019212
:1018BC000198012805D0204B4FF000629A6002B0CD
:1018CC0070471E490B6843F010020A60086820F04C
:1018DC0003030B600A68A1F5805342F00200086014
:1018EC00596859605A685A60586840F48061596068
:1018FC005A6822F47C105860596841F4E8125A6016
:10190C00186840F0807119601868094A8101FBD58C
:10191C00536823F003015160506840F00203536098
:10192C00034A516801F00C000828F9D1C3E700BF45
:10193C00001002400000FFF800ED00E00020024023
:10194C0038B514490B78012B23D1134A13680BB902
:10195C000B7038BD114C402B206881B205D940303A
:10196C00403B20601360402504E09DB2C31800206A
:10197C00236010600A4A5018C0212A4603F0A6FDC5
:10198C000120294603F0ACFE0120BDE8384003F0ED
:10199C0015BE38BDB8090020C0090020BC090020C4
:1019AC0034120020094908B50020094B0122088097
:1019BC0003201A7003F0C0FE064B0246188006483E
:1019CC004FF48871BDE8084003F097BDB2090020C0
:1019DC00AE090020B0090020F4110020074B186854
:1019EC00052809D1064B1A68511C052A196003D128
:1019FC0000201860FFF748B9704700BFD8090020D5
:101A0C00D009002038B5194B194A1968194D88B2FC
:101A1C00108014882988214001F4007082B24AB1E8
:101A2C004FF6FF541C60144B1D78691CC8B218701B
:101A3C00FFF7D4FF0E4A0F4B14881D88254005F480
:101A4C00004188B215461C4608B103F079FC2A887F
:101A5C002388134003F4806188B230B1034B0749EB
:101A6C004FF6FF321A604868804738BD445C00402E
:101A7C008C150020C0150020D40900201401002072
:101A8C00034B987A10B1034905220A60704700BFD6
:101A9C009C150020D8090020014B04221A607047C5
:101AAC00D8090020034B1A78202A01D10020187085
:101ABC00704700BFD509002070470000212810B5E1
:101ACC0008D111480368197801F07F02212A11D03E
:101ADC00022010BD2028FBD10B4B19680A780B494A
:101AEC0002F07F030A4A212B0CBF0B460023107017
:101AFC000BB9EDE7074B044C20680024836144824A
:101B0C0020469847204610BDBC150020711B0008CC
:101B1C00D5090020591B0008074B19680A7802F0F8
:101B2C007F03212B05D1022801D1002070472228E8
:101B3C00FBD00220704700BFBC15002009B1022069
:101B4C0070470128FBD808467047000020B9034BAA
:101B5C00082219680A82704701487047BC1500209A
:101B6C00DC00002020B9034B082219680A82704758
:101B7C0001487047BC150020DC000020054B19689B
:101B8C00CA78042A04D8044B03EBC20103F074B9DD
:101B9C0000207047BC150020E4000020014903F030
:101BAC006BB900BF04010020014903F065B900BF07
:101BBC000C010020334A344BD179186810B500243D
:101BCC0041728472C472204603F0AAFC20464FF482
:101BDC00007103F0ADFC1021204603F0B5FC402150
:101BEC00204603F051FD8021204603F03DFD2046A8
:101BFC0003F006FD254B204693F8641003F07EFDA0
:101C0C00204603F0ECFC0120214603F091FC01205E
:101C1C00C02103F029FD0120202103F095FC0120B7
:101C2C00214603F0AEFC02204FF4C06103F080FCAF
:101C3C0002204FF4807103F017FD0220214603F0BF
:101C4C00A0FC0220202103F07FFC0320214603F09E
:101C5C006FFC03204FF4887103F016FD0320402124
:101C6C0003F04CFD03204FF4405103F08AFC032099
:101C7C00214603F069FC204603F010FB044A0120C6
:101C8C00106010BD368B0008BC150020DC00002055
:101C9C00D809002010B5FFF737F8054B0024186859
:101CAC00847200F009F803F05DFD02490C6010BD70
:101CBC00BC150020D809002008B50120FEF7D6FF7E
:101CCC00064B0749012200201A601860086005497C
:101CDC004FF4E0520A801A6008BD00BF405C00401F
:101CEC00445C0040C0150020A2F1300310B5DCB2FA
:101CFC00092C88BFFF230360A2F14103052B9CBF75
:101D0C00A2F137030360A2F16103052B01D8573A06
:101D1C000260006888422CBF6FF00500002010BDE7
:101D2C0000232DE9F04114461D460434854217DA90
:101D3C0054F804CCC3EB0C0644F8046C51F8257031
:101D4C00BE422CBF4FF000084FF00108F61B9C451B
:101D5C002CBF434608F1010344F8046C0135E4E759
:101D6C0020EAE07002EB800243B11168C81A994274
:101D7C0042F8040B2CBF00230123F5E7BDE8F081EA
:101D8C00F0B587B00193002384460391029205932A
:101D9C00BCF10F0F40F3CA8003980299059A019B7E
:101DAC0050F8044B4FF000050E68E3FB0425B71800
:101DBC0045F1000241F8047B50F8044B4FF000054C
:101DCC000E68E3FB0425B71845F1000241F8047BCB
:101DDC0050F8044B4FF000050E68E3FB0425B718D0
:101DEC0045F1000241F8047B50F8044B4FF000051C
:101DFC000E68E3FB0425B71845F1000241F8047B9B
:101E0C0050F8044B4FF000050E68E3FB0425B7189F
:101E1C0045F1000241F8047B50F8044B4FF00005EB
:101E2C000E68E3FB0425B71845F1000241F8047B6A
:101E3C0050F8044B4FF000050E68E3FB0425B7186F
:101E4C0045F1000241F8047B50F8044B4FF00005BB
:101E5C000E68E3FB0425B71845F1000241F8047B3A
:101E6C0050F8044B4FF000050E68E3FB0425B7183F
:101E7C0045F1000241F8047B50F8044B4FF000058B
:101E8C000E68E3FB0425B71845F1000241F8047B0A
:101E9C0050F8044B4FF000050E68E3FB0425B7180F
:101EAC0045F1000241F8047B50F8044B4FF000055B
:101EBC000E68E3FB0425B71845F1000241F8047BDA
:101ECC0050F8044B4FF000050E68E3FB0425B718DF
:101EDC0045F1000241F8047B50F8044B4FF000052B
:101EEC000E68E3FB0425B71845F1000241F8047BAA
:101EFC0050F8044B4FF000050E68E3FB0425B718AF
:101F0C0045F1000241F8047B50F8044B4FF00005FA
:101F1C000E68E3FB0425B71845F1000241F8047B79
:101F2C00059202910390ACF1100C31E7BCF1070F54
:101F3C0069DD03980299059A019B50F8044B4FF008
:101F4C0000050E68E3FB0425B71845F1000241F8C3
:101F5C00047B50F8044B4FF000050E68E3FB04259E
:101F6C00B71845F1000241F8047B50F8044B4FF0D0
:101F7C0000050E68E3FB0425B71845F1000241F893
:101F8C00047B50F8044B4FF000050E68E3FB04256E
:101F9C00B71845F1000241F8047B50F8044B4FF0A0
:101FAC0000050E68E3FB0425B71845F1000241F863
:101FBC00047B50F8044B4FF000050E68E3FB04253E
:101FCC00B71845F1000241F8047B50F8044B4FF070
:101FDC0000050E68E3FB0425B71845F1000241F833
:101FEC00047B50F8044B4FF000050E68E3FB04250E
:101FFC00B71845F1000241F8047B05920291039059
:10200C00ACF1080C92E7BCF1000F15DD03980299B6
:10201C00059A019B50F8044B4FF000050E68E3FB4A
:10202C000425B71845F1000241F8047B0592029192
:10203C0003900CF1FF3CE6E702980168059A8B18B7
:10204C0040F8043B05998B422CBF002301230593D8
:10205C00002BF2D107B0F0BD0FB482B002AA52F837
:10206C00043B0192101D04303BB1002201219A6007
:10207C0019605A6050F8083CF5E702B004B070479C
:10208C000FB413B504AB53F8044B01939CB1A06887
:10209C0038B162680021920006F0AEF9A06805F034
:1020AC0001FE0021012020606160A160019C231DC4
:1020BC0001932468EAE7BDE81C4004B07047F8B50A
:1020CC00436804468B420D461EDA8F00384605F0F5
:1020DC00E1FD0646B0B100213A4606F08DF9A16843
:1020EC0069B162683046920006F0D8F86368A0685F
:1020FC0000219A0006F080F9A06805F0D3FD656018
:10210C00A66001E00120F8BD0020F8BD8842F8B5BA
:10211C0004460D461FD049684E1EB300002E03DD49
:10212C00AA68D058043BA0B12968771C21602046CE
:10213C003946FFF7C4FF064670B962683146920013
:10214C00A06806F059F9A068A968BA0006F0A6F8CC
:10215C0002E0013EE2E700263046F8BD70B50E46BF
:10216C0001210446FFF7ABFF054688B96268A068F9
:10217C002946920006F040F9A36886EAE670A0EBC7
:10218C00E670002EACBF01264FF0FF3618602660BB
:10219C00284670BD70B5002345681946A9420EDA71
:1021AC00826852F82140002224FA02F616F0010F40
:1021BC0006D101320133202AF6D10131EEE700239A
:1021CC00184670BD4368013B9A00002B03DD816803
:1021DC008958043A21B1806850F823201F2004E06C
:1021EC00013BF2E710F1FF3003D322FA00F1C907EB
:1021FC00F8D500EB4313581C704708B5FFF7E2FF06
:10220C000730C01008BD2DE9F04107468846164638
:10221C000024B44202DA18F8043053B1311B042301
:10222C00CA1C92FBF3F13846FFF749FF0346F8B995
:10223C0001E00134EDE719463846FFF78FFF0346FE
:10224C00B0B9751E701EA542C5EB000210DB18F864
:10225C0005004FEAA20C02F00302D20000FA02F2CF
:10226C00B968013D51F82C00104341F82C00E9E706
:10227C001846BDE8F081F8B5144607460D46FFF741
:10228C00BCFF8442064618DB22462846002106F095
:10229C00B3F82C190023F21A002A0CDDBA68981036
:1022AC0003F0030152F82000C90020FA01F00133B9
:1022BC0004F8010DEFE70020F8BD6FF00700F8BD42
:1022CC002DE9F0414FF0200804460F4691FBF8F53C
:1022DC0001F01F06FFF776FF6368C019B0EB431FD0
:1022EC0002DC002D0DDC0AE000F11F0191FBF8F17E
:1022FC002046FFF7E4FE0028F3D0BDE8F081DEB9FC
:10230C0017E06FF003076F436268531E9200043AA4
:10231C00AB4205DBA168013B8818C0598850F6E731
:10232C009A00002BEBDBA16800208850013B043A9B
:10233C00F7E70020BDE8F0816768AB000022BD42E2
:10234C00F7DAA0680135C15801FA06FC42EA0C0222
:10235C00C250C6F12000043321FA00F2EFE720222C
:10236C0091FBF2F2002AF0B501F01F0105DC59B324
:10237C00436800245A1E9B0017E044680023A51AEA
:10238C00AB4207DA86689F1856F8277046F8237018
:10239C000133F5E725EAE5739A00A342E7DA85688D
:1023AC000026AE5001330432F7E7043B002A0BDB66
:1023BC008668013AF55825FA01F73C43F450C1F10F
:1023CC00200405FA04F4F0E70020F0BD70B5436872
:1023DC00013B9A00002B03DB8468A458043A1CB11F
:1023EC004C68621E940006E0013BF3E78D682E59A1
:1023FC00043C2EB9013A002AF8DAD843C00F70BD5C
:10240C00002B02DA4FF0FF3070BD934210DC9A4281
:10241C00F8DC9A00002B09DB81688C58A9588C4297
:10242C0006D8A2F10402EDD3013BF3E7002070BD06
:10243C00012070BD2DE9F04F87B0109D17466A68DA
:10244C008B46920000210646A868059305F0D4FF40
:10245C007C68DBF80430A868611C9C42B8BF23463A
:10246C008A0001900293049281464FF00008A04527
:10247C00CA46B06823DADBF8081050F828C0DAF83E
:10248C0000200868CDF800C000FB0C2305985246CC
:10249C004343029803936346FFF772FC5246B968B4
:1024AC002046039BFFF76CFCDDF800A0049A49F86A
:1024BC0004AB002149F8021008F10108D7E7019B91
:1024CC00621C24EAE471920003EB810105F0E6FE44
:1024DC0039463046FFF77AFF0028A7BFB968B268C3
:1024EC00B168AA68204607B0BDE8F04FFFF718BCEA
:1024FC0070B543680246013B9800002B05DB9468DD
:10250C00245804380CB9013BF7E74C68601E840072
:10251C0000282CDB8D682E59043C0EB90138F7E7E6
:10252C00002B02DA1068404270BD834201DD106856
:10253C0070BD9842F6DC10680968002801DD00299E
:10254C0010DB002901DD00280EDB9900002B10DBCD
:10255C0096686C587658A6420DD8A1F10401E2D3C6
:10256C00013BF3E7012070BD4FF0FF3070BD002B35
:10257C00DDDA002070BD70BD1FB581EAE173A3EBFD
:10258C00E1730029ACBF01214FF0FF3100930191A1
:10259C00012200AB01A902920393FFF7A9FF05B03A
:1025AC0000BD90422DE9F0410546144606D0884204
:1025BC0005D0FFF7ABFD064608B154E00C46606849
:1025CC0000F1FF384FEA8806B8F1000F03DBA26870
:1025DC009159043E61B1284608F10101FFF76FFDE6
:1025EC00064600283FD1A168AB680746044602E0C6
:1025FC0008F1FF38E8E71A4604310433444519DC86
:10260C0053F8040C381843F8040C51F8042C00EB64
:10261C00020C43F804CC51F8042C94452CBF4FF019
:10262C00000C4FF0010CB8422CBF67460CF10107AF
:10263C000134E0E74FEA8408AFB16868844206DBF6
:10264C002846611CFFF73BFD60B9AA68424411683B
:10265C0008F104087B18BB422CBF0027012713602C
:10266C000134E9E706463046BDE8F081F0B5064690
:10267C0085B008460F4611461546FFF7A7FE002801
:10268C002BDB002101A8FFF7E7FCAE4206D101A825
:10269C003146FFF73BFD0446D0B901ADBE4203D134
:1026AC006868441EA3000BE030463946FFF72EFD48
:1026BC00044668B9F4E7AA68D158043B11B9013C47
:1026CC00002CF8DA601CA968B268FFF729FB00241B
:1026DC0001A80021FFF7D4FC01E06FF009042046AB
:1026EC0005B0F0BDF8B50D68136804466B430E4693
:1026FC00174612D508461146FFF768FE00282046FB
:10270C0004DB31463A46FFF7B1FF08E03946324662
:10271C00FFF7ACFF28B96D4202E0FFF742FF00B9AA
:10272C002560F8BDF8B50D68136804466B43002BA3
:10273C000E46174612DD08461146FFF747FE0028E5
:10274C00204604DB31463A46FFF790FF08E0394655
:10275C003246FFF78BFF28B96D4202E0FFF721FFED
:10276C0000B92560F8BD1FB582EAE273A3EBE273F2
:10277C00002AACBF01224FF0FF32019200AA009355
:10278C000392012301AA0293FFF7ACFF05B000BD31
:10279C001FB582EAE273A3EBE273002AACBF0122FD
:1027AC004FF0FF32019200AA00930392012301AA79
:1027BC000293FFF7B7FF05B000BD2DE9F04786B0D7
:1027CC000646884617466846002203A9FFF744FCD4
:1027DC00464507D168463146FFF798FC0446002869
:1027EC004DD1E846BE4207D103A83146FFF78EFC17
:1027FC000446002843D103AFD8F8043003F1FF3965
:10280C004FEA8901B9F1000F04DBD8F808205058C1
:10281C00043918B17D68013DAB0007E009F1FF39BF
:10282C00F0E7BC68E258043B12B9013D002DF8DA20
:10283C0009EB050130460231FFF741FC0446F0B9C3
:10284C0021463046FFF78AFC0446C0B909F101095C
:10285C004FEA850A002D0DDBB268BB68524453F871
:10286C000A304846D8F80810FFF78AFA013DAAF159
:10287C00040AEFE7D8F800003A685043306003A828
:10288C0069460022FFF7FCFB204606B0BDE8F08746
:10289C001FB5012301930293009200AB01AA03938D
:1028AC00FFF78BFF05B000BD2DE9F043A1F102034A
:1028BC000E2B85B005468846164678D8002101A80F
:1028CC00FFF7CAFBB8F1100F3ED1304605F0D0FF30
:1028DC00820002F11F0461092846FFF7F0FB044651
:1028EC0000285FD121462846FFF738FC0446002813
:1028FC0058D1304605F0BCFF00F1FF394F46002F90
:10290C00C7EB09082CDB06D133782D2B03D14FF004
:10291C00FF30286046E068461021F25DFFF7E4F9CD
:10292C0000283ED14FEAE800009908F007084FEA6A
:10293C00880301FA03FCAA68013F52F8203043EAED
:10294C000C0142F82010DAE728460021FFF706FCBC
:10295C00044638BB0746304605F08AFF874201DB48
:10296C0000241FE037B930782D2803D14FF0FF3108
:10297C00296014E068464146F25DFFF7B5F904465C
:10298C0080B901A829464246FFF782FF044648B9A0
:10299C00284601A9009AFFF7E6FE044610B9013754
:1029AC00D9E7044601A80021FFF76AFB01E06FF0AC
:1029BC000304204605B0BDE8F08300002DE9F04F7C
:1029CC009BB003900F461846002190460593FFF7E5
:1029DC00D3FD002800F0A281002417AD0BA80EA98E
:1029EC0011AA14AB00950194FFF736FB40460599EC
:1029FC00FFF7ECFCA04216DA039A0AB94FB910E0C3
:102A0C0021460398FFF7AAFB0446002840F0798181
:102A1C00F4E738464146FFF779FB0446002840F0BE
:102A2C00708100247CE10BA84146FFF76FFB044644
:102A3C00002840F066810EA80599FFF767FB044655
:102A4C00002840F05E81D8F80410012311A802314F
:102A5C000E930B93FFF733FB0446002840F0518193
:102A6C00214611A8FFF77AFB0446002840F0498163
:102A7C0014A80221FFF723FB0446002840F04181F3
:102A8C0028460321FFF71BFB0446002840F0398140
:102A9C000EA8FFF797FBA04B0340002B03DA581E40
:102AAC0060F01F02531C1F2B10D0C3F11F010BA889
:102ABC000491FFF705FC002840F022810EA8049930
:102ACC00FFF7FEFB002840F01B8101E00025049578
:102ADC000C9E0EA8029606F1FF3A0F9E06F1FF39E6
:102AEC00C9EB0A054FEA451B5946FFF7E9FBAD0058
:102AFC000BA80EA9FFF7FCFC002809DB13980EAA03
:102B0C0041594B1C43510BA80146FFF70BFEEFE755
:102B1C0059460EA8FFF723FC09F1FF3293006FF022
:102B2C000302029972434FEA89008D1B07906801DA
:102B3C00089302904FEA8A050692CA4540F3BE807C
:102B4C000D99109E07984A5933589A4206D3139EF2
:102B5C0006994FF0FF3273185A512CE01E0CB2FB41
:102B6C00F6F0491906FB102251F804CC1FFA83FE2B
:102B7C004FEA1C4141EA02420EFB00F18A4203D2A9
:102B8C00D21801389A42F9D2521AB2FBF6F106FB6E
:102B9C0011261FFA8CFB0EFB01FC4BEA0642624528
:102BAC0003D2D21801399A42F9D2139E069B41EAFC
:102BBC000040F2185051069813992E188B59A5F114
:102BCC0008005A1C8A510990A5F1040B139914A8FA
:102BDC008B595A1E8A510021FFF7C0FA002840F089
:102BEC008F80B9F1000F109AC8BF0899169BC8BF07
:102BFC00505818600798115814A85960139B014637
:102C0C009A59FFF745FE0146002877D117A8FFF720
:102C1C00A5FA002874D1BAF1010F199B02DD0D9AA7
:102C2C000999505818600D98BAF1000FCCBF50F8A4
:102C3C000B1000215960415914A8996017A9FFF78E
:102C4C0057FC0028C2DC139B14A80EA99A59FFF755
:102C5C001FFE002854D1029A14A8A2F1200B594649
:102C6C00FFF72EFB00284BD10BA8014614AAFFF747
:102C7C0059FD0146002841D10BA8FFF77DFC002827
:102C8C0015DA14A80EA9FFF741FA002838D114A8B8
:102C9C005946FFF715FB002832D10BA8014614AAA0
:102CAC00FFF720FD60BB139881594B1E8351029A8C
:102CBC000AF1FF3A203A0292043D3EE7039848B1EC
:102CCC0011A9FFF723FA0599D8F800300868039A80
:102CDC0043431360AFB104990BA8FFF740FB0BA95A
:102CEC003846FFF713FAD8F8003038463B6000211D
:102CFC00FFF742FC28B90121396002E00C4600E0E4
:102D0C00044617A80021009001910BA80EA911AA46
:102D1C0014ABFFF7B5F903E01F0000806FF00B0454
:102D2C0020461BB0BDE8F08F70B50B460446164626
:102D3C0000201A4621463346FFF740FE0546D8B917
:102D4C0000212046FFF718FC00280DDA204621460A
:102D5C003246FFF7C7FC0028F2D00CE02046214693
:102D6C003246FFF7DFFC30B920463146FFF7C0FB97
:102D7C000028F3DA00E00546284670BD2DE9F04F37
:102D8C008046ADF5517D89461846002105921D46B9
:102D9C00FFF7F2FB0028C0F2B881AB681F68F80798
:102DAC0040F1B381002207A80AA9FFF755F90021C9
:102DBC004FF4407210A805F01FFB0598FFF702FABC
:102DCC00B0F5287F08DAEF2808DC4F2808DC172834
:102DDC00D4BF0126032604E0062602E0052600E007
:102DEC000426686800F1010A51464046FFF767F96E
:102DFC000446002840F06B8113A85146FFF75FF999
:102E0C000446002840F063810AA84FEA4A01FFF704
:102E1C0056F90446002840F05A81DA9A0AB19168B2
:102E2C0019BB07A80121FFF799F90446002840F0C7
:102E3C004E816A6807A89101FFF742FA0446002800
:102E4C0040F0458107A801462A46FFF76DFF04466E
:102E5C00002840F03C81DA9971B1DA9B07AC03CCC5
:102E6C00186059602068986006E0DA9B07AC186817
:102E7C00596803C49868206029464846FFF738FB18
:102E8C000028494613A803DB2A46FFF74DFF01E053
:102E9C00FFF73CF9BA1C02F0040107EB410407FBF5
:102EAC0004F3C3F10200604307FB00F2C2F102011C
:102EBC00414307FB01F9A9F1020707FB01F90AAF2E
:102ECC0013A807A92A464B460097FFF7B3FA4046CA
:102EDC0007A9FFF71BF90446002840F0F88006AB61
:102EEC004FF0010A0F93009740460DA92A464B4616
:102EFC00CDF818A0CDF834A0CDF838A0FFF79AFA89
:102F0C00564507D1059F786800270490BA46BB4602
:102F1C00BC466CE006F1FF3B0AFA0BFA0C2010AA37
:102F2C0000FB0A27696838460131FFF7C8F800280A
:102F3C0040F0CC80384613A9FFF7E8F8002840F0A1
:102F4C00C580A4460AAB0093384639462A464B4600
:102F5C00CDF80CC0FFF76EFADDF80CC00CF1010CCB
:102F6C00DC45EFDB012707FA06F70AF1010ABA453F
:102F7C00C8DA0C2310AA03FB0A2B696858460131E6
:102F8C000393FFF79CF8039B002840F09F800AF105
:102F9C00FF3110AA584603FB0121FFF7B7F80028B0
:102FAC0040F094800AA8009013A958462A464B4634
:102FBC00FFF740FA0AF1010AD9E704914FF0200B10
:102FCC00059B049A98680BF1FF3B50F8221021FAEC
:102FDC000BF313F0010017D00AF1010ACAEB060734
:102FEC0000FA07F0B24540EA0C0C1ED00227BBF1E8
:102FFC00000FE5D1049A511E002ADED1012000FAFF
:10300C0006F09346059050E0002FF0D0012FE3D14D
:10301C000AAB0093404641462A464B46CDF80CC0BD
:10302C00FFF708FADDF80CC0E1E74FF0000A0AAF31
:10303C000097404641462A464B460AF1010ACDF814
:10304C000CC0FFF7F7F9B245DDF80CC0EFDB0C2232
:10305C0010A902FB0C11009740462A464B46FFF77D
:10306C00E9F94FF0000C0127E246C0E70AAF4046F1
:10307C00009741462A464B46CDF80CC0FFF7DAF9CB
:10308C00DDF80CC005984FEA4C0C10EA0C0F0AD076
:10309C000097404613A92A464B46CDF80CC0FFF7C3
:1030AC00C9F9DDF80CC00BF1010BD345DEDB0121B6
:1030BC0006AA0AAB06910D910E910F920093404611
:1030CC000DA92A464B46FFF7B5F900E00446751EDC
:1030DC00012303FA05F503FA06F6B54208DA0C21CA
:1030EC0010A801FB05000021FEF7CAFF0135F4E72B
:1030FC00DA9A13A80AA91AB10022FEF7C1FF06E05A
:10310C0007AADA9BFEF7BCFF01E06FF00304204630
:10311C000DF5517DBDE8F08F70B58AB00C460023DB
:10312C0004A90646154601A807AAFEF795FF2146F5
:10313C0004A8FEF7EBFF0446002863D107A8294634
:10314C00FEF7E4FF044600285CD104A8FFF722F840
:10315C00054607A8FFF71EF8A842B8BF0546294642
:10316C0004A8FFF7FCF8044600284BD107A8294611
:10317C00FFF7F5F80446002844D101230793049384
:10318C0004A80021FFF7F8F9002830D004A8FFF7B5
:10319C0001F8014604A8FFF7E2F80446002831D1F3
:1031AC0007A8FEF7F7FF014607A8FFF7D8F8044673
:1031BC0040BB04A807A9FFF79BF9002808DB04A86B
:1031CC00014607AAFFF752FA0446D8B904A807E04B
:1031DC0007A8014604AAFFF749FA044690B907A8C4
:1031EC000121FFF7BCF804460028C9D00AE007A863
:1031FC002946FFF765F8044620B9304607A9FEF7C3
:10320C0085FF044607A804A901AA0023FEF738FF8E
:10321C0020460AB070BD000038B503690446186832
:10322C00C20701D4104838BDE1690A68D307F9D543
:10323C0004F108052846FEF7C5FF7F28F2DD284675
:10324C00FEF7C0FFB0F5805FECDC14342046FEF7CF
:10325C00B9FF0128E6DD2046FEF7B4FF024B4028FB
:10326C00CCBF1846002038BDD0FBFFFF2DE9F04F36
:10327C009BB00546FFF7D0FF044600287FD111AE66
:10328C0014AF0DF15C09039008A905A80BAA0EABAD
:10329C0000960197CDF8089005F12C0B05F1380A32
:1032AC00FEF7DAFE05A859465246FFF786FA0446A1
:1032BC0000284ED105F1140808A805F1200142465A
:1032CC00FFF77BFA0446002843D10BA8594601228C
:1032DC00FFF75EFA044600283BD10EA851460122A6
:1032EC00FFF756FA0446002833D130460BA90EAA34
:1032FC00FFF763FA044600282BD1384608A932465A
:10330C00FFF712FD044620BB484641463246FFF704
:10331C0003FF0446E8B905A805F10801FFF7E8F832
:10332C00B8B938460121FFF727F990B917A8012140
:10333C00FFF722F968B90BAB08A905AA0093019114
:10334C000292039014A917A811AA0EABFEF798FECF
:10335C0015E00BA808AB05A900220090019302917F
:10336C00039217A80EAB44F07F4414A911AAFEF7E0
:10337C0087FE44F47F0040F47B4343F0D0042046A6
:10338C001BB0BDE8F08F00002DE9F04186B00C4673
:10339C000546002103A89046FEF75EFE214603A8D1
:1033AC006A68FEF730FF044600BB05F1080603A867
:1033BC003146FFF79DF8002805DB03A82146FEF7F0
:1033CC005FFE10481BE005F1680303A8009301465B
:1033DC0005F1140233466F68FFF7D0FC044628B998
:1033EC0003A841463A46FEF746FF044603A80021CF
:1033FC00FEF746FE14B10448204300E0204606B018
:10340C00BDE8F08100FCFFFFC0FBFFFF2DE9F041A0
:10341C008CB00C46054606A903A80023904609AAC1
:10342C00FEF71AFE214603A86A68FEF7ECFE044676
:10343C00002854D103A805F10801FFF759F800281A
:10344C0005DB03A82146FEF71BFE2C4853E005F1D3
:10345C00740305F12C07009306A803A905F1440297
:10346C003B46FFF78BFC0446002838D105F1800061
:10347C0005F13806009003A909A805F1500233465E
:10348C00FFF77CFC0446002829D103A806A909AA49
:10349C00FFF748F9044610BB06A803A905F15C0226
:1034AC00FFF78BF90446D0B903A806A93A46FFF7F3
:1034BC003BFC044698B906A803A93246FFF77DF9F0
:1034CC00044660B903A809A906AAFFF70BF904463C
:1034DC0028B903A841466A68FEF7CDFE044603A846
:1034EC0006A909AA0023FEF7CBFD1CB1044944EA46
:1034FC00010000E020460CB0BDE8F08100FCFFFFAD
:10350C00B0FBFFFF2DE9F84FD0F88C70164605463E
:10351C008A469B460A9C4268002F35D1002E36DB2A
:10352C0006F10A03934232DA0220A2F10309C6EB38
:10353C0009092770607004EB0008C7EB090100292A
:10354C0008DD04F0F3FFC0B208F807000028F8D03B
:10355C000137F2E729EAE97908EB09020023501C4C
:10356C005946324608F8093004F098FE28462146A0
:10357C002246BAF1000F03D1BDE8F84FFFF704BFA4
:10358C00BDE8F84FFFF742BF0248BDE8F88F02488C
:10359C00BDE8F88FF0FBFFFF00FCFFFFF0B54568BE
:1035AC001746A5F11002B2F5F87FADF5017D064680
:1035BC002BD821B919466A46FFF7E6FE03E01946F7
:1035CC006A46FFF723FF044620BBD6F88C30F3B9CC
:1035DC009DF80000D8B99DF80110022917D10DF102
:1035EC00010111F8012F6B4622B16A1E9818814215
:1035FC00F7D30CE00131581A879B2A189A4208DC41
:10360C003A60869804F04AFE04E0044C02E0044C54
:10361C0000E0044C20460DF5017DF0BD00FCFFFFE1
:10362C00F0FBFFFF90FBFFFF2DE9F74F9246D0F820
:10363C008C20814601910C9F0D9E4568002A40F01C
:10364C00A280BAF1050F00F2A080DFE80AF0039E19
:10365C0006060608033DED1A02E0253D00E0263D76
:10366C00072D40F3928006F1020B4FF00008012069
:10367C00707086F800805846FF212A4600930BEBA9
:10368C00050404F0B9FE0BF80580601C009BBAF130
:10369C00050F7AD8DFE80AF003790820395139464A
:1036AC001A4604F0FBFD5FE03A4B054603F11002AD
:1036BC0053F8040B934245F8040BF9D1198807F120
:1036CC001002298004F1130357F8040B974243F8B6
:1036DC00040BF9D1022216E02E4B054603F1100023
:1036EC0053F8041B834245F8041BF9D11A8807F1DF
:1036FC0010002A8004F1130357F8041B874243F887
:10370C00041BF9D10422A2732EE0224B054603F1CF
:10371C00100053F8041B834245F8041BF9D11A8896
:10372C0007F110002A8004F1130357F8041B874299
:10373C0043F8041BF9D10522E5E7174B054603F1C5
:10374C000C0253F8041B934245F8041BF9D118885A
:10375C009B782880AB70103407F1140157F8042BB8
:10376C008F4244F8042BF9D1019B4846314632462E
:10377C0023B903B0BDE8F04FFFF706BE03B0BDE8B8
:10378C00F04FFFF743BE054800E0054803B0BDE825
:10379C00F08F00BF8B8B00089E8B0008F0FBFFFFA7
:1037AC0000FCFFFF2DE9F04F47689A46A7F1100384
:1037BC00ADF5017DB3F5F87F0C4605461646DDF8F0
:1037CC0028928B995FD86A4614B9FFF7DDFD01E0AA
:1037DC00FFF71CFE044600285AD1D5F88C000028AF
:1037EC0053D19DF8001000294FD19DF80120012ADA
:1037FC004BD10DF1010515F8013F684633B17A1E26
:10380C008018854241D2FF2BF5D03EE005F101082E
:10381C00C8EB00017F18222F1FD195F80EB040463F
:10382C00AB731E49122204F0DDFC80BBBBF1020F0E
:10383C0001D1022E08E0BBF1040F01D1032E03E0ED
:10384C00BBF1050F18D1042E16D105F11300494612
:10385C00102204F0C7FCD8B119E0232F0CD1052E8F
:10386C000AD140460E490F2204F0BCFC78B905F190
:10387C00100049461422ECE7574506D12EB94046B4
:10388C0049463A46E5E7074C02E0074C00E0074C96
:10389C0020460DF5017DBDE8F08F00BF8B8B000835
:1038AC009E8B000800FCFFFFF0FBFFFFA0FBFFFF5F
:1038BC0000B5034689B000F1500200F1440003F159
:1038CC0038010092019003F12C0203F120000291C7
:1038DC00039203F1140103F10802049000200591F6
:1038EC000692079003F1740103F1800003F1680262
:1038FC005C33FEF7C5FB09B000BD00002DE9F04FAD
:10390C0091F8019097B091F800B04F79CB780E797F
:10391C0013904FEA094040EA0B628D78380442EA72
:10392C000304CB7940EA06624E7A44EA05290F7A01
:10393C008C791A433004CB7A42EA042591F80DC0F5
:10394C008C7A40EA07621A4306950D7B42EA0426FC
:10395C0091F81180CA7B4FEA0C4747EA05608B7BD4
:10396C000D7C40EA020491F815A0CA7C4FEA084786
:10397C0044EA032C47EA05608B7C0D7D40EA020487
:10398C004FEA0A47CA7D44EA032847EA05608C7D62
:10399C004F7E40EA02030D7E43EA042A3804CB7EB4
:1039AC008C7E40EA0562487F0F7F1A4342EA042569
:1039BC00CC7F020442EA076311958D7F234343EACF
:1039CC000527129791F8212091F8200091F82350A7
:1039DC00130491F8227091F825B043EA006491F831
:1039EC0024202C4344EA072091F827504FEA0B433C
:1039FC0043EA026491F829B00B9091F8260044EA4E
:103A0C00050791F8283047EA00224FEA0B4491F859
:103A1C002B7044EA036591F82DB00C9291F82A2092
:103A2C0045EA070091F82C4040EA02234FEA0B4587
:103A3C0091F82F0045EA046791F831B00D9391F895
:103A4C002E3047EA000291F8305042EA03244FEA44
:103A5C000B4791F8332047EA056091F8323091F822
:103A6C0035B091F834700E9440EA020444EA032510
:103A7C004FEA0B4091F8374040EA076291F8363034
:103A8C0091F839B091F83800109542EA040545EAEE
:103A9C0003274FEA0B4291F83B5042EA006491F83D
:103AAC003A30079744EA050747EA0320089091F853
:103ABC003DB091F83C2091F83F704FEA0B4444EA3A
:103ACC00026591F83E10139A45EA070343EA012B6D
:103ADC001398D168139C139B139A856827695869AE
:103AEC009469E64B03970290E71807EBF560059590
:103AFC00029A039D029F6A400A407A4001948418FE
:103B0C004FEAB102049182EA0501059DF818039F62
:103B1C002940CDF824B07940DDF818B040184C4459
:103B2C004FEAB50500EB0B0101EBF46085EA0201ED
:103B3C00FF1821405140BF194FEAB4047F1807EB1E
:103B4C00F06184EA0507D21807406F404FEAB000D5
:103B5C006244D21980EA0407ED180F4067404544CF
:103B6C0002EBF162ED194FEAB1010AEB03073C19C4
:103B7C0081EA0007DDF844B01740474005EBF265D9
:103B8C00E4194FEAB2020BEB0307381882EA01077B
:103B9C00DDF848B02F404F4004EBF564C0194FEAF4
:103BAC00B5050BEB0307791885EA0207DDF82CB095
:103BBC002740574000EBF460C9194FEAB4040BEBF3
:103BCC000307BA1884EA0507DDF830B007406F40E8
:103BDC0001EBF061D2194FEAB0000BEB03077D1932
:103BEC0080EA0407DDF834B00F40674002EBF16265
:103BFC00ED194FEAB1010BEB03073C1981EA000701
:103C0C00DDF838B01740474005EBF265E4194FEA90
:103C1C00B2020BEB0307381882EA0107DDF840B05B
:103C2C002F404F4004EBF564C0194FEAB5050BEB80
:103C3C000307791885EA0207DDF81CB027405740C6
:103C4C0000EBF460C9194FEAB4040BEB0307BA1884
:103C5C0084EA0507DDF820B007406F4001EBF06106
:103C6C00D2194FEAB0000BEB03077D1980EA040769
:103C7C00DDF824B00F40674002EBF162ED194FEA1A
:103C8C00B1010BEB03073C1981EA000717404740D1
:103C9C00E4190B9F86EA090989EA070BDDF81C90E9
:103CAC0005EBF2658BEA09074FEAF77B4FEAB202A4
:103CBC000BEB0307381882EA01072F404F40CDF871
:103CCC0028B0C019069FDDF830908CEA070B089FCE
:103CDC008BEA090B8BEA07094FEAF97B04EBF564D5
:103CEC000BEB03074FEAB505791885EA0207274065
:103CFC005740C9190D9F88EA06067E40099F00EBC4
:103D0C00F4607E404FEAB4044FEAF676F7180F964B
:103D1C0084EA050606406E40BA1801EBF06197196B
:103D2C0007EBF1620E9F8AEA0C067E400A9F4FEA6F
:103D3C00B0007E4080EA040C4FEAF6760CEA0107EC
:103D4C00DDF84490F318CDF818B000964FEAB10B9B
:103D5C0087EA040610995D19AB1989EA0805069ED5
:103D6C004D4003EBF2677540454B4FEAF5758BEA16
:103D7C00000C4FEAB20605EB03088CEA0201129A1A
:103D8C004444DDF81C8004EB010982EA0A0A0F990D
:103D9C008AEA08044C404FEAF47404EB030C86EAFC
:103DAC000B0282EA070A604409EBF76900EB0A018F
:103DBC00119A0B9801EBF96C4FEAB7070899159714
:103DCC005040009F4840159A78404FEAF07000EB45
:103DDC00030882EA060708EB0B0187EA090B129A23
:103DEC0001EB0B0A0C99099F5140794069404FEA4D
:103DFC00F17101EB030808EB0602159E4FEAB909B5
:103E0C0089EA060B8BEA0C0702EB07080B9E0D9A4E
:103E1C000A9F72400AEBFC6A7A404FEABC0CCDF860
:103E2C0044C062404FEAF272DDF854C0119E02EBBE
:103E3C00030B0BEB0C0786EA090B8BEA0A0608EB63
:103E4C00FA68BF1907EBF866DDF830C00E9F1296C2
:103E5C00069E87EA0C0787EA060B8BEA00074FEAF7
:103E6C00F77CCDF82CC0119F4FEABA0A0CEB030675
:103E7C008AEA070BB1448BEA080603E09979825A67
:103E8C00A1EBD96E09EB060C0D9F109EDDF8489046
:103E9C0086EA070B0F9E0CEBF9698BEA060787EA9B
:103EAC00010C4FEAFC7B119F0BEB03064FEAB808A1
:103EBC0006EB070C129ECDF830B088EA0A0B8BEAA1
:103ECC0006074FEAB6061196BC44079E0E9F0CEBF4
:103EDC00F96C7E40009F86EA070B8BEA02064FEADC
:103EEC00F67B119E0BEB0307CDF834B086EA080B7A
:103EFC00BA448BEA0907109EBA44089F4FEAB909E5
:103F0C00774087EA050B0B9F0AEBFC6A8BEA0706E6
:103F1C004FEAF67B119E0BEB0307CDF838B089EA1C
:103F2C00060BB8448BEA0C07B844DDF81CB0099FAB
:103F3C004FEABC0CCDF840C087EA0B0CDDF830B072
:103F4C008CEA040787EA0B074FEAF77C0CEB030BB0
:103F5C000BEB0607109ECDF81CC086EA090C8CEA08
:103F6C000A0B08EBFA685F4407EBF867DDF820C032
:103F7C0011970A9F4FEABA0A87EA0C07DDF834C09A
:103F8C0087EA000B8BEA0C074FEAF77B0BEB030776
:103F9C008AEA060686EA080CB944119E09EB0C075E
:103FAC0007EBF669CDF820B0069FDDF824B04FEA98
:103FBC00B80887EA0B0CDDF838B08CEA010686EA03
:103FCC000B074FEAF77CCDF824C0109E119F0CEB29
:103FDC00030B0BEB060C88EA0A0B8BEA0706B444BE
:103FEC004FEAB70B0F9E0A9FCDF840B07E4086EA91
:103FFC00020B079E0CEBF96C8BEA06074FEAF77B7A
:10400C00109FCDF828B00BEB030687EA080BB244DF
:10401C008BEA0906069FB244009E4FEAB90986EA6C
:10402C00070B0B9E089F8BEA060B8BEA07064FEAE1
:10403C00F67B109E0BEB0307CDF818B089EA060B44
:10404C00B8440F9E8BEA0C07B8440C9F85EA060B0C
:10405C008BEA0706099F0AEBFC6A86EA070B4FEA14
:10406C00BC0C109E4FEAFB7BCDF83CB00BEB03076E
:10407C008CEA090BBF198BEA0A06BF19009E08EBE4
:10408C00FA6884EA060B0D9E4FEABA0A8BEA060B15
:10409C000A9E45408BEA060B4FEAFB7B0BEB0306B3
:1040AC00B1448AEA0C0686EA0806B1440E9E07EB78
:1040BC00F8677540069E4FEAB80875404FEAF576EA
:1040CC00F518AC4488EA0A057D40AC44079D4C4089
:1040DC006C400F9D09EBF7696C404FEAB7074FEA4C
:1040EC00F474E518119487EA0804AA4484EA0905D3
:1040FC00089C5040AA4460405D4668400CEBF96C4B
:10410C004FEAF0704FEAB909C41889EA0705CDF8EF
:10411C0040B0129004EB080B85EA0C000BEB000886
:10412C00DDF82CB0099C8BEA0101614071404FEA2B
:10413C00F1700AEBFC6AC3184FEABC0C8CEA09015B
:10414C00DF190C9B81EA0A040A9914905A40381919
:10415C00119C4A40DA4B08EBFA65624000EBF567BC
:10416C004FEABA0A4FEAF270C21845EA0A011590F2
:10417C00914401EA0C0005EA0A024FEAB50840EA4C
:10418C0002010D9D09EBF76404EB0109069C85EA1D
:10419C000B0B129A8BEA040080EA02014FEAF17BC6
:1041AC0047EA08040BEB030504EA0A0007EA0802D5
:1041BC0040EA02010C9C0E98AC440CEB01050F9AE2
:1041CC0005EBF96CCDF82CB0149D80EA040B8BEA4E
:1041DC00020181EA05004FEAB7074FEAF07B0BEBCF
:1041EC00030449EA070202EA080109EA0700A244AB
:1041FC000AEBFC6541EA000405EB040A0D9A079DE5
:10420C001099CDF830B0159C85EA020B8BEA0100B1
:10421C004FEAB90980EA04054FEAF57B4CEA09013B
:10422C000BEB03020CEA0900394041EA000490440C
:10423C000E99089ACDF834B008EB040582EA010B0C
:10424C000B9C8BEA060005EBFA6880EA04054FEA42
:10425C00F57B4FEABC0C0BEB03024AEA0C0101EABA
:10426C0009040AEA0C05D71907EBF86044EA0502C1
:10427C00871809990798119C0C9D41404FEABA0A7E
:10428C00614048EA0A00694000EA0C0408EA0A05A1
:10429C004FEAF172D11807920A9844EA0502089C79
:1042AC00129D894409EB020160400D9A6840504010
:1042BC0001EBF7694FEAB8084FEAF071C81847EA02
:1042CC00080507EA08028444089105EA0A010CEB88
:1042DC00F96411436018069A099C149D6240594672
:1042EC006A404FEAB7074A4049EA07054FEAF272BB
:1042FC00D41805EA0801099209EA070211430A9D3C
:10430C00CDF838B004EB0A0BDDF83CA00BEB010444
:10431C00159A04EBF0618AEA050C079C8CEA020BF7
:10432C008BEA04054FEAB9094FEAF57A0AEB030266
:10433C0040EA090505EA070C904400EA090208EB7B
:10434C00F1644CEA020BCDF828A004EB0B0A109A8E
:10435C00069C0B9D6240089C4FEAB0006A4041EA03
:10436C00000C62400CEA090501EA00044FEAF27203
:10437C00069202EB030845EA04020F9D0C9C86EAA8
:10438C00050B4744DDF82480BF188BEA040207EBC9
:10439C00FA6C82EA08074FEAB1014FEAF77B0BEBA4
:1043AC0003054AEA01070AEA0102A944074009EB9E
:1043BC00FC64109D1743119AE7190D9C6A400A9DE5
:1043CC0062404FEABA0A6A404FEAF2724CEA0A05B6
:1043DC00D41810920D400CEA0A0215432018441907
:1043EC001298DDF8189080EA06080E9ECDF83CB0C5
:1043FC0088EA060B8BEA09054FEAF5794FEABC0C03
:10440C0009EB030247EA0C0604EBF764511806EAC1
:10441C000A0507EA0C0201EBF460DDF850B01199C3
:10442C001543451907988BEA01080F9A88EA00068C
:10443C004FEAB70786EA02014FEAF17844EA070629
:10444C0008EB030004EA070206EA0C01114382445C
:10445C000AEB0100129A159900EBF5660898514089
:10446C00109A414051404FEAF1714FEAB404C81818
:10447C00844445EA040005EA0402384011911043D3
:10448C000CEBF6610B9A081859464A4009994FEA09
:10449C00B5054A4082EA09024FEAF271CA18D219EC
:1044AC0046EA05071291274006EA05010F43D21987
:1044BC0002EBF061159F0C9ADDF828B002E000BF0A
:1044CC00DCBC1B8F82EA070A8AEA0B0282EA080725
:1044DC004FEAF77A0AEB03024FEAB606141904EB1B
:1044EC00F16240EA060400EA06072C403C4314192A
:1044FC00DDF834C00B9A069F8CEA020BDDF844C041
:10450C008BEA070282EA0C0B4FEAFB7C4FEAB00005
:10451C000CEB03077D1941EA000701EA0002374062
:10452C001743ED19CDF82CC005EBF4620C9F0E9DD2
:10453C00DDF83CC085EA070B129D8BEA0C0787EA75
:10454C00050B4FEAB1014FEAFB7C0CEB030744EA85
:10455C000105BE19054004EA010706EBF2663D436E
:10456C0075190D9F079ECDF830C0DDF840C086EA66
:10457C00070B8BEA0C064FEAB40486EA0A074FEAEB
:10458C00F77B42EA040C0CEA010602EA04075B44DE
:10459C00181846EA07030E9F089EC01800EBF56C2E
:1045AC007E400B9886EA090343404FEAF3760E9659
:1045BC00DE4BCDF834B0DDF838B04FEAB2020BEB7D
:1045CC00030782EA0400791868400E1807980999C5
:1045DC0006EBFC6741400C9E81EA080171404FEAF2
:1045EC00B5054FEAF170C11885EA020607900C195F
:1045FC0086EA0C00211801EBF764089E0A991198C1
:10460C0071400D9E414071404FEABC0C4FEAF17174
:10461C00C8188CEA050682187E4008919119099EEB
:10462C00069A01EBF460129972404A405E46724061
:10463C004FEAB7074FEAF272D11887EA0C064D1908
:10464C00664009920F99AA190A9D02EBF06669401F
:10465C0081EA0A0207994FEAB4044A404FEAF2751C
:10466C00EA1884EA070102EB0C0B41400A950BEBAC
:10467C00010505EBF661109A069D4FEAB0006A4001
:10468C000B9D6A40089D6A404FEAF2720692D5185B
:10469C0080EA04027240EF19BD180F9FDDF830C09C
:1046AC0005EBF16289EA070B099D8BEA0C0787EA97
:1046BC00050B4FEAB6064FEAFB7B0BEB030786EACA
:1046CC0000054D403C196719109C07EBF2650D9FD6
:1046DC0088EA040C8CEA07040A9F4FEAB10184EAC9
:1046EC00070C4FEAFC7C0CEB030481EA06075740ED
:1046FC002018C419119F04EBF5600E9C87EA090978
:10470C0089EA0407069C4FEAB20287EA04094FEAD9
:10471C00F97909EB030782EA01046C40BE193719D9
:10472C00129CCDF83C90DDF81C9084EA080807EB4D
:10473C00F06688EA090787EA0B044FEAF4784FEA37
:10474C00B50508EB030785EA0204444079180F19F4
:10475C00119907EBF664089F8AEA0101794081EA16
:10476C000C014FEAB0004FEAF177F91880EA05091D
:10477C00CDF840808A1889EA06081197129902EB45
:10478C0008070B9A4FEAB6064A40099986EA0008D0
:10479C004A400F9907EBF4674A404FEAF27202EB7A
:1047AC00030988EA04014D4412926A180C99DDF849
:1047BC00289081EA0A0ADDF8408002EBF7658AEA64
:1047CC00090282EA08014FEAB4044FEAF17A0AEBD3
:1047DC00030284EA060989EA0708101800EB0801AD
:1047EC0001EBF5600B9A0D99DDF8188081EA02094E
:1047FC00119989EA080282EA01094FEAB7074FEAE0
:10480C00F97909EB030887EA040282EA05014644B8
:10481C0076180E9A0C994FEAB5054A4082EA0B0BB2
:10482C00129A06EBF0668BEA02084FEAF87808EB6E
:10483C00030185EA070B8BEA00020C19A11801EBA6
:10484C00F6640D9A07994FEAB000514081EA0C0CBE
:10485C008CEA0A0A4FEAFA7A80EA05020AEB0301AB
:10486C0082EA060BDDF820C00E9ACF1907EB0B017C
:10487C0001EBF4678CEA02010F9A4FEAB60681EA63
:10488C00020B8BEA09094FEAF97986EA000109EB78
:10489C00030C81EA0402DDF824B007996544AD18D5
:1048AC00109A8BEA010C8CEA02014FEAB40481EAFB
:1048BC00080803EBF87B84EA0602DDF828C0DDF873
:1048CC00208082EA07015844119A40188CEA0801AA
:1048DC00514005EBF76581EA0A024FEAB70703EB93
:1048EC00F27187EA040B8BEA050C8E1906EB0C02AD
:1048FC000699099EDDF848B000EBF560714002EBBB
:10490C00F06881EA0B0205994FEAB505CB1882EAEB
:10491C00090603EBF67285EA070C14198CEA0006FB
:10492C00139AA11901EBF863936001E0D6C162CA36
:10493C00049C019908EB0406D660039C029E04EBD0
:10494C00B000AD197F1810615561976117B0BDE8C3
:10495C00F08F00BF0749002301F1883203604360E8
:10496C00054BC260054A8160A3F188310361416146
:10497C008261704701234567FEDCBA98F0E1D2C32F
:10498C002DE9F041151E0446884631DD0368E81810
:10499C00A84203F03F07206002D261684A1C6260A3
:1049AC008FB1C7F14006B5420DDBE01941463246E6
:1049BC001C3003F073FC204604F11C01FEF79EFF33
:1049CC00B044AD1B00272E4608EB05033F2EC6EB6B
:1049DC00030104DD2046FEF791FF403EF4E7002E74
:1049EC0006DDE0191C303246BDE8F04103F056BC40
:1049FC00BDE8F08137B590E80C000D46510F41EA47
:104A0C00C3010446080ED3008DF80000080C02F018
:104A1C003F028DF801008DF80310080A190E8DF86D
:104A2C0002008DF80410180C190A372A94BFC2F131
:104A3C003802C2F178028DF805008DF80610204678
:104A4C001B498DF80730FFF79BFF2046694608226B
:104A5C00FFF796FFE27A2A7063896B70A068010AEF
:104A6C00A970A268EA70E37B2B71E0896871E16838
:104A7C000A0AAA71E368EB71E07C2872618A697298
:104A8C002269130AAB722069E872E17D2973E28A0C
:104A9C006A736369180AA8736169E973E27E2A7400
:104AAC00638B6B74A069010AA974A269EA743EBD98
:104ABC00C88B000870B5B8B00D46064601A8144660
:104ACC00FFF748FF2A4601A83146FFF759FF01A816
:104ADC002146FFF78FFF01A80021DC2203F08CFC9C
:104AEC0038B070BD10B5064C18B9236801221A8273
:104AFC0010BD044B18680168884720680A3010BD47
:104B0C00BC150020B815002010B5064C18B9236848
:104B1C0001221A8210BD044B1868816888472068EE
:104B2C000C3010BDBC150020B815002008B5234A68
:104B3C0018B9136802221A8208BD214B0020126892
:104B4C001880117811F07F0113D1507A00F02002F7
:104B5C00D1B209B102221A7000F04003D8B2184B3E
:104B6C0018B11A7842F001011EE0197821F0010108
:104B7C001AE001291FD002291ED1507900F00F0232
:104B8C004FEA820110F0800F01F1804000F5B8422D
:104B9C00116803D001F03002102A03E001F44050F8
:104BAC00B0F5805F01D101211970064B18680169BD
:104BBC008847034808BD184608BD00BFBC15002037
:104BCC008E150020B8150020F8B5224B1C68238ADE
:104BDC00267AABB9042E13D11F48017801291F493D
:104BEC000AD11F4C226894B21E4AA21852001360BC
:104BFC0030220A80037028E010260E80072624E05D
:104C0C00A58AA169AB428CBF022604269D4228BF0F
:104C1C001D46284688470746002000F045FD2A46D9
:104C2C000146384600F052FC2946002000F058FDA1
:104C3C00208A638A421BED1808480B4B22823021D4
:104C4C004FF44052018065821A80024B186806723C
:104C5C00F8BD00BFBC150020DC090020C4150020E5
:104C6C00505C004002300020C215002010B50A4BE9
:104C7C000A4918684B78C27893420AD3817841B9B3
:104C8C00848834B982720648026853689847204673
:104C9C0010BD022010BD00BFBC1500206801002013
:104CAC00B815002038B50E4A0E4C1068236882697E
:104CBC00D9785879904721688B7A7BB170B908798B
:104CCC0060B98D7855B9084A1168CB689847206847
:104CDC004279C178C2720173284638BD022038BDB2
:104CEC0094150020BC150020B815002010B5324BCF
:104CFC001B68187810F07F0004D15A7A22F020013A
:104D0C00597210BD022855D15A88002A53D11979ED
:104D1C00002950D15A7922F080004FEA800404F126
:104D2C00804101F5B8442168244C12F0800F24789E
:104D3C0014BF01F0300101F44051A0423AD20029D5
:104D4C0038D09B7A002B35D0840002F0800204F11D
:104D5C008043D1B203F5B844226861B102F030024D
:104D6C00102A21D1C4B2204600F06BFC2046302121
:104D7C0000F0EAFB18E002F44051B1F5805F13D16A
:104D8C0028B90F4B93F82C1000F0B8FC01E000F0A0
:104D9C0046FC20684BF68F72024082F4405141F47D
:104DAC00004343F08000206006490B685869804737
:104DBC00002010BD022010BDBC1500206801002091
:104DCC0014010020B815002010B51F4B19684A7942
:104DDC0022F080034FEA830000F1804404F5B840D0
:104DEC001A4C0068247812F0800F14BF00F03000C9
:104DFC0000F44050A34224D24C8814BB08B3897AE7
:104E0C00F9B19B0003F1804102F0800201F5B84337
:104E1C00D0B2196828B148F6BF720A4082F010006F
:104E2C0004E04BF68F720A4082F4805040F400414B
:104E3C0041F080001860064B1A6891698847002081
:104E4C0010BD022010BD00BFBC1500206801002061
:104E5C00B815002008B5064B1868064B427A42F08C
:104E6C00200141721868C2699047002008BD00BF3C
:104E7C00BC150020B8150020054B1A68538A18B9C8
:104E8C008988CB1A138270470868C018704700BF16
:104E9C00BC15002008B50B4B002093F82C1000F02B
:104EAC002DFC09480168087A082806D1074B4FF4F5
:104EBC0080521A80064A10211180B0F10903584221
:104ECC00584108BD14010020BC150020C21500205B
:104EDC00C415002070B52E4B1C68207A02284FD0C8
:104EEC0004284DD0032801D0052843D1A169208A7C
:104EFC00A9B1A0B1A58A854228BF05462846884796
:104F0C00228A0646608A531B29186182238200205C
:104F1C0000F0D8FB2A460146304600F0EEFA228A11
:104F2C0052B11C4B4FF4405018800020014600F049
:104F3C00D7FB194A30211180208AA38A1449834255
:104F4C0002D80B68032202E018B10B6805221A7212
:104F5C000CE00A680623114913720A68104993B2CF
:104F6C005A1853000C491860302008800848016812
:104F7C000B7A06E0072803D10A490A68D3689847D8
:104F8C000823034A10680372BDE87040FFF782BF24
:104F9C00BC150020C2150020C4150020505C004038
:104FAC000230002094150020944B73B51A68944974
:104FBC0090B24418934E65002A6835682B7A092BF9
:104FCC0015D090B2410001F1804404F5C044227820
:104FDC002A7063786B70A08800F0BEFB6880208913
:104FEC00356800F0B9FBA880A0893168C880854D70
:104FFC0001242B68DA881C725C78002A64D118783A
:10500C0010F07F0238D1092C02D1FFF72FFE45E0BA
:10501C00052C0FD193F90320002A01DA08214FE067
:10502C0099780029FAD198880028F7D19B7A002B1F
:10503C0038D0F3E7032C10D1D878012807D0724A66
:10504C00204611684B699847032829D137E09B8883
:10505C00002BF4D1FFF7FEFE20E0012CEFD1D97824
:10506C000129ECD198880028E9D15B7A03F0200261
:10507C00D1B20029E3D00AE0012A04D10B2CDED1F5
:10508C00FFF710FE0AE0022AD9D1012C02D1FFF75A
:10509C002DFE03E0032CD2D1FFF796FE10B1CEE724
:1050AC000028BBD15548594B026891B2C818584BCF
:1050BC004100002230200A601880062100E00921FE
:1050CC00504A10680172D3E0062C13D11C7861068B
:1050DC007AD19A784C4B012A02D11C68E36969E0B9
:1050EC00022A02D11868036A64E0032A6CD1196899
:1050FC004B6A5FE0002C3ED15988002964D1586876
:10510C0020F47F42B2F5003F5ED11C7814F07F0092
:10511C0004D19888002800F0AE8055E001280CD10D
:10512C00394A58791468A269904700284CD12B68E9
:10513C00997A002940F09F8046E0022844D15B799F
:10514C0003F00F014FEA810202F1804404F5B840EC
:10515C00304C0268207813F0800F14BF02F030023C
:10516C0002F4405281422FD213F0700F2CD1002A3E
:10517C0040F0818028E0082C03D119784A067CD0B5
:10518C0022E00A2C20D1187800F07F0101291BD1D4
:10519C009C7ACCB15988B9B95A6822F47F40B0F5E1
:1051AC00803F11D1184C587922689469A047002887
:1051BC0065D009E043B113480024016820464C82B5
:1051CC008B61984720460AE00F4A0E4C1168236801
:1051DC000A6958789047032801D1236806E0094BE7
:1051EC004FF6FF711B681A8A8A4201D1092103E02C
:1051FC00022800D082B90821197239E0505C0040B5
:10520C0004300020BC150020941500200230002032
:10521C00C41500206801002093F90000002821DA51
:10522C00D98801910198824202D9019A1A8211E01F
:10523C008A420FD21349086890F82C108A4201D286
:10524C00002105E092FBF1F001FB102212B90121C3
:10525C000D4801700B49086890F82C209A82FFF7D2
:10526C00B3FC05E003221A72084B4FF4405119802D
:10527C00FFF710FE7CBD064B9DE7064B9BE7064BEC
:10528C0099E700BF94150020DC090020C21500200E
:10529C00394B0008F14A0008154B000870B50D4B4E
:1052AC001C780023A34210D203F1805202F5B855AA
:1052BC00A90043F400420E6842F0800540F60F72DC
:1052CC0032402A430A600133ECE7034940F0800086
:1052DC00086070BD680100204C5C004010B514499A
:1052EC000B680C461A7A022A01D0042A04D1FFF763
:1052FC006BFC2168087A13E0062A10D1587805282F
:10530C0009D11978480606D1D878FFF7C7FF094BA1
:10531C001A68106A804708490B689A6890470820F9
:10532C00034B1A681072BDE81040FFF7B3BD00BF05
:10533C00BC150020B8150020941500207047000003
:10534C0037B50023ADF806305848594B026891B276
:10535C001204198040F1A8801888564900F00F02F9
:10536C000A70002A6ED1544C2568AAB2534D2A807B
:10537C002988534A01F03000108029884BF6BF72FF
:10538C0001F44050288021680A4082F4005080F0DB
:10539C00200141F4004242F0800020601B8803F0A1
:1053AC0010018AB23AB9226848F60F70104020609A
:1053BC00FFF794FF1DE0206883B2ADF80630BDF80E
:1053CC00061001F4006290B238B1216840F68F7378
:1053DC000B402360FFF7E8FD0BE0BDF8063019B277
:1053EC000029B1DA226840F68F7010402060FFF778
:1053FC0071FD21682A884BF6BF7302F480500B4074
:10540C0081B209B183F480532C4A108800F4005106
:10541C008AB20AB183F400532948018801F01002C2
:10542C0091B209B183F01003008800F0200291B210
:10543C0009B183F0200343F400401F4A40F080017F
:10544C00116031E0930003F1804000F5B843196816
:10545C0088B2ADF80600BDF8061008B2002809DACB
:10546C00186840F68F7101401960164B013A53F8D9
:10547C0022008047BDF8061001F0800293B2002B89
:10548C003FF462AF0B480278910001F1804303F5C1
:10549C00B841086848F60F7303400B600A49013A9B
:1054AC0051F8220080474FE73EBD00BF445C0040EE
:1054BC008C15002098150020005C0040C2150020BF
:1054CC00C4150020A4000020C000002030B501F15C
:1054DC00005101F5405301325900521000230230A3
:1054EC00934209D010F8015C10F8024C44EA0524F0
:1054FC0021F823400133F2E730BD01F1005110B522
:10550C00013201F54054521064000023934205D03F
:10551C0054F8231020F813100133F7E710BD0000E6
:10552C004FF6F873014A034013607047505C00401B
:10553C00800000F1804202F5B842106848F68F13E3
:10554C000340194311607047800000F1804202F55E
:10555C00B842106848F6BF73034001F0100080B2E7
:10556C0008B99BB201E083F0100301F0200188B26E
:10557C0008B183F0200343F4004141F08000106037
:10558C007047800000F1804202F5B84210684BF67B
:10559C008F73034001F4805080B208B99BB201E0D4
:1055AC0083F4805301F4005188B208B183F40053A2
:1055BC0043F4004141F0800010607047800000F11E
:1055CC00804202F5B840016848F6BF730B4083F087
:1055DC00300242F4004141F08003036070478000C8
:1055EC0000F1804202F5B84001684BF68F730B4016
:1055FC0083F4405242F4004141F080030360704751
:10560C00800000F1804202F5B840016840F60F635B
:10561C000B4043F4004242F080010160704780006F
:10562C0000F1804303F5B8400268510408D50168C5
:10563C0040F60F730B4043F4404242F0800101608E
:10564C007047800000F1804303F5B8431A68500698
:10565C0008D5196840F60F70084040F4004242F03B
:10566C00C001196070470000064B49081A6893B2D4
:10567C0003EBC00000F1005202F5405358004A0001
:10568C0002607047505C0040054B49081A6893B2A1
:10569C00044A03EBC000831858004A0002607047AC
:1056AC00505C004004300020054B19688AB202EBB4
:1056BC00C00000F1005303F540514A0010887047B8
:1056CC00505C0040044B1968044B8AB202EBC000DA
:1056DC00C1184A0010887047505C0040043000200C
:1056EC00044B1A6893B2044A03EBC00083185800A9
:1056FC0001607047505C0040023000200C4B1A686F
:10570C0093B20C4A03EBC00083185A003E2908D907
:10571C004B09C90601D1581E83B2990241F40041CC
:10572C0004E04B08C80748BF013399021160704769
:10573C00505C004006300020054B1968054B8AB2BE
:10574C0002EBC000C1184A0010688305980D704721
:10575C00505C004006300020C3B2000A40EA03202F
:10576C0070470000044B00201860044A044B4FF4AF
:10577C000641118019607047445C0040C015002040
:10578C00405C004040F0BF60024B40F40031D960F7
:10579C00704700BF00ED00E0C37810B503B3164CA2
:1057AC00E168CB43C3F302244178C4F1040201FA4B
:1057BC0002F10F2222FA04F28478037822400A4381
:1057CC00110103F16043CAB203F5614181F8002372
:1057DC000078012200F01F03410902FA03F007E0F0
:1057EC000078012200F01F03410902FA03F0203176
:1057FC00024B43F8210010BD00ED00E000E100E099
:10580C00054A82B0002301930192019BC0180190BC
:10581C00019A116002B07047006C0040064982B0DA
:10582C00002301930191019A80180190019B198822
:10583C0088B202B0704700BF006C004002684FF69F
:10584C00FE73134003602D4B0021984201604160B0
:10585C008160C16022D02A49884229D0294B9842C4
:10586C0030D02949884237D0284B98423ED0284B1B
:10587C00984206D153F8681C41F4700043F8680C48
:10588C0070472449884206D151F87C0C40F0706274
:10589C0041F87C2C7047204B984206D153F8042CCD
:1058AC0042F00F0143F8041C70471C49884206D192
:1058BC0051F8183C43F0F00041F8180C7047184BA5
:1058CC00984206D153F82C2C42F4706143F82C1CEE
:1058DC0070471449884206D151F8403C43F470405B
:1058EC0041F8400C7047104B984205D153F8542C9A
:1058FC0042F4702143F8541C704700BF080002406A
:10590C001C0002403000024044000240580002409B
:10591C006C00024080000240080402401C0402405B
:10592C0030040240440402405804024070B506683A
:10593C008C680D6A26F4FF4222F070060A6945EA6B
:10594C0004034C6913438A692343CC6913431C43F6
:10595C004B6A44EA03028B6A1A4332430260CB68F7
:10596C000A68496843608260C16070BD19B1016802
:10597C0041F0010303E002684FF6FE73134003602D
:10598C00704703680AB1194301E023EA0101016081
:10599C007047406880B27047C3004CBF034B044B48
:1059AC00196801420CBF002001207047000402401E
:1059BC0000000240C2004CBF014B024B58607047C4
:1059CC000004024000000240837910B5002B29D05E
:1059DC001A4B01681C68CA4314401C605C68224066
:1059EC005A60027902F1804404F582321468214332
:1059FC00116002689C68D1430C409C60DC68407963
:105A0C0021401028D96006D1986810439860D96855
:105A1C000A43DA6010BD00F1804303F58233196844
:105A2C000A4308E00179006801F1804202F58233F3
:105A3C001A6822EA00021A6010BD00BF000401407F
:105A4C00014B5861704700BF00040140064B1A68B7
:105A5C00596910EA010304D010420CBF0020012048
:105A6C0070471846704700BF00040140014B586155
:105A7C00704700BF00040140CB78F0B5DA0648BF90
:105A8C008A78098803F00F0548BF154311F0FF0F02
:105A9C001ED004680022012707FA02F707EA010664
:105AAC00BE4211D197004FF00F0C0CFA07FC05FA0F
:105ABC0007F724EA0C04282B44EA070401D14661B9
:105ACC0002E0482B08BF06610132082AE3D10460CA
