:020000040800F2
:10500000005000200D510008A9530008AB530008C0
:10501000AD530008AF530008B15300080000000072
:105020000000000000000000000000005D5A0008C1
:10503000B353000800000000DD5A0008195B0008A7
:10504000595100085951000859510008B55300083A
:1050500059510008595100081154000831540008F2
:1050600051540008A5540008C554000859510008BF
:10507000595100085951000859510008AF5500080E
:105080005951000859510008595100085951000858
:10509000B35500085951000859510008E55400085B
:1050A000595100085951000859510008AD550008E0
:1050B0005951000859510008595100085951000828
:1050C0005951000859510008595100085951000818
:1050D0005951000859510008595100085951000808
:1050E00035550008D1530008595100080000000050
:1050F00000000000000000000000000000000000B0
:0C51000000000000000000005FF808F153
:10510C00002100F004B80C4B5B58435004310B48A1
:10511C000B4B42189A42FFF4F6AF0A4A00F003B860
:10512C00002342F8043B084B9A42FFF4F9AF03F01A
:10513C0067FA00F053F87047308E0008000000202A
:10514C00500100205001002074290020FFF7FEBF01
:10515C0010B50131002393420ED0040F092C01D855
:10516C00303400E0373401F8014C013300240001E5
:10517C0001F8024BDBB2EEE710BD08B54FF47F002F
:10518C0003F096F8E720BDE8084003F0DBB8000018
:10519C0007B56423019301F0C5F800906846C82157
:1051AC0001F0E6F90348002201A91346006800F05B
:1051BC0037FEF3E75001002007B5074B01A918682B
:1051CC004FF0FF32002300F0EDFE01986428F4D17B
:1051DC00E72003F0DDF8F0E7500100207FB54FF039
:1051EC0000604FF4A041012402F05CFB2B4B2C48D7
:1051FC0021461C7002F00CFC21464FF0C05002F00E
:10520C0083FC204602F050FC02F0E0FF21462046D1
:10521C0002F06EFC02F0DEFF002003F06FF8204677
:10522C0003F06CF8022003F069F8032003F066F831
:10523C004FF47F0003F03CF8E72003F083F80020E4
:10524C00214603F0FDF820460421002200F0CAFD9F
:10525C00144E306008B3002502238DE82800124953
:10526C0046222B4602950395104800F069FF104921
:10527C0046222B468DE83000029503950D4800F030
:10528C005FFF0D4841F2883100902A460B482B46AF
:10529C0001F068FB706001F00FF8FEE74A20002077
:1052AC000004300050010020148E0008C551000885
:1052BC00178E00089D510008875100081A8E0008AF
:1052CC00FEE7FEE707B500F0A3FB0190019B0EBDC6
:1052DC0070B5234A92F85831012B3FD0D2F85C01BB
:1052EC00B0F5807F02D10021C2F85C11D2F85C319C
:1052FC00526D1B48934203D1002180F8581170BDA8
:10530C008CBFC3F58072C3EB0202154CC0F8602150
:10531C00D4F8605199B2402D07D94033403DC4F8C0
:10532C005C31C4F86051402606E0E8180023AEB2A8
:10533C00C4F85C01C4F860310A4A01255018C02138
:10534C00324684F8585102F013F92846314602F0DF
:10535C0019FA2846BDE8704002F082B970BD00BF52
:10536C0050010020A8010020094B10B593E814004F
:10537C000833186810180AD008220649FFF7E8FE0F
:10538C00054920460422BDE81040FFF7E1BE10BDE0
:10539C00E8F7FF1F02000020120000207047FEE714
:1053AC00FEE7FEE7FEE7704708B5012002F0C2FBFE
:1053BC0030B1012002F0D0FBBDE8084002F0B0BBD8
:1053CC0008BD000008B5022002F0B4FBB0B10C4BD4
:1053DC0000224FF400301A7002F0C0FA012002F0E3
:1053EC0069FB10B1012002F06FFB02F099FB022067
:1053FC0002F0B2FBBDE8084002F092BB08BD00BF52
:10540C00DD02002008B5012002F098FA38B1012025
:10541C0002F0A4FA024B13B10020AFF3008008BDD8
:10542C000000000008B5022002F088FA38B1022012
:10543C0002F094FA024B13B10120AFF3008008BDC7
:10544C00000000007FB5042002F078FAF0B10025CE
:10545C0004AC4FF6FF7044F8045D02F029FFE7201E
:10546C0002F070FF0A4B1E6800F068FF29460246E6
:10547C0023460095304601F093FA042002F06EFAB0
:10548C00039818B103494FF080520A607FBD00BFEA
:10549C005401002004ED00E008B5082002F04EFA9B
:1054AC0038B1082002F05AFA024B13B10320AFF3C3
:1054BC00008008BD0000000008B5102002F03EFA84
:1054CC0038B1102002F04AFA024B13B10420AFF3AA
:1054DC00008008BD0000000008B5202002F02EFA64
:1054EC0038B1202002F03AFA0E4B13B10520AFF37D
:1054FC000080402002F022FA38B1402002F02EFA4F
:10550C00084810B10620AFF30080802002F016FA94
:10551C0038B1802002F022FA024911B10720AFF312
:10552C00008008BD0000000008B54FF4005002F0E8
:10553C0005FA40B14FF4005002F010FA174B13B1BA
:10554C000D20AFF300804FF4804002F0F7F940B12A
:10555C004FF4804002F002FA104810B10E20AFF365
:10556C0000804FF4004002F0E9F940B14FF40040E4
:10557C0002F0F4F9094911B10F20AFF300804FF498
:10558C00006002F0DBF938B14FF4006002F0E6F98C
:10559C00BDE8084002F0E6BD08BD00BF00000000F9
:1055AC00704702F06DBD00F063B8000038B51449C7
:1055BC000B78012B23D1134A13680BB90B7038BD30
:1055CC00114C402B206881B205D94030403B206003
:1055DC001360402504E09DB2C318002023601060C6
:1055EC000A4A5018C0212A4601F0C2FF0120294660
:1055FC0002F0C8F80120BDE8384002F031B838BDDF
:10560C00A8020020B0020020AC020020A80100205B
:10561C00094908B50020094B0122088003201A70A3
:10562C0002F0DCF8064B0246188006484FF48871ED
:10563C00BDE8084001F0B3BF600100205C01002010
:10564C005E01002062010020074B1868052809D173
:10565C00064B1A68511C052A196003D100201860EA
:10566C00FFF736BE704700BF60200020E00200202C
:10567C003A4A38B511683A4B88B23A4D18801C88B2
:10568C002988214001F4007084B244B14FF6FF55D3
:10569C0015609A78511CC8B29870FFF7D5FF304C42
:1056AC00304B25881A882A4002F4004188B22546DE
:1056BC001C4608B101F096FE2A882388134003F497
:1056CC00806188B230B1254B27494FF6FF321A6002
:1056DC0048688047224A234B11881B88194001F4E3
:1056EC00005081B219B11D494DF6FF700860128847
:1056FC00134003F4805398B230B1184A4EF6FF7140
:10570C001160002003F032F8154B164918880A88EE
:10571C00024002F4006398B260B114490A7812B1E5
:10572C0003F004F802E0022003F020F80B4B4FF2D8
:10573C00FF7018600A490B480A880388134003F469
:10574C0080718AB242B1054B4FF6FF60186007209A
:10575C00BDE8384003F00AB838BD00BF445C0040D7
:10576C00E4020020982000208C0000204C01002036
:10577C00034B987A10B1034905220A60704700BFA9
:10578C007420002060200020014B04221A60704716
:10579C0060200020034B1A78202A01D100201870B9
:1057AC00704700BFE802002070470000212810B5A8
:1057BC0008D111480368197801F07F02212A11D011
:1057CC00022010BD2028FBD10B4B19680A780B491D
:1057DC0002F07F030A4A212B0CBF0B4600231070EA
:1057EC000BB9EDE7074B044C20680024836144821D
:1057FC0020469847204610BD942000206158000890
:10580C00E802002049580008074B19680A7802F092
:10581C007F03212B05D1022801D1002070472228BB
:10582C00FBD00220704700BF9420002009B1022059
:10583C0070470128FBD808467047000020B9034B7D
:10584C00082219680A82704701487047942000208A
:10585C005400002020B9034B082219680A827047B3
:10586C00014870479420002054000020054B196813
:10587C00CA78042A04D8044B03EBC20101F04EBBD6
:10588C0000207047942000205C000020014901F0AA
:10589C0045BB00BF7C000020014901F03FBB00BFAD
:1058AC0084000020334A344BD179186810B5002499
:1058BC0041728472C472204601F084FE20464FF47B
:1058CC00007101F087FE1021204601F08FFE40216F
:1058DC00204601F02BFF8021204601F017FF2046C7
:1058EC0001F0E0FE254B204693F8641001F058FFC0
:1058FC00204601F0C6FE0120214601F06BFE01207E
:10590C00C02101F003FF0120202101F06FFE0120D6
:10591C00214601F088FE02204FF4C06101F05AFECE
:10592C0002204FF4807101F0F1FE0220214601F0BB
:10593C007AFE0220202101F059FE0320214601F0BD
:10594C0049FE03204FF4887101F0F0FE0320402142
:10595C0001F026FF03204FF4405101F064FE0320B8
:10596C00214601F043FE204601F0EAFC044A0120E6
:10597C00106010BD448D00089420002054000020BD
:10598C006020002010B5FFF7EFFC054B00241868D1
:10599C00847202F0B3FE01F037FF02490C6010BDB7
:1059AC00942000206020002038B5430705461CBF1A
:1059BC0020F00705083500F0ABFC104B1A6822B933
:1059CC0003F10C0020F0070119600D4A41F6F73481
:1059DC00D2F80C3BED18A54207D89D4205D90748D3
:1059EC00C2F80C5B0168CC1800E0002400F02EFD1E
:1059FC000CB9FFF765FC204638BD00BFEC02002057
:105A0C00E413002008B510B100F03EF8FEE708BD25
:105A1C00034BD3F80C0BC0F5DF501830704700BFA8
:105A2C00E413002003480068006880F3088862B61D
:105A3C0000DF00BF08ED00E04FF0807300E90A00C2
:105A4C00002340F80C3C40F8202C403870470000F4
:105A5C00064B19680868B0E8F00F80F309884FF01E
:105A6C00000080F311884EF00D0E7047FC1E0020D4
:105A7C00044B4FF080521A60BFF34F8FBFF36F8F00
:105A8C00704700BF04ED00E0EFF311804FF05001C0
:105A9C0081F311887047002008B5FFF7F5FF044B20
:105AAC001A68501C1860BFF34F8FBFF36F8F08BD7F
:105ABC00E400002080F3118870470000034B186845
:105ACC000138186008B9FFF7F5BF7047E4000020F3
:105ADC00EFF309800C4B1A6820E9F00F10602DE9E8
:105AEC0008404FF0500080F3118800F075FD4FF026
:105AFC00000080F31188BDE8084019680868B0E818
:105B0C00F00F80F309887047FC1E002008B5FFF7E2
:105B1C00BBFF00F021FC18B1044B4FF080521A600F
:105B2C000020BDE80840FFF7C5BF00BF04ED00E052
:105B3C00034B044A07201A6043F8040C704700BF5B
:105B4C0014E000E03F19010013B51D4BFF201A783B
:105B5C000192187019781B4A8DF803109DF80340B8
:105B6C0004F050031370072353609DF80300591E73
:105B7C00020607D59DF803400B466200D0B28DF8A3
:105B8C000300F2E701981C0204F4E0630D4A0C4C8C
:105B9C00C1B253602170D4F8203943F47002C4F8B8
:105BAC002029D4F8200940F07041C4F82019FFF7DF
:105BBC00BFFF054B00241C60FFF734FF20461CBDC3
:105BCC0000E400E0F41E0020E400002008B5EFF330
:105BDC0005830F2B08D90A4A0A49985C0B78834233
:105BEC0002D9FFF751FFFEE7074A064B10685A68C7
:105BFC0000F4E061914202D9FFF746FFFEE708BDD1
:105C0C00F0E300E0F41E00200CED00E000F10803CE
:105C1C004FF0FF32002143608260C360036101607A
:105C2C007047002303617047436808619A684B60B2
:105C3C008A609A689960516001684B1C03607047D8
:105C4C000A6830B5531C01D1036907E000F1080361
:105C5C005C682568954201D82346F9E75A680861C3
:105C6C004A60916059608B6001684B1C036030BDC9
:105C7C00436882689A6082685360036959688142FC
:105C8C0008BF5A600022026118680138186070471A
:105C9C0010B50446FFF700FFA36C002B0CDD606A07
:105CAC0050B104F1240000F01FFD08B100F088FD94
:105CBC00A36C581EA064EFE74FF0FF31A164FFF70F
:105CCC00FDFEFFF7E9FE626C002A0CDD236953B17F
:105CDC0004F1100000F008FD08B100F071FD616CDA
:105CEC004A1E6264EFE74FF0FF306064BDE810407D
:105CFC00FFF7E4BE70B5046803466CB1C568026C6E
:105D0C004668AD18B542C56028BFC4600846D9685E
:105D1C00BDE8704002F09EBE70BD38B51546026CF1
:105D2C00044632B905683DBB406800F09BFD6560D8
:105D3C0022E065B9806802F08DFEA068236C626871
:105D4C00C1189142A16017D32068A06014E0C0680C
:105D5C0002F080FE236CE2685842216813188B42D3
:105D6C00E36002D262681018E060022D04D1A36BCC
:105D7C0013B1A16B4A1EA263A36B591CA16338BD5E
:105D8C0038B50D46044610B9FFF77EFEFEE7FFF767
:105D9C0083FE2368226CE06BA36000FB02310138A8
:105DAC0002FB003361604FF0FF320021A163E3601E
:105DBC006264A26455B9216981B104F1100000F04C
:105DCC0093FC01280AD1FFF753FE07E004F1100001
:105DDC00FFF71CFF04F12400FFF718FFFFF76EFE1E
:105DEC00012038BD70B50E46054670B14C20FFF74A
:105DFC00DBFD044648B105FB06F00130FFF7D4FD8E
:105E0C00206028B92046FFF7FDFDFFF73DFEFEE7B9
:105E1C00E563266420460121FFF7B2FF204670BDE2
:105E2C002DE9FF410F4601921D46044610B9FFF7BC
:105E3C002BFEFEE721B9036C13B1FFF725FEFEE73D
:105E4C00022D02D1E06B012864D10026FFF724FE5D
:105E5C00A26BE16B8A4201D3022D12D12046394646
:105E6C002A46FFF75AFF636A3BB104F1240000F0A5
:105E7C003BFC012801D1FFF7FBFDFFF71FFE0120C2
:105E8C004BE0DDF80480B8F1000F02D1FFF716FEED
:105E9C003EE016B902A800F059FCFFF70FFE00F027
:105EAC0037FAFFF7F9FD636C013301D10020606410
:105EBC00A26C531C01D10021A164FFF7FFFD02A8C5
:105ECC0001A900F051FCF0B9FFF7E6FDD4F83880D9
:105EDC00E66BFFF7F3FDB0450FD104F1100001990B
:105EEC0000F0C8FB2046FFF7D3FE00F0AFFA08B174
:105EFC000126ABE7FFF7BCFDFAE72046FFF7C8FE2B
:105F0C0000F0A4FAF4E72046FFF7C2FE00F09EFA78
:105F1C00002002E0FFF7B8FDFEE704B0BDE8F08119
:105F2C002DE9F0410F4616461D46044610B9FFF701
:105F3C00ABFDFEE721B9036C13B1FFF7A5FDFEE73E
:105F4C00022D05D1E06B012802D0FFF79DFDFEE785
:105F5C00FFF73CFEFFF798FDA26BE16B80468A428F
:105F6C0001D3022D17D1204639462A46FFF7D5FE1C
:105F7C00A36C01330AD1616A59B104F1240000F019
:105F8C00B3FB30B12EB10124346005E0A06C421C8F
:105F9C00A264012400E000244046FFF78BFD20465C
:105FAC00BDE8F0812DE9FF410D460192984604466B
:105FBC0010B9FFF769FDFEE721B9036C002B7ED108
:105FCC000E463AE0002638E016B902A800F0BEFBF7
:105FDC00FFF774FD00F09CF9FFF75EFD616C4B1C44
:105FEC0001D100226264A36C013301D10020A064B2
:105FFC00FFF764FD02A801A900F0B6FB002857D1F9
:10600C00FFF74AFDA66BFFF759FD002E4AD1216818
:10601C0031B9FFF741FD606800F0EEFBFFF74EFD74
:10602C0004F12400019900F025FB2046FFF730FE17
:10603C0000F00CFA002832D00126FFF72DFDA06BE2
:10604C0038B320462946E668FFF754FEB8F1000F36
:10605C0012D1A36B2168581EA06311B900F0B8FBD4
:10606C00606022698AB104F1100000F03DFB012848
:10607C000BD1FFF7FDFC08E0626AE6602AB104F17F
:10608C00240000F031FB0028F3D1FFF717FD0120AD
:10609C0018E0019F002F97D1FFF710FD0DE0FFF7DF
:1060AC00E7FCC9E72046FFF7F3FD00F0CFF9C3E7A3
:1060BC002046FFF7EDFD00F0C9F9002002E0FFF7E4
:1060CC00E3FCFEE704B0BDE8F08138B504460D46AC
:1060DC00FFF7E2FC636C013301D100206064A16C1A
:1060EC004B1C01D10022A264FFF7E8FCA36B23B97F
:1060FC0004F12400294600F0DFFA2046BDE83840C0
:10610C00FFF7C6BD0C4B10B51A68044650605868B2
:10611C00844206D2986819680431BDE81040FFF734
:10612C008FBDD86819680431FFF78AFD034B1A68D4
:10613C00944238BF1C6010BDFC1E0020E8000020FB
:10614C002DE9F84F0A9E884693469A460B9F0C9D64
:10615C00814610B9FFF798FCFEE7042E02D9FFF731
:10616C0093FCFEE74420FFF71FFC0446002800F0D8
:10617C009D8025B94FEA8B00FFF716FC0546256379
:10618C001DB92046FFF73EFC90E028464FEA8B02F3
:10619C00A52102F00DFD236B0BF1FF3B03EB8B00F4
:1061AC0020F0070B002518F80520611981F8342020
:1061BC0018F9053013B101350A2DF4D1002004F182
:1061CC00040884F83D00E66240462664FFF729FD8A
:1061DC0004F11800FFF725FDC6F10502A261246148
:1061EC006462584649465246FFF726FC206007B1C8
:1061FC003C60FFF751FC2F490F697B1C0B610F684A
:10620C0047BB0C60096901292CD12A4D142005F1DA
:10621C00140300FB07300137FFF7F8FC052FF4D10E
:10622C0005F17809484605F18C07FFF7EFFC384675
:10623C00FFF7ECFC05F1A000FFF7E8FC05F1B4005A
:10624C00FFF7E4FC05F1C800FFF7E0FCC5F80C9083
:10625C00AF6007E0D1F8DC5025B90868C26AB242D9
:10626C0098BF0C60134DD5F8E020511CE26AD5F8AC
:10627C00E440C5F8E010A2420E4C88BFC5F8E420FB
:10628C0004F114031420414600FB0230FFF7CCFC50
:10629C00FFF714FCD5F8DC1029B12268D36AB3429D
:1062AC0001D2FFF7E5FB0120BDE8F88F4FF0FF307E
:1062BC00BDE8F88FFC1E002030B5002485B04622C6
:1062CC0000940194029403940E480F492346FFF75F
:1062DC0037FF012805460FD100F024FB01280546A5
:1062EC000AD1FFF7D1FB094BC3F8DC505C6005B059
:1062FC00BDE83040FFF728BC15B9FFF7C5FBFEE73A
:10630C0005B030BD1D650008238E0008FC1E002062
:10631C00034BD3F8EC20501CC3F8EC00704700BFC3
:10632C00FC1E002010B5FFF7B7FB034B5C68FFF7B2
:10633C00C5FB204610BD00BFFC1E002010B5FFF7AA
:10634C0045FCFFF7A1FB034B5C68FFF7B3FB204652
:10635C0010BD00BFFC1E0020394B2DE9F041D3F8D5
:10636C00EC20002A42D15D686E1C5E605E68D6B976
:10637C00DA68106810B1FFF787FBFEE7DD689968F3
:10638C00D9609D60D3F8F020501CC3F8F000DD6894
:10639C002C4A296811B94FF0FF3103E0DB68D8684B
:1063AC00C56869681160274A002513689E4210D39E
:1063BC002348C1680A6822B9224A4FF0FF301060A6
:1063CC0007E0C468E368DC686068864216D21D4941
:1063DC0008601B4B14221968C86A02FB0033596908
:1063EC00012994BF28460120BDE8F081D3F8F400C0
:1063FC00411CC3F8F4100020BDE8F08104F104083E
:10640C004046FFF735FCA76A1FB104F11800FFF7EF
:10641C002FFC0B4FE16AD7F8E4200B48914288BF60
:10642C00C7F8E410142303FB01004146FFF7FCFB03
:10643C003968E26ACB6A9A4228BF0125B8E700BFE7
:10644C00FC1E0020E8000020101F0020F8B52F4D86
:10645C00D5F8EC3013B9FFF717FBFEE7FFF71CFB81
:10646C00D5F8EC00411EC5F8EC10D5F8EC400CB199
:10647C00002447E02A69002AFAD0244DD5F8A03030
:10648C000BB3D5F8AC60F668371D06F11800FFF7B2
:10649C00EFFB3846FFF7ECFBF36AD5F8E4209342A8
:1064AC0088BFC5F8E430194D142005F1140100FB28
:1064BC0003103946FFF7B8FB2B68F26ADD6AAA4273
:1064CC0028BF0124D9E7D5F8F40070B10F4DD5F8E9
:1064DC00F41051B1FFF740FF002818BF0124D5F884
:1064EC00F400411EC5F8F410F0E7012C074C03D062
:1064FC00D4F8F820012ABBD10023C4F8F830FFF7F8
:10650C00B7FA0124FFF7DAFA2046F8BDFC1E00208A
:10651C0038B5164CD4F8E83003B3FFF7F9FED4F8CD
:10652C00B450FFF793FF002DF3D0FFF7B5FAD4F872
:10653C00C010CD68281DFFF79BFB2269531E2361F9
:10654C00D4F8E800411EC4F8E810FFF7B7FA286B3E
:10655C00FFF758FA2846FFF755FADAE76069012881
:10656C0001D9FFF785FAFEF7ADFED2E7FC1E00203D
:10657C0038B50C46054610B9FFF786FAFEE711B997
:10658C00FFF782FAFEE7FFF7C3FE12492A684B6851
:10659C001419934202D2944207D201E0944206D3DA
:1065AC009C4294BF0023012302E0002300E001235E
:1065BC002C6033B108680430FFF75AFB2046FFF714
:1065CC00A1FDFFF743FF18B9BDE83840FFF750BAFB
:1065DC0038BD00BFFC1E002038B5244BD3F8EC208E
:1065EC001C461AB10120C3F8F80038BD18681968A8
:1065FC0005680B6B9D4204D8206821683431FEF786
:10660C0060FE22681A49106B1422184D02F0C6F96C
:10661C0050B1286829683431FEF753FE04E0D0F8F5
:10662C00E4305A1EC0F8E42010481422D0F8E410CC
:10663C0002FB0103596931B9D0F8E4100029EED1FD
:10664C00FFF722FAFEE7D0F8E410801802FB0103F2
:10665C005A6803F1080150688842586004BF4068CA
:10666C0058605B680148DA68026038BDFC1E002087
:10667C00998D000838B50D4610B9FFF705FAFEE7FD
:10668C000C4C21681831FFF7DBFA20680430FFF757
:10669C00EFFA691C07D1204650F8C82B111DBDE834
:1066AC003840FFF7C1BA61686818BDE83840FFF799
:1066BC0029BD00BFFC1E002038B50D4610B9FFF7F0
:1066CC00E3F9FEE7074C21681831FFF7ADFA2068B3
:1066DC000430FFF7CDFA61686818BDE83840FFF761
:1066EC0011BD00BFFC1E0020C36870B5DC6814B976
:1066FC00FFF7CAF9FEE704F11806124D3046FFF712
:10670C00B7FAD5F8EC0078B9261D3046FFF7B0FA89
:10671C00E16AD5F8E4200C48914288BFC5F8E41032
:10672C00142303FB010001E005F1A0003146FFF743
:10673C007BFA0449E06A0A68D36A984234BF0020A5
:10674C00012070BDFC1E0020101F002008B510B9E0
:10675C00FFF79AF9FEE7034BD3F8F0205968026073
:10676C00416008BDFC1E002038B50D46044610B92A
:10677C00FFF78AF9FEE711B9FFF786F9FEE7FFF795
:10678C008BF92B680D49581C4A6810D0D1F8F000D1
:10679C0021688842616801D08A420AD2501A984214
:1067AC0007D28A1AD3182B602046FFF7CFFF00249C
:1067BC0000E00124FFF782F9204638BDFC1E0020C2
:1067CC00024B0122C3F8F820704700BFFC1E0020CA
:1067DC00014B1868704700BFFC1E0020054BD3F816
:1067EC00DC0028B1D3F8EC00002814BF02200120F3
:1067FC00704700BFFC1E002070B5044600282BD04B
:10680C00164DC26A2B68D86A824225D22B4653F8A1
:10681C00141BC86AC0F10501142000FB0232636925
:10682C00A161934215D1261D3046FFF721FA2A6843
:10683C00D5F8E410D36A8B42E36201D9C5F8E43091
:10684C00074A142000FB03203146BDE87040FFF7D7
:10685C00EBB92968C86AE06270BD00BFFC1E00205D
:10686C00101F002038B50446E0B1C26A036C9A428E
:10687C0018D0051D2846FFF7FBF90B4A236CD2F8FC
:10688C00E410C3F105008B4288BFC2F8E430074A1C
:10689C00A061142000FB03202946E362BDE83840C8
:1068AC00FFF7C2B938BD00BFFC1E0020101F00202E
:1068BC00F8B50D4CFFF7F0F8256885B9271D38465B
:1068CC0004F11806FFF7A2F93046FFF79FF90520EF
:1068DC000C212A46E7622663FFF784FA2060BDE8A4
:1068EC00F840FFF7EBB800BFF81F002010B591423D
:1068FC0004464160206106D88169D21A8A420DD2C1
:10690C000748006B05E09A4201D2994206D2044B2B
:10691C00D86A211DFFF794F9002010BD012010BD8D
:10692C00F81F00201FB5FFF7C3FF0B4B186810B9F9
:10693C00FFF7AAF80EE000230321009101930293C4
:10694C000393064806494622FFF7FAFB0028EFD0CE
:10695C0005B000BDFEE700BFF81F0020516A00081B
:10696C00288E00082DE9F041804617461E460D463C
:10697C0011B9FFF789F8FEE72820FFF715F8044650
:10698C0058B1FFF795FF069BC4F80080A561E7613D
:10699C0026626362201DFFF744F92046BDE8F081B2
:1069AC007FB50F4D064628681C46B0B10191029286
:1069BC0003966BB9FFF712FF012818BF224628680F
:1069CC0001A906BF089A23461346FFF729FA04E0EB
:1069DC001A4601A90023FFF7A3FA04B070BD00BF4B
:1069EC00F81F0020F7B5164DEB6A1A681AB3D96870
:1069FC00CC680E68271D3846FFF73AF9636A2046C3
:106A0C009847E269012AEED1A0693118B14206D942
:106A1C0061602461E86A3946FFF712F9E3E7002167
:106A2C000091204632460B46FFF7BAFF0028DAD118
:106A3C00FFF72AF8FEE7286B2B63E862FEBD00BF68
:106A4C00F81F0020F0B587B04E4CE36A1F68D7F1F1
:106A5C00010738BF002717B9D868056800E0002582
:106A6C00FFF756FCFFF75EFC616B0646884203D2CB
:106A7C00FFF7B8FF012200E00022424C6663002AB7
:106A8C002FD127BBB54222D8FFF7E0FCE36AD868C8
:106A9C00C468201DFFF7ECF8E169012913D1A26944
:106AAC002046A9182B463246FFF720FF01280AD1B1
:106ABC000097204639462A463B46FFF771FF10B92E
:106ACC00FEF7E2FFFEE7676A2046B84722E020683F
:106ADC00A91BFFF7FAFAFFF7B9FCD8B9FEF7C8FF04
:106AEC0018E0FFF7B3FC15E0059C666916B1201D94
:106AFC00FFF7BEF8FFF716FC224D07466B6B98426A
:106B0C0001D2FFF76FFF039E6F63022E29D0032E75
:106B1C0034D04EB11B4D0022286803A91346FFF751
:106B2C0041FA0028E0D18FE7049BA169204659184F
:106B3C003A46FFF7DBFE0128ECD12046626A90470B
:106B4C00E0690128E6D1A7692046049C00963146ED
:106B5C003A193346FFF724FF0028DBD1FEF794FFE8
:106B6C00FEE7049DA56115B9FEF78EFFFEE72046F2
:106B7C0079193A463B46FFF7B9FECBE72046FEF7BC
:106B8C0041FFC7E7F81F002010B5064C18B9236861
:106B9C0001221A8210BD044B1868016888472068CE
:106BAC000A3010BD942000209020002010B5064C17
:106BBC0018B9236801221A8210BD044B1868816829
:106BCC00884720680C3010BD9420002090200020B5
:106BDC0008B5234A18B9136802221A8208BD214B42
:106BEC00002012681880117811F07F0113D1507AAF
:106BFC0000F02002D1B209B102221A7000F0400359
:106C0C00D8B2184B18B11A7842F001011EE019786D
:106C1C0021F001011AE001291FD002291ED150795F
:106C2C0000F00F024FEA820110F0800F01F180405A
:106C3C0000F5B842116803D001F03002102A03E0CD
:106C4C0001F44050B0F5805F01D101211970064B61
:106C5C00186801698847034808BD184608BD00BF7D
:106C6C00942000206420002090200020F8B5224BB6
:106C7C001C68238A267AABB9042E13D11F480178DD
:106C8C0001291F490AD11F4C226894B21E4AA2182E
:106C9C005200136030220A80037028E010260E8008
:106CAC00072624E0A58AA169AB428CBF02260426E4
:106CBC009D4228BF1D46284688470746002000F005
:106CCC0045FD2A460146384600F052FC2946002074
:106CDC0000F058FD208A638A421BED1808480B4BC4
:106CEC00228230214FF44052018065821A80024B7F
:106CFC0018680672F8BD00BF9420002030200020D8
:106D0C009C200020505C0040023000209A20002083
:106D1C0010B50A4B0A4918684B78C27893420AD3CB
:106D2C00817841B9848834B9827206480268536804
:106D3C009847204610BD022010BD00BF94200020B3
:106D4C00E00000209020002038B50E4A0E4C106850
:106D5C0023688269D9785879904721688B7A7BB1FE
:106D6C0070B9087960B98D7855B9084A1168CB6843
:106D7C00984720684279C178C2720173284638BDA1
:106D8C00022038BD6C200020942000209020002090
:106D9C0010B5324B1B68187810F07F0004D15A7A6A
:106DAC0022F02001597210BD022855D15A88002AB0
:106DBC0053D11979002950D15A7922F080004FEA29
:106DCC00800404F1804101F5B8442168244C12F090
:106DDC00800F247814BF01F0300101F44051A0421F
:106DEC003AD2002938D09B7A002B35D0840002F09F
:106DFC00800204F18043D1B203F5B844226861B13A
:106E0C0002F03002102A21D1C4B2204600F06BFCF3
:106E1C002046302100F0EAFB18E002F44051B1F5B5
:106E2C00805F13D128B90F4B93F82C1000F0B8FCED
:106E3C0001E000F046FC20684BF68F72024082F4B1
:106E4C00405141F4004343F08000206006490B6838
:106E5C0058698047002010BD022010BD94200020EE
:106E6C00E00000208C0000209020002010B51F4B6B
:106E7C0019684A7922F080034FEA830000F18044BC
:106E8C0004F5B8401A4C0068247812F0800F14BF37
:106E9C0000F0300000F44050A34224D24C8814BBC4
:106EAC0008B3897AF9B19B0003F1804102F08002AA
:106EBC0001F5B843D0B2196828B148F6BF720A4040
:106ECC0082F0100004E04BF68F720A4082F480507E
:106EDC0040F4004141F080001860064B1A6891693B
:106EEC008847002010BD022010BD00BF9420002058
:106EFC00E00000209020002008B5064B1868064BD7
:106F0C00427A42F0200141721868C2699047002011
:106F1C0008BD00BF9420002090200020054B1A686B
:106F2C00538A18B98988CB1A138270470868C0181D
:106F3C00704700BF9420002008B50B4B002093F83D
:106F4C002C1000F02DFC09480168087A082806D19D
:106F5C00074B4FF480521A80064A10211180B0F171
:106F6C0009035842584108BD8C0000209420002091
:106F7C009A2000209C20002070B52E4B1C68207A93
:106F8C0002284FD004284DD0032801D0052843D126
:106F9C00A169208AA9B1A0B1A58A854228BF05465E
:106FAC0028468847228A0646608A531B2918618224
:106FBC002382002000F0D8FB2A460146304600F020
:106FCC00EEFA228A52B11C4B4FF44050188000202C
:106FDC00014600F0D7FB194A30211180208AA38A80
:106FEC001449834202D80B68032202E018B10B68E3
:106FFC0005221A720CE00A680623114913720A68FA
:10700C00104993B25A1853000C491860302008806C
:10701C00084801680B7A06E0072803D10A490A6878
:10702C00D36898470823034A10680372BDE8704080
:10703C00FFF782BF942000209A2000209C20002083
:10704C00505C0040023000206C200020944B73B543
:10705C001A68944990B24418934E65002A683568B2
:10706C002B7A092B15D090B2410001F1804404F524
:10707C00C04422782A7063786B70A08800F0BEFB45
:10708C0068802089356800F0B9FBA880A089316838
:10709C00C880854D01242B68DA881C725C78002A24
:1070AC0064D1187810F07F0238D1092C02D1FFF787
:1070BC002FFE45E0052C0FD193F90320002A01DAAD
:1070CC0008214FE099780029FAD198880028F7D147
:1070DC009B7A002B38D0F3E7032C10D1D8780128F9
:1070EC0007D0724A204611684B699847032829D16A
:1070FC0037E09B88002BF4D1FFF7FEFE20E0012C3B
:10710C00EFD1D9780129ECD198880028E9D15B7AA4
:10711C0003F02002D1B20029E3D00AE0012A04D105
:10712C000B2CDED1FFF710FE0AE0022AD9D1012C7C
:10713C0002D1FFF72DFE03E0032CD2D1FFF796FE10
:10714C0010B1CEE70028BBD15548594B026891B21B
:10715C00C818584B4100002230200A6018800621C4
:10716C0000E00921504A10680172D3E0062C13D1BB
:10717C001C7861067AD19A784C4B012A02D11C6892
:10718C00E36969E0022A02D11868036A64E0032A01
:10719C006CD119684B6A5FE0002C3ED159880029EC
:1071AC0064D1586820F47F42B2F5003F5ED11C7860
:1071BC0014F07F0004D19888002800F0AE8055E0D0
:1071CC0001280CD1394A58791468A26990470028D3
:1071DC004CD12B68997A002940F09F8046E0022818
:1071EC0044D15B7903F00F014FEA810202F1804434
:1071FC0004F5B840304C0268207813F0800F14BFAF
:10720C0002F0300202F4405281422FD213F0700F80
:10721C002CD1002A40F0818028E0082C03D1197869
:10722C004A067CD022E00A2C20D1187800F07F018D
:10723C0001291BD19C7ACCB15988B9B95A6822F46E
:10724C007F40B0F5803F11D1184C58792268946971
:10725C00A047002865D009E043B113480024016819
:10726C0020464C828B61984720460AE00F4A0E4C10
:10727C00116823680A6958789047032801D123685C
:10728C0006E0094B4FF6FF711B681A8A8A4201D13E
:10729C00092103E0022800D082B90821197239E0D3
:1072AC00505C004004300020942000206C20002012
:1072BC00023000209C200020E000002093F9000008
:1072CC00002821DAD98801910198824202D9019AC9
:1072DC001A8211E08A420FD21349086890F82C10D8
:1072EC008A4201D2002105E092FBF1F001FB102251
:1072FC0012B901210D4801700B49086890F82C2037
:10730C009A82FFF7B3FC05E003221A72084B4FF484
:10731C0040511980FFF710FE7CBD064B9DE7064BD4
:10732C009BE7064B99E700BF6C2000203020002023
:10733C009A200020DD6B0008956B0008B96B0008E3
:10734C0070B50D4B1C780023A34210D203F1805270
:10735C0002F5B855A90043F400420E6842F08005CE
:10736C0040F60F7232402A430A600133ECE70349BE
:10737C0040F08000086070BDE00000204C5C0040D4
:10738C0010B514490B680C461A7A022A01D0042A4B
:10739C0004D1FFF76BFC2168087A13E0062A10D1A0
:1073AC005878052809D11978480606D1D878FFF7FE
:1073BC00C7FF094B1A68106A804708490B689A681E
:1073CC0090470820034B1A681072BDE81040FFF775
:1073DC00B3BD00BF94200020902000206C20002022
:1073EC007047000037B50023ADF806305848594BAC
:1073FC00026891B21204198040F1A880188856498D
:10740C0000F00F020A70002A6ED1544C2568AAB203
:10741C00534D2A802988534A01F030001080298866
:10742C004BF6BF7201F44050288021680A4082F468
:10743C00005080F0200141F4004242F080002060B6
:10744C001B8803F010018AB23AB9226848F60F7013
:10745C0010402060FFF794FF1DE0206883B2ADF868
:10746C000630BDF8061001F4006290B238B1216804
:10747C0040F68F730B402360FFF7E8FD0BE0BDF87F
:10748C00063019B20029B1DA226840F68F7010402C
:10749C002060FFF771FD21682A884BF6BF7302F458
:1074AC0080500B4081B209B183F480532C4A108870
:1074BC0000F400518AB20AB183F4005329480188C0
:1074CC0001F0100291B209B183F01003008800F0B2
:1074DC00200291B209B183F0200343F400401F4A0B
:1074EC0040F08001116031E0930003F1804000F521
:1074FC00B843196888B2ADF80600BDF8061008B29A
:10750C00002809DA186840F68F7101401960164B93
:10751C00013A53F822008047BDF8061001F08002B2
:10752C0093B2002B3FF462AF0B480278910001F14B
:10753C00804303F5B841086848F60F7303400B60AD
:10754C000A49013A51F8220080474FE73EBD00BF7F
:10755C00445C0040E402002070200020005C0040ED
:10756C009A2000209C2000201C00002038000020C5
:10757C0030B501F1005101F5405301325900521060
:10758C0000230230934209D010F8015C10F8024C31
:10759C0044EA052421F823400133F2E730BD01F120
:1075AC00005110B5013201F5405452106400002313
:1075BC00934205D054F8231020F813100133F7E749
:1075CC0010BD00004FF6F873014A0340136070477A
:1075DC00505C0040800000F1804202F5B842106817
:1075EC0048F68F130340194311607047800000F177
:1075FC00804202F5B842106848F6BF73034001F0B0
:10760C00100080B208B99BB201E083F0100301F0C6
:10761C00200188B208B183F0200343F4004141F00B
:10762C00800010607047800000F1804202F5B84283
:10763C0010684BF68F73034001F4805080B208B988
:10764C009BB201E083F4805301F4005188B208B17D
:10765C0083F4005343F4004141F080001060704704
:10766C00800000F1804202F5B840016848F6BF7313
:10767C000B4083F0300242F4004141F08003036080
:10768C007047800000F1804202F5B84001684BF66B
:10769C008F730B4083F4405242F4004141F080035D
:1076AC0003607047800000F1804202F5B840016829
:1076BC0040F60F630B4043F4004242F0800101603E
:1076CC007047800000F1804303F5B8400268510414
:1076DC0008D5016840F60F730B4043F4404242F06A
:1076EC00800101607047800000F1804303F5B843CE
:1076FC001A68500608D5196840F60F70084040F417
:10770C00004242F0C001196070470000064B490866
:10771C001A6893B203EBC00000F1005202F540531B
:10772C0058004A0002607047505C0040054B490805
:10773C001A6893B2044A03EBC000831858004A003D
:10774C0002607047505C004004300020054B196803
:10775C008AB202EBC00000F1005303F540514A001D
:10776C0010887047505C0040044B1968044B8AB277
:10777C0002EBC000C1184A0010887047505C0040F2
:10778C0004300020044B1A6893B2044A03EBC00087
:10779C008318580001607047505C00400230002094
:1077AC000C4B1A6893B20C4A03EBC00083185A00B6
:1077BC003E2908D94B09C90601D1581E83B299023A
:1077CC0041F4004104E04B08C80748BF013399025B
:1077DC0011607047505C004006300020054B196862
:1077EC00054B8AB202EBC000C1184A001068830531
:1077FC00980D7047505C004006300020C3B2000A60
:10780C0040EA032070470000044B00201860044A33
:10781C00044B4FF43F41118019607047445C0040A9
:10782C0098200020405C004040F0BF60024B40F4C8
:10783C000031D960704700BF00ED00E0C37810B58F
:10784C0003B3164CE168CB43C3F302244178C4F173
:10785C00040201FA02F10F2222FA04F2847803786E
:10786C0022400A43110103F16043CAB203F561419E
:10787C0081F800230078012200F01F03410902FA6D
:10788C0003F007E00078012200F01F03410902FA1F
:10789C0003F02031024B43F8210010BD00ED00E055
:1078AC0000E100E021F0604121F07F02014B104328
:1078BC009860704700ED00E0837910B5002B29D05B
:1078CC001A4B01681C68CA4314401C605C68224057
:1078DC005A60027902F1804404F582321468214323
:1078EC00116002689C68D1430C409C60DC68407954
:1078FC0021401028D96006D1986810439860D96847
:10790C000A43DA6010BD00F1804303F58233196835
:10791C000A4308E00179006801F1804202F58233E4
:10792C001A6822EA00021A6010BD00BF0004014070
:10793C00014B5861704700BF00040140064B1A68A8
:10794C00596910EA010304D010420CBF0020012039
:10795C0070471846704700BF00040140014B586146
:10796C00704700BF00040140CB78F0B5DA0648BF81
:10797C008A78098803F00F0548BF154311F0FF0FF3
:10798C001ED004680022012707FA02F707EA010655
:10799C00BE4211D197004FF00F0C0CFA07FC05FA00
:1079AC0007F724EA0C04282B44EA070401D14661AA
:1079BC0002E0482B08BF06610132082AE3D10460BB
:1079CC00FF2920D94468002202F10806012707FA92
:1079DC0006F707EA0106BE4211D197004FF00F0CD3
:1079EC000CFA07FC05FA07F724EA0C04282B44EAE6
:1079FC00070401D1466102E0482B08BF0661013241
:107A0C00082AE1D14460F0BD0161704741617047C3
:107A1C000028174B30B500F44014B4BFDB695B6829
:107A2C00B4F5401F82B207D1114C23F07063656826
:107A3C0025F0706565600FE0C40205D5C0F3034402
:107A4C00032505FA04F403E0440D240102FA04F4BE
:107A5C0023EA040343F0706321B1410D090102FADA
:107A6C0001F2134300280248B4BFC361436030BD28
:107A7C000000014001F0030230B592000F2404FA1B
:107A8C0002F400FA02F0074B8908023153F8215036
:107A9C0025EA040443F8214053F82140044343F8F9
:107AAC00214030BD00000140014B1860704700BF01
:107ABC0020000E42034B596808420CBF00200120E5
:107ACC00704700BF00700040024B1A6842EA800009
:107ADC001860704700700040044B5A6909B110439C
:107AEC0001E022EA00005861704700BF001002401C
:107AFC00044B9A6909B1104301E022EA0000986135
:107B0C00704700BF00100240044BDA6909B1104302
:107B1C0001E022EA0000D861704700BF001002406B
:107B2C00034B988800F020018AB2002AF8D07047E5
:107B3C0000280040074B9A881B8891B210EA030278
:107B4C0006D0084010F0FF0F0CBF0020012070473A
:107B5C001046704700280040034B9A8891B221EAE6
:107B6C0000009880704700BF00280040224A03881C
:107B7C0090429BB212D002F5006290420ED0B0F14E
:107B8C00804F0BD0A2F59832904207D002F580625C
:107B9C00904203D002F58062904203D14A8823F0D0
:107BAC0070031343154A904208D002F5806290424C
:107BBC0004D023F44073CA889BB2134303808B8890
:107BCC000A8883850C4B028598420FD003F500621E
:107BDC0090420BD002F54063984207D003F58062C7
:107BEC00904203D002F58063984201D1097A018654
:107BFC0001228282704700BF002C0140001000401F
:107C0C00038C70B523F001021404250C0584068C3A
:107C1C008388028B9CB222F073052B040D881A0CFE
:107C2C0026F0020633042A434E880D891B0C35437B
:107C3C00ADB22B43134DA8420FD005F50065A842F9
:107C4C000BD005F54065A84207D005F58065A84224
:107C5C0003D005F58065A8420ED123F008064B89A8
:107C6C008D881E4326F004032B43CE898D8924F482
:107C7C0040743543ADB22C43C9888480028381861D
:107C8C00038470BD002C0140038C30B523F010022E
:107C9C001404250C0584038C8288048B23F02003A8
:107CAC0024F4E6452C040D88240C44EA05241D0418
:107CBC002B0C0D8992B243EA05134D88A4B243EA0A
:107CCC000513124D9BB2A84203D005F50065A842DE
:107CDC0015D14D8923F080039BB243EA05134FF66F
:107CEC00BF751D408B8822F4406245EA0315ABB288
:107CFC008D8942EA8502CD8942EA850292B2C98811
:107D0C00828004830187038430BD00BF002C0140B6
:107D1C00038C30B523F480721404250C0584038C79
:107D2C008288848B23F4007324F073052C040D8853
:107D3C00240C2C431D042B0C0D8992B243EA052311
:107D4C004D8843EA0523124D9BB2A84203D005F59A
:107D5C000065A84215D14D8923F400639BB243EA18
:107D6C0005234FF6FF351D408B8822F4405245EA1F
:107D7C000325ABB28D8942EA0512CD8942EA051280
:107D8C0092B2C988828084838187038430BD00BF0E
:107D9C00002C0140038C30B523F480521404250CC4
:107DAC000584038C8288858B94B225F4E6421504F5
:107DBC002A0C0D8823F4005342EA05221D042B0CD7
:107DCC000D8992B243EA05334D8843EA05330A4DD7
:107DDC009BB2A84203D005F50065A84205D18D8958
:107DEC0024F4804444EA8514A4B2C9888480828334
:107DFC00A0F84010038430BD002C014000214FF648
:107E0C00FF7383800180C180418001727047002321
:107E1C00038043808380C380038143818381C3813A
:107E2C007047038819B199B241F0010303E023F0C4
:107E3C0001010A04130C03807047B0F8443029B1D7
:107E4C006FEA43436FEA53418AB201E059044A0C8A
:107E5C00A0F84420704783899BB20AB1194301E012
:107E6C0023EA010181817047038819B199B241F06D
:107E7C00800303E023F080010A04130C0380704795
:107E8C00038B23F0080213041A0C1143018370476F
:107E9C00038B23F4006213041A0C42EA01218BB207
:107EAC0003837047838B23F0080213041A0C1143CD
:107EBC0081837047838B23F4006213041A0C42EA0B
:107ECC0001218BB28383704708B572B600F048FB72
:107EDC00034B022218699A6019680530884708BD5F
:107EEC00A020002070B50646002014460D4600F078
:107EFC0027FB012EA4B207D130462946224600F0BA
:107F0C00EBFA0020124907E0124B012019692246B6
:107F1C0000F0E2FA00202946224600F0DDFA0E4875
:107F2C000221012200F011FD012000F009FB0A489A
:107F3C0000F013FD0028FAD1084800F00EFD0028CF
:107F4C00FAD10748802100F023FD0028F9D170BD3B
:107F5C00EC000020A0200020580002404400024009
:107F6C000038004003460A4601201946FFF7BABF05
:107F7C0070B50646002014460D4600F0E1FA012EBD
:107F8C00A4B207D130462946224600F0A5FA0020BB
:107F9C00104907E0104B01201969224600F09CFAA9
:107FAC0000202946224600F097FA012000F0C8FA7A
:107FBC000A4800F0D2FC0028FAD1094800F0CDFCA8
:107FCC000028FAD10748802100F0E2FC0028F9D102
:107FDC0070BD00BFEC000020A02000205800024023
:107FEC00440002400038004003460A46002019466F
:107FFC00FFF7BEBF70B5184E35696B79022B08D0F0
:10800C00042B25D1287A441E14F0010F18BF044606
:10801C0014E0681D032100F0EDFBB0F5806F044601
:10802C0008DB05F10A004FF480610724FFF79AFF83
:10803C00B4600EE0C30701D4441C00E024B105F188
:10804C000A00A1B2FFF78EFF034908228A6000E004
:10805C000024204670BD00BFA0200020024B012050
:10806C0019690A22FFF73EBFA020002008B5FFF7D0
:10807C00C1FF18B9BDE80840FFF726BF08BD0000D6
:10808C0070B5364C4FF40030266900F069FC05469B
:10809C004FF4005000F064FCA368062B0BD1002DAC
:1080AC005BD0002859D04FF4083000F067FCBDE8D5
:1080BC007040FFF7DBBFA16807291BD100284CD00B
:1080CC004FF4083000F05AFC0321701D00F092FBB5
:1080DC00A0F58064A1B2214CCA0758BFA0F2FF31B1
:1080EC00206958BF89B200F20A40FFF73BFF082312
:1080FC00A36070BDA268082A09D100282DD04FF4C6
:10810C00083000F03BFCBDE87040FFF7DDBEA06816
:10811C00052811D1002D20D01148802100F038FC09
:10812C000028F9D14FF4083000F028FC00F018FAC0
:10813C000A4A0221916070BDA368042B0DD165B170
:10814C00A088E2680521A0F58063A16002F580603B
:10815C0099B2BDE87040FFF747BF70BDA02000206A
:10816C000038004008B5174BD8698047002827D144
:10817C00154B9A6812B90120986008BD99680229BC
:10818C0007D106229A6000F0FBF9BDE80840FFF722
:10819C0065BF9A68032A13D19A88B2F5806F06D806
:1081AC0005219960D968BDE80840FFF79BBE042003
:1081BC009860D8684FF48061BDE80840FFF714BFA1
:1081CC0008BD00BF20290020A02000204FF44070E3
:1081DC00FFF72ABB70B5012188B04FF40060FFF7A0
:1081EC0087FC314B42F210701C686326B4FBF0F133
:1081FC004A1E2E4C01A895B2FFF700FE01A8FFF70E
:10820C00FDFD01A9ADF8045020460025ADF808602D
:10821C00ADF80A50ADF80650FFF7A8FC04A8FFF71C
:10822C00F6FD022060230126ADF8180004A92046B3
:10823C00ADF81030ADF81260ADF81650ADF81C501A
:10824C00FFF7DEFC20462946FFF71AFE204604A95C
:10825C00FFF71AFD20462946FFF71AFE204604A90F
:10826C00FFF756FD20462946FFF71CFE204604A9C1
:10827C00ADF81050ADF81260ADF81650ADF81850BE
:10828C00FFF788FD20462946FFF714FE20463146AD
:10829C00FFF7EAFD20463146FFF7C3FD2046314685
:1082AC00FFF7CBFD08B070BD38010020002C014059
:1082BC00104930B58C8DC0F30743A2B2551C5D43F9
:1082CC00FF22B5FBF2F40C4BA5B29D808C8DC0F354
:1082DC000725A4B201346C43B4FBF2F4A4B2DC80E5
:1082EC00898DC0B289B201314843B0FBF2F291B230
:1082FC00598030BD002C01403420002037B50F4D83
:10830C00044605EB8003186B012105EB4405FFF7D0
:10831C00EFFBB5F84000ADF804000CB9102100E0FB
:10832C001821074B8DF8071003EB84040322206AF5
:10833C0001A98DF80620FFF717FB3EBDB08D000894
:10834C00F400002010B1E7281BD105E00D4A4FF4D2
:10835C000051106A016170470B4B0C4A197C39B9FA
:10836C00988881B21187D88881B291875B8806E0A2
:10837C00988981B21187D88981B291875B899BB228
:10838C0093867047F400002034200020002C01401C
:10839C0010B1E72827D106E0134B196AC86880F49E
:1083AC000052CA607047114A114B117C61B9198F88
:1083BC009088414088B21887998FD088414088B204
:1083CC009887998E52880BE0198F9089414088B21A
:1083DC001887998FD089414088B29887998E528995
:1083EC004A4092B29A867047F40000203420002054
:1083FC00002C014073B5104C0E4604EB400494F86D
:10840C004C10054694F84800FFF734FBB4F8504084
:10841C002046FFF78DFA09480023451995F83010CE
:10842C00684600948DF804308DF805108DF80660C0
:10843C00FFF742FA7CBD00BFB08D0008F4000020AD
:10844C00F7B5224E8700F3190546586D0C4640F0DF
:10845C0001000121FFF74CFB1D4B06EB45065A1999
:10846C0092F83210B6F85C0002AADF198DF80310EE
:10847C0022F8080D6946786BFFF776FA012C24D1A7
:10848C001021002213481B27FFF7E5FC05238DF86C
:10849C00047001A800278DF805308DF806708DF852
:1084AC000740FFF7CBF9B6F8601006208DF80500F1
:1084BC0001A88DF804108DF806708DF80740FFF7B1
:1084CC00BDF928462146FFF795FFFEBDB08D00088B
:1084DC00F4000020002C014070B5044601208CB043
:1084EC000E4601461546FFF7F7FA124B0020802284
:1084FC004FF44051012C019302960590069207907F
:10850C00089009900A910B9006D103900A480495A3
:10851C0000F078F9084807E04CB91023074803939A
:10852C00049500F06FF9054801A900F0E3F90CB0CF
:10853C0070BD00BF0C38004044000240580002409F
:10854C0010B504462146044800F0F4F903482146CE
:10855C00BDE8104000F0EEB9440002405800024063
:10856C0002484FF48051FFF74FBA00BF000C014096
:10857C0002484FF40071FFF747BA00BF000C0140EE
:10858C0010B50B4C238823F0400001040A0C228008
:10859C00FFF7EEFF074B188881B2074841F0400205
:1085AC004FF480512280BDE81040FFF72FBA00BF76
:1085BC0000380040D8280020000C0140014B032259
:1085CC001A60704760200020044B05489A7A0AB163
:1085DC00052100E001210160704700BF74200020DC
:1085EC006020002020B105484FF48061FFF70EBADF
:1085FC0002484FF48061FFF707BA00BF000C01403E
:10860C003A4B82B01A6842F0010018605968384A37
:10861C000A405A60186820F0847121F480321A6084
:10862C00186820F4802119605A684FF41F0122F455
:10863C00FE0000225860996000920192186840F484
:10864C0080311960294B1A6802F4003001900099AE
:10865C004A1C0092019818B90099B1F5A06FF1D19C
:10866C001B6813F4003218BF0122019201980128F3
:10867C0005D0204B4FF000629A6002B070471E4943
:10868C000B6843F010020A60086820F003030B60CB
:10869C000A68A1F5805342F00200086059685960DD
:1086AC005A685A60586840F4806159605A6822F4DC
:1086BC007C105860596841F4E8125A60186840F010
:1086CC00807119601868094A8101FBD5536823F041
:1086DC0003015160506840F002035360034A516833
:1086EC0001F00C000828F9D1C3E700BF00100240CC
:1086FC000000FFF800ED00E00020024008B501206A
:10870C00FFF770FF064B0749012200201A60186022
:10871C00086005494FF4E0520A801A6008BD00BF9A
:10872C00405C0040445C004098200020064B1A68D6
:10873C0090B240F0080119601A6890B240F0040140
:10874C001960FFF73BBF00BF405C004010B5064C02
:10875C004FF6FB73226813402360FFF735FF4FF48D
:10876C003F40206010BD00BF405C00401F4B0728FD
:10877C0010B518BF18701A781C4C052A33D8DFE8CE
:10878C0002F003070C101823FFF7E0FF062202E0AB
:10879C00FFF7DCFF0422227010BD02215970032068
:1087AC0022E059784A1ED0B258705B78EBB904209D
:1087BC0017E00F4B186881B241F010021A600A20C2
:1087CC0005232370607010BD5878411ECAB25A70D0
:1087DC005B7853B906484FF6EF7201680A400260A5
:1087EC000620024B00E00620187010BDDA2800208D
:1087FC00405C004043185A78405C00EB022188B280
:10880C007047000002684FF6FE73134003602D4B57
:10881C0000219842016041608160C16022D02A49E8
:10882C00884229D0294B984230D02949884237D0E8
:10883C00284B98423ED0284B984206D153F8681CDE
:10884C0041F4700043F8680C70472449884206D103
:10885C0051F87C0C40F0706241F87C2C7047204B36
:10886C00984206D153F8042C42F00F0143F8041C33
:10887C0070471C49884206D151F8183C43F0F0006F
:10888C0041F8180C7047184B984206D153F82C2C11
:10889C0042F4706143F82C1C70471449884206D18D
:1088AC0051F8403C43F4704041F8400C7047104B79
:1088BC00984205D153F8542C42F4702143F8541CBF
:1088CC00704700BF080002401C000240300002400C
:1088DC0044000240580002406C00024080000240FC
:1088EC00080402401C0402403004024044040240CC
:1088FC005804024070B506688C680D6A26F4FF4275
:10890C0022F070060A6945EA04034C6913438A692C
:10891C002343CC6913431C434B6A44EA03028B6A1E
:10892C001A4332430260CB680A684968436082602C
:10893C00C16070BD19B1016841F0010303E0026828
:10894C004FF6FE7313400360704703680AB1194376
:10895C0001E023EA010101607047406880B2704772
:10896C00C3004CBF034B044B196801420CBF0020E1
:10897C00012070470004024000000240C2004CBFBE
:10898C00014B024B5860704700040240000002404B
:10899C00038919420CBF002001207047032AF0B450
:1089AC0031D941EA00039C072ED106680F68151FC8
:1089BC00031D0C1DBE42C5F3800C24D1032D2A4689
:1089CC001FD9BCF1000F08D01E6825682146184637
:1089DC0004340433AE4211D015E0214618461C680D
:1089EC000B68051D0E1D9C420DD1314628462E6884
:1089FC000D68043A031D0C1DAE4204D1043A032A3F
:108A0C00EBD8214618461AB303780C78A3420AD146
:108A1C00551E0022EB0714D510F8013F11F8014F39
:108A2C000122A3420DD0181B10E010F8013F11F8E1
:108A3C00014FA342F7D110F8013F11F8014FA342A7
:108A4C00F1D1AA4202F10202EFD10020F0BC704732
:108A5C001046FBE70F2A2DE9F00340F2A18041EA12
:108A6C0000039B0740F09E800C68A2F11005046087
:108A7C004B68AC4643608C68BCF10F0F8460CC68CB
:108A8C00C5F30015C46000F1100301F110042BD9DB
:108A9C0075B12568ACF1100C1D6065685D60A5684A
:108AAC009D60E5681034DD601033BCF10F0F1BD9ED
:108ABC00276804F110061F60676803F110055F60FA
:108ACC00A768ACF1200C9F60E768DF6024691C612B
:108ADC00776806F110046F60B7682033AF60F668F2
:108AEC00BCF10F0FEE60E3D8A2F1100828F00F03D1
:108AFC0002F00F0403F1100C032C00EB0C0301EB40
:108B0C000C0851D9211F4FEA9109444608EB890CF6
:108B1C0054F8046BC8EB0C010CF1040C1D466445B5
:108B2C0045F8046BC1F3800112D029B154F8041B31
:108B3C00644545F8041B0BD0274657F8041B2E46FA
:108B4C0046F8041B64686C603C1D351D6445F3D10C
:108B5C0009F1010C4FEA8C0902F0030208EB090140
:108B6C004B44D2B10D789A18DC4303F8015B14190D
:108B7C00934204F0010410D02CB111F8014F03F80A
:108B8C00014B934209D04D781C4604F8015B8D785B
:108B9C0002315D70631C9342F5D1BDE8F003704760
:108BAC000346DEE70346DDE741462246D9E700BF30
:108BBC00F0B48407034600F08D80541E002A00F0A8
:108BCC008780E507CEB211D41A4602F8016B134622
:108BDC001546920710D0621E002C79D003F8016B59
:108BEC0014469A071D4607D0013CEDE7034603F8EF
:108BFC00016B9A071D46F7D1032C52D9CEB246EA27
:108C0C0006270F2C47EA07432DD9A4F1100217466B
:108C1C000F2FC2F300162B606B60AB60EB6005F19D
:108C2C00100216D93EB1103F136053609360D360AD
:108C3C0010320F2F0DD9203F02F110061360536034
:108C4C009360D360136153619361D36120320F2F12
:108C5C00F1D8A4F1100222F00F0204F00F0410322C
:108C6C00032C15441DD9271F3E462A46032E42F8D5
:108C7C00043BC7F380070DD927B1043E032E42F8FD
:108C8C00043B07D9174647F8043B083E53603A1D8E
:108C9C00032EF7D8231F23F00302131D04F0030443
:108CAC00ED18ACB1C9B2EA432C1905F8011BA31895
:108CBC00A54203F001020BD01AB105F8011BA54225
:108CCC0006D02B4603F8011B69705D1CA542F8D138
:108CDC00F0BC7047054614468EE700BF32035300C4
:108CEC007000610072006B00200043006F00720086
:108CFC0065002000770069007400680020005700B0
:108D0C006900460069002000200020002000260396
:108D1C0053007000610072006B002000440065007D
:108D2C0076006900630065007300200020002000BD
:108D3C00200020000403090409024300020100C0C2
:108D4C003209040000010202010005240010010593
:108D5C0024010001042402020524060001070582F7
:108D6C00030800FF09040100020A000000070503C4
:108D7C0002400000070581024000001201000202BF
:108D8C00000040501D7D60000201020301A5A5A555
:108D9C00A5A5A5A5A5A5A5A5A5A5A5A5A5A5A5A577
:108DAC00A50000008000400020001000080000809A
:108DBC00004000200800000008000000080000002F
:108DCC00080000000800000004000000040000007F
:108DDC000400000004000000040000000400000077
:108DEC00040000000020000100020004010000004B
:108DFC000200000004000000080000000000000059
:108E0C0004000000080000005278005458004C4543
:108E1C004454696D65720049444C4500546D722090
:048E2C005376630016
:108E30001A0343004F0052004500200000000000CC
:108E4000000000000000000000000000ED730008BA
:108E5000ED7300081D560008ED730008ED7300085F
:108E6000ED730008ED730008B9550008ED730008B4
:108E7000ED730008ED730008ED730008ED73000852
:108E8000ED73000800C2010000000800408D0008DA
:108E9000040000001A8D000826000000E88C00087D
:108EA00032000000000000201A000000448D00087D
:108EB00043000000878D000812000000915900084F
:108EC000B1580008A1570008B5570008B957000865
:108ED0001558000839580008A55800089958000886
:108EE000795800080000000040000000ED73000801
:108EF0007D570008ED730008ED730008ED7300085E
:108F0000ED730008ED730008ED7300089557000835
:108F100004010000AAAAAAAAFFFFFFFF03000000A5
:108F200000000000000C0140000C0140000C01405A
:108F3000000C0140000C0140000801400008014005
:108F400000080140000801400008014000080140FD
:108F5000000801400C004800000C01400000000027
:108F6000FFFFFFFFFFFF040000A24A040000000013
:108F700000000000010203040607080901000000C8
:040000050800510C92
:00000001FF
