:020000040800F2
:10C00000005000200DC1000875D7000877D7000840
:10C0100079D700087BD700087DD700080000000012
:10C020000000000000000000000000007FD70008B2
:10C0300081D700080000000083D7000885D70008DA
:10C0400059C1000859C1000859C1000859C1000868
:10C0500059C1000859C1000859C1000859C1000858
:10C060008DD7000859C1000859C1000859C10008FE
:10C0700059C1000859C1000859C1000889D70008F2
:10C0800059C1000859C1000859C1000859C1000828
:10C090002DD8000859C1000859C1000859C100082D
:10C0A00059C1000859C1000859C10008E5D7000866
:10C0B00059C1000859C1000859C1000859C10008F8
:10C0C00059C1000859C1000859C1000859C10008E8
:10C0D00059C1000859C1000859C1000859C10008D8
:10C0E00091D7000859C1000859C10008000000009C
:10C0F0000000000000000000000000000000000040
:0CC1000000000000000000005FF808F1E3
:10C10C00002100F004B80C4B5B58435004310B4831
:10C11C000B4B42189A42FFF4F6AF0A4A00F003B8F0
:10C12C00002342F8043B084B9A42FFF4F9AF01F0AC
:10C13C0079FB01F015F870479418010800000020F5
:10C14C009C0500209C050020FC120020FFF7FEBF80
:10C15C007047704708B5064B002218600549064821
:10C16C009A601961DA80DA609A80036A984708BD90
:10C17C00CC050020E0090020A812002008B5044BD3
:10C18C001A690AB10020186102494B6A984708BD28
:10C19C00CC050020A812002062B6704708B572B614
:10C1AC0006484FF4805102F023FE054B0222186919
:10C1BC009A6019680530884708BD00BF000C014023
:10C1CC00CC05002070B50646002014460D4600F044
:10C1DC00DDFC012EA4B207D130462946224600F0E0
:10C1EC005DFC0020124907E0124B01201969224620
:10C1FC0000F054FC00202946224600F04FFC0E486B
:10C20C000221012202F0A9FC012000F0BFFC0A4827
:10C21C0002F0ABFC0028FAD1084802F0A6FC00287A
:10C22C00FAD10748802102F0CFFE0028F9D170BD69
:10C23C0000000020CC0500205800024044000240C1
:10C24C000038004003460A4601201946FFF7BABFE2
:10C25C0070B50646002014460D4600F097FC012EE2
:10C26C00A4B207D130462946224600F017FC002024
:10C27C00104907E0104B01201969224600F00EFC12
:10C28C0000202946224600F009FC012000F07EFC2B
:10C29C000A4802F06AFC0028FAD1094802F065FC51
:10C2AC000028FAD10748802102F08EFE0028F9D12F
:10C2BC0070BD00BF00000020CC05002058000240DB
:10C2CC00440002400038004003460A46002019464C
:10C2DC00FFF7BEBF70B50E4D04460E4628464FF410
:10C2EC00805102F087FD002021460422FFF7B0FFA9
:10C2FC000020211D321FFFF7ABFF064B0222284600
:10C30C004FF480519A6002F073FD002070BD00BFA5
:10C31C00000C0140CC05002070B501F0010604466C
:10C32C0086F001000D18012300262370C5F30722A7
:10C33C001D4BE67026716270A57005319D6808185A
:10C34C0086B215B99A68012AFCD19968164D012953
:10C35C0007D120463146FFF7BDFFAA68022AFCD15F
:10C36C001FE0A8680228FCD11048802102F02CFEA6
:10C37C000028F9D10E4BDD69A8470028FAD00A4DE8
:10C38C0003220C484FF48051AA60EC60AE8002F09E
:10C39C0031FD0749C86980470028FAD0AB68022BE9
:10C3AC00FCD1002070BD00BFCC050020003800403F
:10C3BC00A8120020000C014070B5184E35696B793D
:10C3CC00022B08D0042B25D1287A441E14F0010F1F
:10C3DC0018BF044614E0681D032102F0C6FFB0F537
:10C3EC00806F044608DB05F10A004FF480610724D6
:10C3FC00FFF728FFB4600EE0C30701D4441C00E033
:10C40C0024B105F10A00A1B2FFF71CFF0349082271
:10C41C008A6000E00024204670BD00BFCC050020DF
:10C42C00024B012019690A22FFF7CCBECC05002073
:10C43C0008B5FFF7C1FF18B9BDE80840FFF7AEBE5D
:10C44C0008BD000070B5384C4FF40030266902F07E
:10C45C008FFB05464FF4005002F08AFBA368062BB5
:10C46C000BD1002D5ED000285CD04FF4083002F0C8
:10C47C008DFBBDE87040FFF7DBBFA16807291BD11E
:10C48C0000284FD04FF4083002F080FB0321701DC0
:10C49C0002F06BFFA0F58064A1B2234CCA0758BF11
:10C4AC00A0F2FF31206958BF89B200F20A40FFF7B1
:10C4BC00C9FE0823A36070BDA268082A09D1002810
:10C4CC0030D04FF4083002F061FBBDE87040FFF74C
:10C4DC0065BEA068052814D1002D23D013488021F7
:10C4EC0002F072FD0028F9D14FF4083002F04EFB37
:10C4FC004FF480510E4802F07BFC0B4A02219160F4
:10C50C0070BDA368042B0DD165B1A088E26805212C
:10C51C00A0F58063A16002F5806099B2BDE870401F
:10C52C00FFF7D2BE70BD00BFCC0500200038004024
:10C53C00000C014008B5184BD869804700282AD157
:10C54C00164B9A6812B90120986008BD99680229A7
:10C55C000AD1062212484FF480519A6002F04AFC2C
:10C56C00BDE80840FFF75CBF9A68032A13D19A888C
:10C57C00B2F5806F06D805219960D968BDE80840EE
:10C58C00FFF720BE04209860D8684FF48061BDE8A6
:10C59C000840FFF799BE08BDA8120020CC0500206A
:10C5AC00000C014010B50131002393420ED0040F52
:10C5BC00092C01D8303400E0373401F8014C013338
:10C5CC000024000101F8024BDBB2EEE710BD08B508
:10C5DC004FF000604FF4404102F004FA4FF4A060B9
:10C5EC00BDE8084002F0C0B910B5044645F25550FC
:10C5FC0002F04EFC062002F051FC42F21070844214
:10C60C0028BF044628216143C1F30F2002F04CFCE3
:10C61C0002F050FCBDE8104002F054BC082812D8BF
:10C62C00012907D10A4B0B4A53F8201032F810009D
:10C63C0008610AE049B9064B064A53F8201032F853
:10C64C001000486101E0FF2300E0002358B270475E
:10C65C00080000200015010837B50E4D044605EB07
:10C66C0080031869012102F047FC35F814000A4BCD
:10C67C001021ADF804008DF80710032253F82400A4
:10C68C0001A98DF8062002F05DFB20460021FFF782
:10C69C00C5FF3EBD001501080800002070B5012142
:10C6AC0088B04FF4006002F027FC314B42F210705E
:10C6BC001C686326B4FBF0F14A1E2E4C01A895B2FF
:10C6CC0002F0D0FD01A802F0CDFD01A9ADF8045097
:10C6DC0020460025ADF80860ADF80A50ADF80650BC
:10C6EC0002F078FC04A802F0C6FD01266023204667
:10C6FC0004A9ADF81030ADF81260ADF81650ADF8D5
:10C70C001850ADF81C5002F0AFFC2046082102F086
:10C71C00EBFD204604A902F0EBFC2046082102F0B8
:10C72C00EBFD204604A902F027FD2046082102F06B
:10C73C00EDFD204604A9ADF81050ADF81260ADF82F
:10C74C001650ADF8185002F059FD2046294602F05B
:10C75C00E5FD2046314602F0BBFD2046314602F095
:10C76C0094FD2046314602F09CFD08B070BD00BF20
:10C77C0074000020002C014073B50D4D84002B1962
:10C78C0006460121186B02F0B7FB05EB4605094B79
:10C79C00B5F8400018211C19ADF804008DF80710ED
:10C7AC000322206A01A98DF8062002F0CBFA7CBD89
:10C7BC00001501080800002028B1012807D1044BFE
:10C7CC0064221A8703E00249642088867047704708
:10C7DC00002C014028B1012806D1044B00221A87F5
:10C7EC0002E0024988867047704700BF002C014068
:10C7FC0040B101280DD1074B1A8F90B280F0640123
:10C80C00198706E0034B9A8E90B280F064019986EA
:10C81C0070477047002C014073B5104C0E4604EB6A
:10C82C00400494F84C10054694F8480002F016FBAE
:10C83C00B4F85040204602F0EFF90948002345199E
:10C84C0095F83010684600948DF804308DF805107A
:10C85C008DF8066002F0A4F97CBD00BF001501083C
:10C86C00080000202DE9F341234E8700F3190546FB
:10C87C00586D0C4640F00100012102F03DFB1F4BAE
:10C88C0006EB45065A1992F83210B6F85C0002AA6B
:10C89C00DF198DF8031022F8080D6946786B02F049
:10C8AC0051FA012C26D11021002215481B2702F029
:10C8BC0006FD4FF002088DF8047001A800278DF8D2
:10C8CC0005808DF806708DF8074002F057F8B6F821
:10C8DC00603001A88DF804308DF805808DF8064085
:10C8EC008DF8074002F04AF8064928464F55214674
:10C8FC00FFF792FFBDE8FC8100150108080000203D
:10C90C00002C01409C05002010B501214FF0C050B7
:10C91C0002F0FEFA012002F0DDFAFFF758FE0120CA
:10C92C00014602F0E9FA2448012102F065FA0024DC
:10C93C00E0B20134FFF790FE082CF9D1FFF7AEFE00
:10C94C000020FFF719FF0020FFF744FF0120FFF73D
:10C95C0013FF0120FFF73EFF00200121FFF782FFAC
:10C96C00164B4FF47A701A68154BB2FBF0F14A1E55
:10C97C001449F0205A6081F82300002207209A60A5
:10C98C001860CB68C3F30220011D0629C0F1070310
:10C99C0088BFC21E042B28BF0423012000FA03F118
:10C9AC004B1E03F0030000FA02F2064B1101C8B251
:10C9BC0083F8230010BD00BF000430007400002079
:10C9CC0010E000E000ED00E0054A064B02EB8001B0
:10C9DC0003EB4002486BB2F85C1002F003BA00BFE4
:10C9EC000800002000150108034B187810B1002234
:10C9FC001A700120704700BF9C05002030B508203C
:10CA0C0087B0012102F078FA224C01214FF48040CA
:10CA1C0002F07EFA18204FF4005301258DF8030024
:10CA2C0069462046ADF800308DF8025002F08AF9C4
:10CA3C004FF40041ADF800102046694602F082F92F
:10CA4C0004234FF4804220466946ADF800208DF84F
:10CA5C00033002F077F90020ADF804004FF4827136
:10CA6C00ADF80800ADF80A00ADF812000720ADF8DB
:10CA7C0006104FF400722023ADF8140001A90648EB
:10CA8C00ADF80C50ADF80E20ADF8103002F068FA8D
:10CA9C0007B030BD000C01400038004070B50446B2
:10CAAC0001208CB00E460146154602F019FA124BC5
:10CABC00002080224FF44051012C019302960590E6
:10CACC0006920790089009900A910B9006D103905A
:10CADC000A48049501F09EFF084807E04CB9102362
:10CAEC0007480393049501F095FF054801A902F04E
:10CAFC0009F80CB070BD00BF0C3800404400024077
:10CB0C005800024073B50F230124002501A88DF8AD
:10CB1C0004308DF805508DF80650174E8DF80740EF
:10CB2C0001F02CFFFFF76AFF20462A461349FFF756
:10CB3C00B5FF28462A461249124DFFF7AFFF304683
:10CB4C000221224602F009F828462146224602F02C
:10CB5C0032FA22462846022102F02DFA28462146B6
:10CB6C0002F01DFA2146084801F0ECFF3046214640
:10CB7C0001F0E8FF7CBD00BF58000240E009002036
:10CB8C00E0050020003800404400024010B5044687
:10CB9C002146044801F0D6FF03482146BDE8104069
:10CBAC0001F0D0BF440002405800024008B54FF4D9
:10CBBC000061024802F016F908BD00BF000C0140EC
:10CBCC0030B5092085B0012102F096F94FF40064CC
:10CBDC004823694614488DF80330ADF8004002F044
:10CBEC00B1F80B21012002F039F9204602F014F8BB
:10CBFC000C200294002501248DF80D0002A88DF85C
:10CC0C000C508DF80E4001F0CBFF282101A88DF8B7
:10CC1C0004108DF805508DF806408DF8074001F092
:10CC2C00ADFE05B030BD00BF000C01401FB5282380
:10CC3C00002401A88DF804308DF8074001F09EFE09
:10CC4C004FF40060029002A88DF80E4001F0A8FF8E
:10CC5C001FBD000020B105484FF4807102F0C8B828
:10CC6C0002484FF4807102F0C5B800BF000C0140BF
:10CC7C0037B5114C0820012102F03EF91020032396
:10CC8C004FF480558DF8070001A920468DF8063029
:10CC9C00ADF8045002F056F82046294602F0A8F8E8
:10CCAC004FF48071ADF80410204601A902F04AF847
:10CCBC000020FFF7CFFF3EBD000C014020B105481E
:10CCCC004FF4806102F096B802484FF4806102F094
:10CCDC008FB800BF000C014070B51D4A137B012BAF
:10CCEC0034D01069B0F5807F01D100211161136936
:10CCFC0092681748934202D10021017370BD8CBF1A
:10CD0C00C3F58072C3EB0202114C4261656999B2A2
:10CD1C00402D05D94033403D23616561402604E038
:10CD2C00E8180023AEB2206163610A4A012550184D
:10CD3C00C0213246257301F0BBFC2846314601F078
:10CD4C00C1FD2846BDE8704001F02ABD70BD00BF92
:10CD5C009C050020200E0020094B10B593E8140010
:10CD6C000833186810180AD008220649FFF71AFC75
:10CD7C00054920460422BDE81040FFF713BC10BD46
:10CD8C00E8F7FF1F8A0000209A000020BFF34F8FA6
:10CD9C00054A064BD16801F4E06040EA0301D1601A
:10CDAC00BFF34F8FFEE700BF00ED00E00400FA0573
:10CDBC000023036018467047002303601846704731
:10CDCC00002303601846704748F20203984217D0BC
:10CDDC0007DC99282DD0591E88422DD10122174BE2
:10CDEC0029E048F2100290421AD07032904223D1BE
:10CDFC00134B14490120187008700022124B1AE0D2
:10CE0C000E49124B124A002010700870187011490C
:10CE1C00114B124A0870187010700120FFF7DABC21
:10CE2C000A7D0A4B1AB901201870FFF7C5BC002205
:10CE3C0001E00B4B01221A70704700BF210F00203C
:10CE4C00500F0020440F0020B40500203C0F0020A0
:10CE5C002B0F0020360F0020350F00203D0F002037
:10CE6C00200F0020024B18601A68002AFCD1704772
:10CE7C00300F0020054B06481A88064902800B88A3
:10CE8C00054A438011888180704700BF004C000820
:10CE9C0048000020024C0008044C000810B501F0BA
:10CEAC00D7FE342001F0E8FE0F4801F02DFF0428D6
:10CEBC0019D10E4C0C48218801F00AFF042811D11D
:10CECC000B48618801F004FF04280AD10948A188A5
:10CEDC0001F0FEFE042803D1BDE8104001F0C4BEF1
:10CEEC00FEE7FEE7FEE7FEE7004C000848000020E6
:10CEFC00024C0008044C000838B5454B45491A68EB
:10CF0C00501C18600C6814B10B685A1E0A60424C15
:10CF1C00206810B12068421E05E04049087820B90D
:10CF2C00FFF766FC6422226006E03D4C607818B97D
:10CF3C00FFF742FC012363700020FFF755FD30B171
:10CF4C00384C4FF6FF756580FFF7A8FF1AE036499D
:10CF5C000B68B3F57A7F03D3086001F0ABFF02E0F6
:10CF6C000A68501C086031490B78A3B1304A10781C
:10CF7C0088B930490B785BB92F4847F22F530168B9
:10CF8C00994201D9FFF702FF0268511C016002E0CF
:10CF9C000A78022AF6D826480378002B37D0254C7D
:10CFAC00217811B10020207001E0234A1160234C3C
:10CFBC000123234923700A68C72A07D900250D606D
:10CFCC0000F0C8FBA84204DA257002E00868431C94
:10CFDC000B6012490A786AB11A4843F69721036824
:10CFEC008B4204D9002101601448017002E00268F0
:10CFFC00531C0360114A1378012B08D000F020FA5F
:10D00C000B48064A0B4B002101701170197038BD8A
:10D01C004C0F0020300F00202C0F0020350F00206B
:10D02C00B405002048000020240F0020210F002010
:10D03C002B0F00203D0F0020480F0020360F002042
:10D04C00400F0020380F00201FB50A224FF461500A
:10D05C004FF461613C230A4C8DE80F004FF6FF73CF
:10D06C002380FFF71BFF684601A902AA03AB02F05D
:10D07C0075FD4AF6AA202080FFF710FF1FBD00BFE8
:10D08C004800002038B52D4B00242D482D492E4A40
:10D09C001C702E4D2E4B04704FF6FF7058800C7088
:10D0AC0014702C70FFF7FAFE20462146224603F03E
:10D0BC00ADFCFF2003F0B6FD2C78012C05D16420CB
:10D0CC00FFF7D0FE02F0ACFAF6E7224803F012FEAE
:10D0DC00012003F0F3FD194901200A782AB9FFF762
:10D0EC0087FB6420FFF7BEFEF5E7FFF773FB10210B
:10D0FC000C2002F0F1FD184803F0B8F903F018FE0B
:10D10C0000200122014603F081FC03F005FC104BCA
:10D11C004BF6BB305880FFF7C1FE104900244FF48A
:10D12C007A700C70FFF79EFE204603F0ABFB48F2C2
:10D13C004420BDE8384003F08FBD00BF440F0020F1
:10D14C00500F00203C0F0020200F0020210F00204A
:10D15C00480000204E00002064150108280F002014
:10D16C0030B585B0FFF7D0FB7D2001F0DDFE20B19E
:10D17C00594B01221A7001F0EBFE40F6B830FFF764
:10D18C0033FAFFF777FE55488188B1F5404F04D04C
:10D19C004FF440448480FFF781FE4F4D2A78012ADA
:10D1AC0003D04F4B0BB1FEF7D3FFFFF761FD4D4C96
:10D1BC00FFF7A8FC4C4D4D484D494E4A4E4B009044
:10D1CC00019102944D494E48039503F047FB4FF4EF
:10D1DC007A70FFF747FE002003F054FB48F244201E
:10D1EC0003F03AFD3D4B4AF6AA2218881C469042A1
:10D1FC0001D0FFF729FF43490D783DB960884BF604
:10D20C00BB33984202D0404C012222703F4802F0BE
:10D21C0049FD3D490D7815B1FFF734FF15E0394D47
:10D22C00287890B13A4B1C787CB92146224620468E
:10D23C0003F0ECFB374A0821009201910320364998
:10D24C000422234603F07EFB2C70344D28780128F1
:10D25C0016D12F4B1C78012C12D1314A117801298F
:10D26C000ED103242F4804F085F8651E82B22D4997
:10D27C00012003F0BDFA15F0FF04F3D12748047028
:10D28C00234B1A787AB1284C257865B92749087848
:10D29C00431CDAB20A7000F0A3F8002801DA2570FA
:10D2AC0001E001252570204C21780029B1D02048BF
:10D2BC000378002BADD0084D2A78012A03D01D4CE1
:10D2CC000CB1FEF746FF29780129A2D01A48036851
:10D2DC00002B9ED098479CE7340F0020480000207C
:10D2EC005DC1000839CC000861CC0008B9CB00083E
:10D2FC00CDCB0008C5CD0008CDCD0008BDCD0008B4
:10D30C00D5CD0008B4050020280F0020290F0020DF
:10D31C003C0F00208618010881180108500F0020CE
:10D32C00210F0020510000202B0F00203D0F00206A
:10D33C00350F00205FC100087411002008B5064BA2
:10D34C004FF4A0449C80FFF7A9FD2820214601F052
:10D35C0053FBFFF71BFD00BF480000202DE9F041F7
:10D36C00C0B00F4680461646684600214FF48072C6
:10D37C001D4603F0FDFD4FB1384603F0FBFF04469C
:10D38C0039466846224603F045FD00E03C4666B14E
:10D39C00304603F0EFFF00AB02463146181903F09C
:10D3AC0039FD304603F0E6FF041965B1284603F059
:10D3BC00E1FF024600A80019294603F02BFD284680
:10D3CC0003F0D8FF04190A210DF8041040466946F1
:10D3DC00621C002303F002FA40B0BDE8F0810000AB
:10D3EC0010B502200121062203F068F8114C002828
:10D3FC0020601BDB104902220A801D222323CA70E5
:10D40C00EB228B704A713623F9220B71CA714F23B0
:10D41C0010228B7103F0A6F8002807DB002220688D
:10D42C0006491346BDE81040FFF798BF4FF0FF3098
:10D43C0010BD00BF580F00205C10002075150108AE
:10D44C0010B5044C206803F067F810B94FF0FF33A7
:10D45C00236010BD580F0020264BF7B51C682CB963
:10D46C00254821464FF4807203F082FD234F0121A1
:10D47C003868234D00F01F0201FA02F3460945F803
:10D48C002630204B4FF4FA72C4F1FF0600245A6088
:10D49C001C604018009329462246234603F08EF860
:10D4AC00A04202DC002E22DC1CE03868410955F851
:10D4BC00212000F01F0342FA03F1CB07F2D50D4DEA
:10D4CC000D4F2B683246F918234603F00FF900284C
:10D4DC000EDB2A680A2110182860384603F0DEFD9E
:10D4EC000028DFD00349002308680B6000E000200F
:10D4FC00FEBD00BFB80500205C0F0020580F0020B7
:10D50C00540F00206C10002010B518B930220A708E
:10D51C00012317E002460023002A05DD0A2401330B
:10D52C0092FBF4F2DBB2F7E7C91800280ADD0A24F3
:10D53C0090FBF4F204FB1200034C205C01F8010D8B
:10D54C001046F2E7184610BD580000201FB50B4BD3
:10D55C009BB10B48002404600A48AFF3008001A97A
:10D56C00FFF7D2FF04A90A18074B084902F80C4C24
:10D57C0018680A1D01ABFFF7F1FE1FBD000000008B
:10D58C007411002074100020580F0020861501081B
:10D59C000346A0F13000C0B2092817D9612B0CD07A
:10D5AC00622B0CD0632B0CD0642B0CD0652B0CD0C5
:10D5BC00662B14BF00200F2070470A2070470B20E9
:10D5CC0070470C2070470D2070470E2070470000EC
:10D5DC0070B54D4C032220464C4903F0FBFE02462D
:10D5EC0018B94B4B4B49186816E020464A4905229E
:10D5FC0003F0F0FE90B9494803780BB90121017092
:10D60C00474A48480023136002784149086812B120
:10D61C0045491A4672E0404913466FE0204643499B
:10D62C00062203F0D7FE10B9FFF788FE6AE0404DE2
:10D63C00204605F10B01062203F0CCFE064690B9FC
:10D64C00A0796874FFF7A4FF0121FEF7E7FF304AC9
:10D65C00034610681BB9374905F10B024EE03649F9
:10D66C0005F10B0219E0204605F11301052203F028
:10D67C00B1FE064698B960792876FFF789FF3146E6
:10D68C00FEF7CCFF2249034608681BB9294905F16E
:10D69C00130233E0284905F1130233462EE02046ED
:10D6AC002649092203F096FEF0B904F109000A217B
:10D6BC0003F0F4FC30B110F8011C0D2908BF01383F
:10D6CC000022027000214FF480721D4803F050FCC0
:10D6DC001C4803F04FFE1B490246194803F09AFB05
:10D6EC0019481A4B18600DE02046194903F054FDF7
:10D6FC0040B1074B1049186822460023BDE8704022
:10D70C00FFF72CBE002070BD5C0F002094150108A3
:10D71C00580F002098150108A8150108350F002096
:10D72C00380F0020340F0020AE150108B615010883
:10D73C005800002086150108BD1501088A1501083E
:10D74C0074100020650F002059D5000874110020BA
:10D75C00C315010808B5FFF77FFE002803DDBDE8FF
:10D76C000840FFF735BF08BD7047FEE7FEE7FEE750
:10D77C00FEE7704770477047FFF7BEBBFEF762BE0F
:10D78C007047000008B54FF4006001F04BFA28B167
:10D79C004FF4006001F056FAFEF7CCFE4FF48060B7
:10D7AC0001F040FAA0B14FF4806001F04BFA002078
:10D7BC000146FFF731F807480122B0F840306433D6
:10D7CC0099B2A0F840101021BDE8084001F077BDD7
:10D7DC0008BD00BF002C014008B50F48102101F016
:10D7EC00A7FDB8B10C48102101F0ADFD0A4810217D
:10D7FC00002201F064FD0020FFF7E6F8074B08B9A2
:10D80C00012200E00022002001211A70BDE808402E
:10D81C00FFF702B808BD00BF002C01409C0500209A
:10D82C0000F0E0B83A4B82B01A6842F00100186080
:10D83C005968384A0A405A60186820F0847121F4FB
:10D84C0080321A60186820F4802119605A684FF4ED
:10D85C001F0122F4FE000022586099600092019290
:10D86C00186840F480311960294B1A6802F40030B2
:10D87C00019000994A1C0092019818B90099B1F5D1
:10D88C00A06FF1D11B6813F4003218BF0122019272
:10D89C000198012805D0204B4FF000629A6002B02D
:10D8AC0070471E490B6843F010020A60086820F0AC
:10D8BC0003030B600A68A1F5805342F00200086074
:10D8CC00596859605A685A60586840F480615960C8
:10D8DC005A6822F47C105860596841F4E8125A6076
:10D8EC00186840F0807119601868094A8101FBD5ED
:10D8FC00536823F003015160506840F002035360F9
:10D90C00034A516801F00C000828F9D1C3E700BFA5
:10D91C00001002400000FFF800ED00E00020024083
:10D92C0038B514490B78012B23D1134A13680BB962
:10D93C000B7038BD114C402B206881B205D940309A
:10D94C00403B20601360402504E09DB2C3180020CA
:10D95C00236010600A4A5018C0212A4600F0A8FE25
:10D96C000120294600F0AEFF0120BDE8384000F050
:10D97C0017BF38BDA8050020B0050020AC0500205D
:10D98C00200E0020094908B50020094B012208800F
:10D99C0003201A7000F0C2FF064B0246188006489E
:10D9AC004FF48871BDE8084000F099BEA205002034
:10D9BC009E050020A0050020E00D0020074B1868F4
:10D9CC00052809D1064B1A68511C052A196003D188
:10D9DC0000201860FFF780B9704700BFC405002015
:10D9EC00BC05002038B5194B194A1968194D88B275
:10D9FC00108014882988214001F4007082B24AB149
:10DA0C004FF6FF541C60144B1D78691CC8B218707B
:10DA1C00FFF7D4FF0E4A0F4B14881D88254005F4E0
:10DA2C00004188B215461C4608B100F07BFD2A88DF
:10DA3C002388134003F4806188B230B1034B07494B
:10DA4C004FF6FF321A604868804738BD445C00408E
:10DA5C0078110020AC110020C0050020140100201A
:10DA6C00034B987A10B1034905220A60704700BF36
:10DA7C0088110020C4050020014B04221A60704755
:10DA8C00C4050020034B1A78202A01D100201870FD
:10DA9C00704700BFC105002070470000212810B559
:10DAAC0008D111480368197801F07F02212A11D09E
:10DABC00022010BD2028FBD10B4B19680A780B49AA
:10DACC0002F07F030A4A212B0CBF0B460023107077
:10DADC000BB9EDE7074B044C2068002483614482AA
:10DAEC0020469847204610BDA811002051DB0008A5
:10DAFC00C105002039DB0008074B19680A7802F0D1
:10DB0C007F03212B05D1022801D100207047222848
:10DB1C00FBD00220704700BFA811002009B10220E1
:10DB2C0070470128FBD808467047000020B9034B0A
:10DB3C00082219680A82704701487047A811002012
:10DB4C00DC00002020B9034B082219680A827047B8
:10DB5C0001487047A8110020DC000020054B196813
:10DB6C00CA78042A04D8044B03EBC20100F076BA3D
:10DB7C0000207047A8110020E4000020014900F0AB
:10DB8C006DBA00BF04010020014900F067BA00BF64
:10DB9C000C010020334A344BD179186810B500249D
:10DBAC0041728472C472204600F0ACFD20464FF4E2
:10DBBC00007100F0AFFD1021204600F0B7FD4021B0
:10DBCC00204600F053FE8021204600F03FFE204608
:10DBDC0000F008FE254B204693F8641000F080FE00
:10DBEC00204600F0EEFD0120214600F093FD0120BF
:10DBFC00C02100F02BFE0120202100F097FD012018
:10DC0C00214600F0B0FD02204FF4C06100F082FD0F
:10DC1C0002204FF4807100F019FE0220214600F022
:10DC2C00A2FD0220202100F081FD0320214600F0FE
:10DC3C0071FD03204FF4887100F018FE0320402181
:10DC4C0000F04EFE03204FF4405100F08CFD0320F9
:10DC5C00214600F06BFD204600F012FC044A012026
:10DC6C00106010BD21160108A8110020DC00002056
:10DC7C00C405002010B5FFF76FF8054B0024186899
:10DC8C00847200F009F800F05FFE02490C6010BDD0
:10DC9C00A8110020C405002008B50120FFF70EF8DC
:10DCAC00064B0749012200201A60186008600549DC
:10DCBC004FF4E0520A801A6008BD00BF405C00407F
:10DCCC00445C0040AC11002010B5064C18B9236818
:10DCDC0001221A8210BD044B18680168884720681D
:10DCEC000A3010BDA8110020A411002010B5064C5C
:10DCFC0018B9236801221A8210BD044B1868816878
:10DD0C00884720680C3010BDA8110020A4110020F9
:10DD1C0008B5234A18B9136802221A8208BD214B90
:10DD2C00002012681880117811F07F0113D1507AFD
:10DD3C0000F02002D1B209B102221A7000F04003A7
:10DD4C00D8B2184B18B11A7842F001011EE01978BC
:10DD5C0021F001011AE001291FD002291ED15079AE
:10DD6C0000F00F024FEA820110F0800F01F18040A9
:10DD7C0000F5B842116803D001F03002102A03E01C
:10DD8C0001F44050B0F5805F01D101211970064BB0
:10DD9C00186801698847034808BD184608BD00BFCC
:10DDAC00A81100207A110020A4110020F8B5224BF4
:10DDBC001C68238A267AABB9042E13D11F4801782C
:10DDCC0001291F490AD11F4C226894B21E4AA2187D
:10DDDC005200136030220A80037028E010260E8057
:10DDEC00072624E0A58AA169AB428CBF0226042633
:10DDFC009D4228BF1D46284688470746002000F054
:10DE0C0045FD2A460146384600F052FC29460020C2
:10DE1C0000F058FD208A638A421BED1808480B4B12
:10DE2C00228230214FF44052018065821A80024BCD
:10DE3C0018680672F8BD00BFA8110020C8050020A4
:10DE4C00B0110020505C004002300020AE110020C8
:10DE5C0010B50A4B0A4918684B78C27893420AD31A
:10DE6C00817841B9848834B9827206480268536853
:10DE7C009847204610BD022010BD00BFA8110020FD
:10DE8C0068010020A411002038B50E4A0E4C106811
:10DE9C0023688269D9785879904721688B7A7BB14D
:10DEAC0070B9087960B98D7855B9084A1168CB6892
:10DEBC00984720684279C178C2720173284638BDF0
:10DECC00022038BD80110020A8110020A4110020D0
:10DEDC0010B5324B1B68187810F07F0004D15A7AB9
:10DEEC0022F02001597210BD022855D15A88002AFF
:10DEFC0053D11979002950D15A7922F080004FEA78
:10DF0C00800404F1804101F5B8442168244C12F0DE
:10DF1C00800F247814BF01F0300101F44051A0426D
:10DF2C003AD2002938D09B7A002B35D0840002F0ED
:10DF3C00800204F18043D1B203F5B844226861B188
:10DF4C0002F03002102A21D1C4B2204600F06BFC42
:10DF5C002046302100F0EAFB18E002F44051B1F504
:10DF6C00805F13D128B90F4B93F82C1000F0B8FC3C
:10DF7C0001E000F046FC20684BF68F72024082F400
:10DF8C00405141F4004343F08000206006490B6887
:10DF9C0058698047002010BD022010BDA811002038
:10DFAC006801002014010020A411002010B51F4BA3
:10DFBC0019684A7922F080034FEA830000F180440B
:10DFCC0004F5B8401A4C0068247812F0800F14BF86
:10DFDC0000F0300000F44050A34224D24C8814BB13
:10DFEC0008B3897AF9B19B0003F1804102F08002F9
:10DFFC0001F5B843D0B2196828B148F6BF720A408F
:10E00C0082F0100004E04BF68F720A4082F48050CC
:10E01C0040F4004141F080001860064B1A68916989
:10E02C008847002010BD022010BD00BFA8110020A1
:10E03C0068010020A411002008B5064B1868064B97
:10E04C00427A42F0200141721868C2699047002060
:10E05C0008BD00BFA8110020A4110020054B1A68B0
:10E06C00538A18B98988CB1A138270470868C0186C
:10E07C00704700BFA811002008B50B4B002093F887
:10E08C002C1000F02DFC09480168087A082806D1EC
:10E09C00074B4FF480521A80064A10211180B0F1C0
:10E0AC0009035842584108BD14010020A811002052
:10E0BC00AE110020B011002070B52E4B1C68207AD8
:10E0CC0002284FD004284DD0032801D0052843D175
:10E0DC00A169208AA9B1A0B1A58A854228BF0546AD
:10E0EC0028468847228A0646608A531B2918618273
:10E0FC002382002000F0D8FB2A460146304600F06F
:10E10C00EEFA228A52B11C4B4FF44050188000207A
:10E11C00014600F0D7FB194A30211180208AA38ACE
:10E12C001449834202D80B68032202E018B10B6831
:10E13C0005221A720CE00A680623114913720A6848
:10E14C00104993B25A1853000C49186030200880BB
:10E15C00084801680B7A06E0072803D10A490A68C7
:10E16C00D36898470823034A10680372BDE87040CF
:10E17C00FFF782BFA8110020AE110020B0110020C3
:10E18C00505C00400230002080110020944B73B58D
:10E19C001A68944990B24418934E65002A68356801
:10E1AC002B7A092B15D090B2410001F1804404F573
:10E1BC00C04422782A7063786B70A08800F0BEFB94
:10E1CC0068802089356800F0B9FBA880A089316887
:10E1DC00C880854D01242B68DA881C725C78002A73
:10E1EC0064D1187810F07F0238D1092C02D1FFF7D6
:10E1FC002FFE45E0052C0FD193F90320002A01DAFC
:10E20C0008214FE099780029FAD198880028F7D195
:10E21C009B7A002B38D0F3E7032C10D1D878012847
:10E22C0007D0724A204611684B699847032829D1B8
:10E23C0037E09B88002BF4D1FFF7FEFE20E0012C89
:10E24C00EFD1D9780129ECD198880028E9D15B7AF3
:10E25C0003F02002D1B20029E3D00AE0012A04D154
:10E26C000B2CDED1FFF710FE0AE0022AD9D1012CCB
:10E27C0002D1FFF72DFE03E0032CD2D1FFF796FE5F
:10E28C0010B1CEE70028BBD15548594B026891B26A
:10E29C00C818584B4100002230200A601880062113
:10E2AC0000E00921504A10680172D3E0062C13D10A
:10E2BC001C7861067AD19A784C4B012A02D11C68E1
:10E2CC00E36969E0022A02D11868036A64E0032A50
:10E2DC006CD119684B6A5FE0002C3ED1598800293B
:10E2EC0064D1586820F47F42B2F5003F5ED11C78AF
:10E2FC0014F07F0004D19888002800F0AE8055E01F
:10E30C0001280CD1394A58791468A2699047002821
:10E31C004CD12B68997A002940F09F8046E0022866
:10E32C0044D15B7903F00F014FEA810202F1804482
:10E33C0004F5B840304C0268207813F0800F14BFFD
:10E34C0002F0300202F4405281422FD213F0700FCF
:10E35C002CD1002A40F0818028E0082C03D11978B8
:10E36C004A067CD022E00A2C20D1187800F07F01DC
:10E37C0001291BD19C7ACCB15988B9B95A6822F4BD
:10E38C007F40B0F5803F11D1184C587922689469C0
:10E39C00A047002865D009E043B113480024016868
:10E3AC0020464C828B61984720460AE00F4A0E4C5F
:10E3BC00116823680A6958789047032801D12368AB
:10E3CC0006E0094B4FF6FF711B681A8A8A4201D18D
:10E3DC00092103E0022800D082B90821197239E022
:10E3EC00505C004004300020A81100208011002057
:10E3FC0002300020B01100206801002093F90000C9
:10E40C00002821DAD98801910198824202D9019A17
:10E41C001A8211E08A420FD21349086890F82C1026
:10E42C008A4201D2002105E092FBF1F001FB10229F
:10E43C0012B901210D4801700B49086890F82C2085
:10E44C009A82FFF7B3FC05E003221A72084B4FF4D3
:10E45C0040511980FFF710FE7CBD064B9DE7064B23
:10E46C009BE7064B99E700BF80110020C8050020F0
:10E47C00AE1100201DDD0008D5DC0008F9DC000819
:10E48C0070B50D4B1C780023A34210D203F18052BF
:10E49C0002F5B855A90043F400420E6842F080051D
:10E4AC0040F60F7232402A430A600133ECE703490D
:10E4BC0040F08000086070BD680100204C5C00409A
:10E4CC0010B514490B680C461A7A022A01D0042A9A
:10E4DC0004D1FFF76BFC2168087A13E0062A10D1EF
:10E4EC005878052809D11978480606D1D878FFF74D
:10E4FC00C7FF094B1A68106A804708490B689A686D
:10E50C0090470820034B1A681072BDE81040FFF7C3
:10E51C00B3BD00BFA8110020A41100208011002061
:10E52C007047000037B50023ADF806305848594BFA
:10E53C00026891B21204198040F1A88018885649DB
:10E54C0000F00F020A70002A6ED1544C2568AAB252
:10E55C00534D2A802988534A01F0300010802988B5
:10E56C004BF6BF7201F44050288021680A4082F4B7
:10E57C00005080F0200141F4004242F08000206005
:10E58C001B8803F010018AB23AB9226848F60F7062
:10E59C0010402060FFF794FF1DE0206883B2ADF8B7
:10E5AC000630BDF8061001F4006290B238B1216853
:10E5BC0040F68F730B402360FFF7E8FD0BE0BDF8CE
:10E5CC00063019B20029B1DA226840F68F7010407B
:10E5DC002060FFF771FD21682A884BF6BF7302F4A7
:10E5EC0080500B4081B209B183F480532C4A1088BF
:10E5FC0000F400518AB20AB183F40053294801880F
:10E60C0001F0100291B209B183F01003008800F000
:10E61C00200291B209B183F0200343F400401F4A59
:10E62C0040F08001116031E0930003F1804000F56F
:10E63C00B843196888B2ADF80600BDF8061008B2E8
:10E64C00002809DA186840F68F7101401960164BE2
:10E65C00013A53F822008047BDF8061001F0800201
:10E66C0093B2002B3FF462AF0B480278910001F19A
:10E67C00804303F5B841086848F60F7303400B60FC
:10E68C000A49013A51F8220080474FE73EBD00BFCE
:10E69C00445C00407811002084110020005C004094
:10E6AC00AE110020B0110020A4000020C0000020FA
:10E6BC0030B501F1005101F54053013259005210AF
:10E6CC0000230230934209D010F8015C10F8024C80
:10E6DC0044EA052421F823400133F2E730BD01F16F
:10E6EC00005110B5013201F5405452106400002362
:10E6FC00934205D054F8231020F813100133F7E798
:10E70C0010BD00004FF6F873014A034013607047C8
:10E71C00505C0040800000F1804202F5B842106865
:10E72C0048F68F130340194311607047800000F1C5
:10E73C00804202F5B842106848F6BF73034001F0FE
:10E74C00100080B208B99BB201E083F0100301F015
:10E75C00200188B208B183F0200343F4004141F05A
:10E76C00800010607047800000F1804202F5B842D2
:10E77C0010684BF68F73034001F4805080B208B9D7
:10E78C009BB201E083F4805301F4005188B208B1CC
:10E79C0083F4005343F4004141F080001060704753
:10E7AC00800000F1804202F5B840016848F6BF7362
:10E7BC000B4083F0300242F4004141F080030360CF
:10E7CC007047800000F1804202F5B84001684BF6BA
:10E7DC008F730B4083F4405242F4004141F08003AC
:10E7EC0003607047800000F1804202F5B840016878
:10E7FC0040F60F630B4043F4004242F0800101608D
:10E80C007047800000F1804303F5B8400268510462
:10E81C0008D5016840F60F730B4043F4404242F0B8
:10E82C00800101607047800000F1804303F5B8431C
:10E83C001A68500608D5196840F60F70084040F465
:10E84C00004242F0C001196070470000064B4908B5
:10E85C001A6893B203EBC00000F1005202F540536A
:10E86C0058004A0002607047505C0040054B490854
:10E87C001A6893B2044A03EBC000831858004A008C
:10E88C0002607047505C004004300020054B196852
:10E89C008AB202EBC00000F1005303F540514A006C
:10E8AC0010887047505C0040044B1968044B8AB2C6
:10E8BC0002EBC000C1184A0010887047505C004041
:10E8CC0004300020044B1A6893B2044A03EBC000D6
:10E8DC008318580001607047505C004002300020E3
:10E8EC000C4B1A6893B20C4A03EBC00083185A0005
:10E8FC003E2908D94B09C90601D1581E83B2990289
:10E90C0041F4004104E04B08C80748BF01339902A9
:10E91C0011607047505C004006300020054B1968B0
:10E92C00054B8AB202EBC000C1184A00106883057F
:10E93C00980D7047505C004006300020C3B2000AAE
:10E94C0040EA032070470000044B00201860044A82
:10E95C00044B4FF40641118019607047445C004031
:10E96C00AC110020405C004040F0BF60024B40F412
:10E97C000031D960704700BF00ED00E0C37810B5DE
:10E98C0003B3164CE168CB43C3F302244178C4F1C2
:10E99C00040201FA02F10F2222FA04F284780378BD
:10E9AC0022400A43110103F16043CAB203F56141ED
:10E9BC0081F800230078012200F01F03410902FABC
:10E9CC0003F007E00078012200F01F03410902FA6E
:10E9DC0003F02031024B43F8210010BD00ED00E0A4
:10E9EC0000E100E021F0604121F07F02014B104377
:10E9FC009860704700ED00E0054A82B00023019357
:10EA0C000192019BC0180190019A116002B07047ED
:10EA1C00006C004002684FF6FE73134003602D4BF0
:10EA2C0000219842016041608160C16022D02A4976
:10EA3C00884229D0294B984230D02949884237D076
:10EA4C00284B98423ED0284B984206D153F8681C6C
:10EA5C0041F4700043F8680C70472449884206D191
:10EA6C0051F87C0C40F0706241F87C2C7047204BC4
:10EA7C00984206D153F8042C42F00F0143F8041CC1
:10EA8C0070471C49884206D151F8183C43F0F000FD
:10EA9C0041F8180C7047184B984206D153F82C2C9F
:10EAAC0042F4706143F82C1C70471449884206D11B
:10EABC0051F8403C43F4704041F8400C7047104B07
:10EACC00984205D153F8542C42F4702143F8541C4D
:10EADC00704700BF080002401C000240300002409A
:10EAEC0044000240580002406C000240800002408A
:10EAFC00080402401C04024030040240440402405A
:10EB0C005804024070B506688C680D6A26F4FF4202
:10EB1C0022F070060A6945EA04034C6913438A69BA
:10EB2C002343CC6913431C434B6A44EA03028B6AAC
:10EB3C001A4332430260CB680A68496843608260BA
:10EB4C00C16070BD19B1016841F0010303E00268B6
:10EB5C004FF6FE7313400360704703680AB1194304
:10EB6C0001E023EA010101607047406880B2704700
:10EB7C00C3004CBF034B044B196801420CBF00206F
:10EB8C00012070470004024000000240C2004CBF4C
:10EB9C00014B024B586070470004024000000240D9
:10EBAC00837910B5002B29D01A4B01681C68CA4315
:10EBBC0014401C605C6822405A60027902F1804467
:10EBCC0004F5823214682143116002689C68D143B9
:10EBDC000C409C60DC68407921401028D96006D13B
:10EBEC00986810439860D9680A43DA6010BD00F148
:10EBFC00804303F5823319680A4308E00179006801
:10EC0C0001F1804202F582331A6822EA00021A608E
:10EC1C0010BD00BF00040140014B5861704700BF9C
:10EC2C0000040140064B1A68596910EA010304D02C
:10EC3C0010420CBF0020012070471846704700BFDF
:10EC4C0000040140014B5861704700BF00040140B3
:10EC5C00034A044B02F188305A605860704700BF79
:10EC6C002301674500200240024B1A6942F08000E4
:10EC7C001861704700200240014BD860704700BFFC
:10EC8C0000200240084BDA68D20709D4D868400744
:10EC9C0008D4D96811F0100F0CBF04200320704762
:10ECAC0001207047022070470020024010B5044636
:10ECBC00FFF7E8FF012806D11CB1FFF7E3FF013C89
:10ECCC00F8E7052010BD002C08BF052010BD000082
:10ECDC0070B505464FF400500E46FFF7E7FF0428C9
:10ECEC000ED1084C236943F0010020612E804FF4B3
:10ECFC000050FFF7DBFF226941F6FE7111402161E4
:10ED0C0070BD00BF0020024038B505464FF43020DE
:10ED1C00FFF7CCFF042812D1094C236943F0020001
:10ED2C002061656121694FF4302041F0400222617D
:10ED3C00FFF7BCFF216941F6FD730B40236138BD21
:10ED4C0000200240CB78F0B5DA0648BF8A780988F3
:10ED5C0003F00F0548BF154311F0FF0F1ED00468D8
:10ED6C000022012707FA02F707EA0106BE4211D179
:10ED7C0097004FF00F0C0CFA07FC05FA07F724EA82
:10ED8C000C04282B44EA070401D1466102E0482B0D
:10ED9C0008BF06610132082AE3D10460FF2920D99B
:10EDAC004468002202F10806012707FA06F707EA71
:10EDBC000106BE4211D197004FF00F0C0CFA07FC64
:10EDCC0005FA07F724EA0C04282B44EA070401D1BE
:10EDDC00466102E0482B08BF06610132082AE1D1E6
:10EDEC004460F0BD836819420CBF002001207047BD
:10EDFC0001617047416170470028174B30B500F432
:10EE0C004014B4BFDB695B68B4F5401F82B207D114
:10EE1C00114C23F07063656825F0706565600FE038
:10EE2C00C40205D5C0F30344032505FA04F403E03A
:10EE3C00440D240102FA04F423EA040343F0706342
:10EE4C0021B1410D090102FA01F2134300280248D5
:10EE5C00B4BFC361436030BD0000014001F0030248
:10EE6C0030B592000F2404FA02F400FA02F0074BBA
:10EE7C008908023153F8215025EA040443F8214053
:10EE8C0053F82140044343F8214030BD00000140B9
:10EE9C00014B1860704700BF00300040014B5860B8
:10EEAC00704700BF00300040014B9860704700BFB6
:10EEBC0000300040024B4AF6AA221A60704700BF8D
:10EECC0000300040024B4CF6CC421A60704700BF39
:10EEDC0000300040014B1860704700BF20000E420C
:10EEEC00044B5A6909B1104301E022EA0000586151
:10EEFC00704700BF00100240044B9A6909B11043DF
:10EF0C0001E022EA00009861704700BF0010024047
:10EF1C00044BDA6909B1104301E022EA0000D86120
:10EF2C00704700BF001002404309012B074A01D172
:10EF3C00136803E0022B0CBF136A536A00F01F0026
:10EF4C0023FA00F101F00100704700BF00100240ED
:10EF5C00024B5A6A42F080705862704700100240AF
:10EF6C000B8810B54C88028823438C8802F44152DC
:10EF7C002343CC8823430C8923434C8923438C891A
:10EF8C002343CC89098A23431A4393B20380828B8F
:10EF9C0022F400631A04130C8383018210BD0388CE
:10EFAC0019B199B241F0400303E023F040010A0487
:10EFBC00130C0380704783889BB20AB1194301E09C
:10EFCC0023EA010181807047038919420CBF00209C
:10EFDC0001207047224A038890429BB212D002F55E
:10EFEC00006290420ED0B0F1804F0BD0A2F5983257
:10EFFC00904207D002F58062904203D002F5806205
:10F00C00904203D14A8823F070031343154A90426F
:10F01C0008D002F58062904204D023F44073CA8871
:10F02C009BB2134303808B880A8883850C4B028523
:10F03C0098420FD003F5006290420BD002F540636A
:10F04C00984207D003F58062904203D002F58063AA
:10F05C00984201D1097A018601228282704700BF51
:10F06C00002C014000100040038C70B523F001020D
:10F07C001404250C0584068C8388028B9CB222F028
:10F08C0073052B040D881A0C26F0020633042A4350
:10F09C004E880D891B0C3543ADB22B43134DA84242
:10F0AC000FD005F50065A8420BD005F54065A842C8
:10F0BC0007D005F58065A84203D005F58065A84208
:10F0CC000ED123F008064B898D881E4326F00403CD
:10F0DC002B43CE898D8924F440743543ADB22C4337
:10F0EC00C988848002838186038470BD002C014012
:10F0FC00038C30B523F010021404250C0584038C0A
:10F10C008288048B23F0200324F4E6452C040D881C
:10F11C00240C44EA05241D042B0C0D8992B243EAFD
:10F12C0005134D88A4B243EA0513124D9BB2A842B5
:10F13C0003D005F50065A84215D14D8923F0800355
:10F14C009BB243EA05134FF6BF751D408B8822F422
:10F15C00406245EA0315ABB28D8942EA8502CD893E
:10F16C0042EA850292B2C9888280048301870384B3
:10F17C0030BD00BF002C0140038C30B523F48072ED
:10F18C001404250C0584038C8288848B23F400736F
:10F19C0024F073052C040D88240C2C431D042B0C1B
:10F1AC000D8992B243EA05234D8843EA0523124D9B
:10F1BC009BB2A84203D005F50065A84215D14D8934
:10F1CC0023F400639BB243EA05234FF6FF351D4041
:10F1DC008B8822F4405245EA0325ABB28D8942EA72
:10F1EC000512CD8942EA051292B2C98882808483C5
:10F1FC008187038430BD00BF002C0140038C30B5E7
:10F20C0023F480521404250C0584038C8288858B8E
:10F21C0094B225F4E64215042A0C0D8823F400530D
:10F22C0042EA05221D042B0C0D8992B243EA0533E8
:10F23C004D8843EA05330A4D9BB2A84203D005F52D
:10F24C000065A84205D18D8924F4804444EA8514D4
:10F25C00A4B2C98884808283A0F84010038430BD96
:10F26C00002C014000214FF6FF7383800180C18088
:10F27C004180017270470023038043808380C380E8
:10F28C00038143818381C3817047038819B199B28B
:10F29C0041F0010303E023F001010A04130C038085
:10F2AC007047B0F8443029B16FEA43436FEA5341D9
:10F2BC008AB201E059044A0CA0F8442070478389B3
:10F2CC009BB20AB1194301E023EA01018181704725
:10F2DC00038819B199B241F0800303E023F0800157
:10F2EC000A04130C03807047038B23F008021304E9
:10F2FC001A0C114301837047038B23F4006213042F
:10F30C001A0C42EA01218BB203837047838B23F0E2
:10F31C00080213041A0C114381837047838B23F466
:10F32C00006213041A0C42EA01218BB283837047EA
:10F33C00038A828911EA030092B203D011420CBFF6
:10F34C00002001207047C9438AB2028270470170C5
:10F35C000B0A0A0C090E43708270C170043070479E
:10F36C000170090A41700230704743185A78405CAA
:10F37C0000EB022188B2704710B543189A78DC78FC
:10F38C00415C120402EB04625878521802EB002024
:10F39C0010BD000073B544790023022C01930FD0EB
:10F3AC00032C19D0012C2BD1164D28692E4620B1D7
:10F3BC00296901A888470246B8B9B16801201BE049
:10F3CC00104DE8682E4620B1E96801A8884702462E
:10F3DC0058B9B16802200FE00A4D6A692E464AB14D
:10F3EC006B6901A89847024620B1A9682046BDF870
:10F3FC00043003E0B16803200022134600F04AFBFE
:10F40C007CBD00BFA8120020072810B50CD801291C
:10F41C000AD8012404FA00F401FA00F0034B1A682C
:10F42C0022EA040202431A6010BD00BF6C010020E6
:10F43C00F0B5012187B00546FFF797FF00F4804334
:10F44C00044698B250B3B4F5824F27D12846052113
:10F45C00FFF78BFF0026074607353446BE4208D01F
:10F46C0028460221FFF781FF013624180435B6B275
:10F47C00F4E76A4B188E21188AB21A86D86B2418B6
:10F48C00DC63D96B9A6B914240F0C28093F84000D8
:10F49C00002800F0BD809B69992092E024F4FF4184
:10F4AC0021F07F0293B2002B00F08F8048F2100302
:10F4BC009C421ED00AD8B4F5004F40F2AB8048F203
:10F4CC000200844278D9811C8C420FE048F2800201
:10F4DC00944271D005D848F240039C4240F09A8087
:10F4EC0047E0B4F5024F67D0B4F5084F40F0928076
:10F4FC0062E00022A81841790DF802100132042AAA
:10F50C00F8D16B7AA87AE97A2A7B8DF804308DF8D9
:10F51C0005008DF806108DF8072005F10D0000236D
:10F52C0006A9CA18C15C0133042B02F8101CF7D1D0
:10F53C0005F11100002306AAD218C15C0133042B7B
:10F54C0002F80C1CF7D105F11500002300AAD21803
:10F55C00C15C0133042B1174F8D1304928798A69C4
:10F56C008DF81400002A53D08B6920466946152269
:10F57C0029E0053500212846FFF7FEFE0421009006
:10F58C002846FFF7F9FE082101902846FFF7F4FE04
:10F59C000C2102902846FFF7EFFE1021039028461D
:10F5AC00FFF7EAFE04901D488169002930D0836979
:10F5BC0069462046142206E0184B9A6942B39B69AF
:10F5CC00204600210A46984722E041F2030084427B
:10F5DC0005D00C30844202D0411E8C421AD16C1DD5
:10F5EC0004212046FFF7C8FE393013D12D790B4A80
:10F5FC0000212046D562FFF7BFFE042105462046B8
:10F60C00FFF7BAFE393003D128460121FFF7FCFE83
:10F61C00012000E0002007B0F0BD00BFA8120020C0
:10F62C0038B50A4C638898B208B9002038BD6068B8
:10F63C0001780429F9D1FFF7FBFE01280546F4D126
:10F64C0000226280FCF7A8FD284638BDA8120020D5
:10F65C002DE9F0470446884691460025BC4B5A8854
:10F66C0090B20028FAD05E683178042940F072819B
:10F67C0030460121FFF779FE05463046FFF7D8FEEC
:10F68C00002840F05C8141F20703771D9D4253D85E
:10F69C005A1E954280F0AC8040F20220854200F068
:10F6AC00A78014D80C2D09D8082D80F0A180002D2E
:10F6BC0000F04581062D40F29B80DDE00D2D00F021
:10F6CC00948040F20127BD4240F039818DE041F237
:10F6DC000202954218D8B5F5805F00F28980B5F525
:10F6EC00017F40F2828040F207218D4240F0278159
:10F6FC003379002104F8013B3846FFF73DFE014603
:10F70C002046FFF724FE1AE141F20400854200F086
:10F71C00898040F2A08038460021FFF72DFE04219D
:10F72C0020603846FFF728FE6060083406F10D07AC
:10F73C00224606F11D016EE041F21100854254D0C3
:10F74C002CD841F20B02954252D01CD841F209013F
:10F75C008D424DD000F28B8000213846FFF70CFE15
:10F76C00042120603846FFF707FE08216060384608
:10F77C00FFF702FE0C21A0603846FFF7FDFD04F1F7
:10F78C000C0AE060DAE041F20F00854263D035D814
:10F79C0041F20D02954240F0D28043E042F2060164
:10F7AC008D4222D008D8B5F5005F40F2C88042F2F5
:10F7BC0004039D4219D983E042F208039D42C0F034
:10F7CC00BE80581C854210D944F20B02954240F081
:10F7DC00B6807179DFF878A13846AAF8301001218B
:10F7EC00FFF7C3FDAAF83200A9E037792770A6E02D
:10F7FC0038460021FFF7C0FD2060A0E0002138460C
:10F80C00FFF7BAFDA2464AF8040B04213846FFF76D
:10F81C00B3FD606092E057F8043B8F4242F8043B22
:10F82C00F9D18CE000213846FFF7A6FD04212060B9
:10F83C003846FFF7A1FD082160603846FFF79CFDB4
:10F84C0004F1080AA060E46814F1390376D10121AF
:10F85C00FFF7DAFD72E000213846FFF78DFD042139
:10F86C0020603846FFF788FD6060083467E0337924
:10F87C0023713F68276062E038460021FFF77CFD6A
:10F88C00042120603846FFF777FD08216060384678
:10F89C00FFF76BFD0A21A0603846FFF766FDC4F840
:10F8AC000A000C3406F11107224606F1350157F80F
:10F8BC00043B8F4242F8043BF9D1388810803EE07B
:10F8CC000022B7187879A0540132042AF9D106F134
:10F8DC0009070023F95CE0180133042B0171F9D1FD
:10F8EC0006F10D070020395C221801300428117232
:10F8FC00F9D106F111070023F95CE2180133042B4E
:10F90C001173F9D106F115000022875CA1180132A0
:10F91C00042A0F74F9D106F119000023C75CE11811
:10F92C000133062B0F75F9D106F11F000021475C3E
:10F93C006218013120299776F9D100E05446044B26
:10F94C00188882B2954225D10021198022E000BF8F
:10F95C00A812002030460321B778FFF706FD824637
:10F96C00B8F1000F0CD00421701DFFF705FD034604
:10F97C00C9F8000006F115014046DAB201F04AFA66
:10F98C007A1DB1182046C7EB0A0201F043FA0F4961
:10F99C000020C8860D4F00237B80FCF7FDFB3078E0
:10F9AC00042805D1B5F5805F02D13046FFF7F2FC93
:10F9BC003A8891B200297FF451AE044BD88E80B2B4
:10F9CC0000287FF44BAEBDE8F08700BFA8120020E2
:10F9DC0007284FF0010308D803FA00F004490A681D
:10F9EC0010420CBF0020012070471846704700BF22
:10F9FC006C010020034B1880084600210A46FFF7D3
:10FA0C0027BE00BFA812002010B5034B0124DC86D2
:10FA1C00BDE81040FFF71CBEA812002038B5034605
:10FA2C00154601224A710C46881D1946FFF798FCB1
:10FA3C00291D05702046FCF76FFC002038BD38B539
:10FA4C00BDF814500C469B18A071E81885B2022121
:10FA5C006171E271294604F10800FFF781FC6A1D0F
:10FA6C00204691B2FCF758FC002038BD38B59B18E5
:10FA7C000C469DB202216171A071E271294604F11C
:10FA8C000800FFF76DFC6A1D204691B2BDE83840B6
:10FA9C00FCF742BC2DE9F0471D4605F1020A032391
:10FAAC0001F107091FFA8AFA88714B710C46484616
:10FABC0051461746FFF754FCB5F57A7F804613D8AC
:10FACC002946FFF74DFC29464046FFF749FC3946CD
:10FADC0004F10B002A4601F09DF9A91D204689B2BC
:10FAEC00BDE8F047FCF718BC4FF47A76B5FBF6F19D
:10FAFC000AEB410291B2FFF733FC31464046FFF767
:10FB0C002FFC394604F10B00324601F083F9A5F5C0
:10FB1C007A75204640F2EE31ADB2BF19FCF7FCFB12
:10FB2C00B5F57A7F05D9A5F57A7085B24FF47A765A
:10FB3C0001E02E460025A046394628F8056F4846B8
:10FB4C00324601F067F9B31C404699B2BF19FCF775
:10FB5C00E3FB002DE4D1BDE8F08700002DE9F34173
:10FB6C0006460C461E4831681546D0F808804A1ED9
:10FB7C001F46FF23122A8DF8073008F1090001D81F
:10FB8C001423336021684A1E122A01D814232360DF
:10FB9C0029684A1E122A01D814232B6039684A1E80
:10FBAC00122A01D814233B603168FFF7D0FB21687F
:10FBBC00FFF7CDFB2968FFF7CAFB3968FFF7C7FBD6
:10FBCC004146142242F20900FFF728FF42F20900D5
:10FBDC000DF10701FFF70EFF9DF90700BDE8FC8151
:10FBEC00A81200202DE9F341864614480D4686687C
:10FBFC0071461F4602ACFF2306F1090004F8013DD3
:10FC0C009046FFF7A4FB2946FFF7A1FB40F2012524
:10FC1C004146FFF79CFB0C2231462846FFF7FEFEBF
:10FC2C0028462146FFF7E6FE002138460A46FFF734
:10FC3C00EBFE9DF80700BDE8FC8100BFA812002078
:10FC4C002DE9F341864616480C468668714698465F
:10FC5C0002AD4FF0FF3306F10A0045F8043D17469C
:10FC6C00FFF775FB0C21FFF772FB2146FFF76FFBCB
:10FC7C003946FFF76CFB4146224606F11A0001F0AB
:10FC8C00C9F8902031461022A3B2FFF7EFFE40F2E4
:10FC9C0002202946FFF7AEFE0198BDE8FC8100BFAB
:10FCAC00A812002037B50B4B40F207250446996883
:10FCBC0000222846FFF7B2FE28466946FFF79AFE57
:10FCCC009DF803009DF80410207061709DF80000F1
:10FCDC003EBD00BFA812002037B50D4A03469568FB
:10FCEC000C4605F109001946FFF731FB214640F29D
:10FCFC000324FFF72CFB294608222046FFF78EFE33
:10FD0C0020460DF10601FFF775FEBDF806003EBD5D
:10FD1C00A81200202DE9F0430023CA5CC254013321
:10FD2C00102BFAD10022334B467B991891F80180A5
:10FD3C0004789F19F97A88EA0405847B85EA01081E
:10FD4C001D194178EF7A90F80CC04F40C17B80F8B8
:10FD5C0010805D1895F80B908578634489EA050549
:10FD6C0093F80B90C378477489EA030390F80490D6
:10FD7C00FFB288EA090890F80590857487EA0907AC
:10FD8C0090F80690EDB285EA090590F80790C374D7
:10FD9C00DBB283EA090390F8089080F814805FFACC
:10FDAC0088F888EA090890F809904775FFB287EA45
:10FDBC00090790F80A908575EDB285EA090590F867
:10FDCC000B90C375DBB283EA090388EA0C0C7E4006
:10FDDC006C405940013280F8188047768576C3769E
:10FDEC0080F81CC046778477C17710300A2A9AD1E4
:10FDFC00BDE8F0837616010810F0800F4FEA400042
:10FE0C0018BF80F01B00C0B2704700002DE9F04F06
:10FE1C00037891F8A0A004468AEA030A80F800A0AF
:10FE2C0091F8A1204078A77882EA0005657091F8D6
:10FE3C00A260E07886EA0703A37091F8A32097B03C
:10FE4C00059582EA0005E57091F8A4902679069351
:10FE5C0089EA060984F8049091F8A57063790795EE
:10FE6C0087EA0302627191F8A600A579E37980EA2A
:10FE7C000506A67191F8A7700C9287EA030B84F81B
:10FE8C0007B0227A91F8A880607A88EA020884F890
:10FE9C00088091F8A97008964740677291F8AA50AB
:10FEAC00A67AE07A85EA0603A37291F8AB20267B4A
:10FEBC0082EA0005E57291F8ACC009938CEA060C55
:10FECC0084F80CC091F8ADE0637BA27B8EEA030E44
:10FEDC0084F80DE00D9591F8AE50E07B5540A5737C
:10FEEC0091F8AF204B4B4240E2739A4491F890004A
:10FEFC009AF80B6199444640267091F8940099F851
:10FF0C000BA198448AEA0006267191F8980098F89B
:10FF1C000B919C4489EA000626729CF80BA191F87F
:10FF2C009C009E448AEA00062673DF199EF80B811A
:10FF3C0097F80BC191F8910091F89D6088EA00093F
:10FF4C008CEA060060730C9FDDF814A0DE1996F89D
:10FF5C000B0191F89970DDF8208080EA0706667233
:10FF6C0003EB0A0091F8956090F80B7184F80190FE
:10FF7C0087EA0600607103EB0800DDF818E090F8E2
:10FF8C000B91099803EB0E0703EB000E9EF80BC1C7
:10FF9C0091F8920091F89A6097F80B718CEA000A2C
:10FFAC0077405D1991F89E6084F802A091F8960054
:10FFBC0095F80B81A772079F88EA000589EA060667
:10FFCC00A673A571DE1996F80B0191F89F5003EBFF
:10FFDC000B0791F89360454097F80B019A1880EA4B
:10FFEC0006070D98E7701E1896F80B7191F897009C
:04FFFC004FF0090BAE
:020000040801F1
:1000000087EA0006E67191F89B3092F80B71E57370
:1000100087EA0300E0720D46CDF840B002E000BF71
:100020007616010894F80090A77887EA0900FFF790
:10003000E9FEFFF7E7FE94F80180E678824686EA5B
:100040000800FFF7DFFEFFF7DDFE8AEA070380EA1C
:10005000080227797040A6798AEA09015FFA80F8D8
:1000600086EA07005FFA82FB5FFA83FA5FFA81F99A
:1000700003970296FFF7C6FEFFF7C4FEE67967799D
:10008000014686EA07000491FFF7BCFEFFF7BAFEBF
:10009000039B049A94F808C082EA0301CBB2029948
:1000A00047404A40A17A7040C6B2059381EA0C00ED
:1000B000D3B20291CDF804C006930796FFF7A2FED3
:1000C000FFF7A0FE637AE67A024686EA030003930E
:1000D0000492FFF797FEFFF795FE049ADDF804C03F
:1000E000039B82EA0C015FFA81FC80EA0301CBB238
:1000F000029909934A40D3B2CDF820C00A9394F8EC
:100100000CC0A17B7040C6B281EA0C000291CDF810
:1001100004C00B96FFF776FEFFF774FE637BE67B69
:10012000024686EA030003930492FFF76BFEFFF793
:1001300069FEDDF804C0049A039B82EA0C015FFAB1
:1001400081FC80EA0301CBB2029970404A40C6B2FA
:1001500088EA0A018BEA09000D93D3B20E9302914B
:10016000CDF830C00F9681EA0006FFF74BFE89EA12
:10017000000286EA020C5FFA8CFC8AEA0B0084F823
:1001800000C0CDF804C0FFF73DFE8BEA000386EA0D
:10019000030B02995FFA8BFC84F801C00846CDF886
:1001A00044C0FFF72FFE8AEA000286EA020A5FFADD
:1001B0008AFB88EA090084F802B0CDF848B0FFF75E
:1001C00021FE88EA0000DDF818900599079A46405C
:1001D000FFB2F6B282EA090887EA0100E6701396D8
:1001E00088EA0006FFF70EFE059B584086EA0001EC
:1001F000CAB24846227178401492FFF703FE474086
:1002000086EA0703D8B2159060714046FFF7FAFD01
:1002100089EA0001059B86EA01020798D7B2584097
:10022000A7710697FFF7EEFD0799089A48404640E8
:10023000F6B20A9F0596E67109980B9E50407E40E3
:1002400086EA0007FFF7DEFDDDF820A08AEA00035A
:1002500087EA030C5FFA8CF884F8088009990A98F9
:100260004840FFF7CFFD099A504087EA000B5FFA3C
:100270008BF9304684F80990FFF7C4FD0A9E524678
:1002800086EA000387EA03010B985FFA81FB50407E
:1002900084F80AB0FFF7B6FDDDF82CA00E998AEAC3
:1002A00000000C9E47400F9B0D98FFB24B407040E2
:1002B000E77283EA000A0293FFF7A4FD0C9A0D9BF4
:1002C00050408AEA00060E98F6B226735840FFF7AF
:1002D00099FD0D99029B81EA00028AEA0200C1B2EF
:1002E000617318460391FFF78DFD0E9A0C9B5040E9
:1002F0008AEA00010F98CAB2A27358400492FFF72D
:1003000081FD0F99514B48408AEA000C5FFA8CFA44
:10031000DDF804C084F80FA003EB0C0295F8800010
:1003200092F80B11DDF850C081EA0002227003EB55
:100330000C0195F8840091F80B219E1982EA0001C6
:1003400003EB0802217195F8880092F80BC196F82A
:100350000B218CEA0001217295F88C00039E82EA41
:10036000000121739A1995F8811092F80B0103EBA3
:10037000090680EA010295F88D0096F80B11DDF868
:1003800044C081EA000615996673581890F80B610D
:1003900095F88910DF1986EA0100607203EB0C06FC
:1003A00095F8850096F80B116270129A81EA0006A2
:1003B00066719918DDF818C095F88A6091F80B01FC
:1003C00003EB0C0295F88E10704092F80B6103EB72
:1003D0000B02714092F80BC195F882608CEA06021C
:1003E000049EA2709A1992F80B6195F886205640E7
:1003F000A671A0721398A173191895F88F2091F81F
:100400000B61DDF814C0724003EB0C0695F8831005
:1004100096F80B0153444840E07095F8871097F820
:100420000B014840E07195F88B0093F80B11E273D3
:10043000109A81EA0003511E103D11F0FF00E37293
:1004400010907FF4EFAD17B0BDE8F08F761601087D
:1004500038B5054C05462046FFF762FC2846214684
:10046000BDE83840FFF7D8BCB21100200346102188
:100470000C200022FFF7BCBB034610210C200022F9
:10048000FFF7E4BB38B505460E4CE36A4BB100F00C
:10049000C1FCE36A03600020E06200F0BBFC00687E
:1004A00038BD2846FFF79AFA40B9228E91B200294A
:1004B000EAD0238E5A1E91B2218638BD4FF0FF300C
:1004C00038BD00BFA8120020F7B5034614480D46FA
:1004D00086681946174602AC4FF0FF3206F1090054
:1004E00044F8042DFEF739FF2946FEF736FF41F2A6
:1004F00001053946FEF731FF0C2231462846FFF749
:1005000093FA21462846FFF77BFA00F083FC019915
:10051000016008460021FEF77DFF0198FEBD00BF87
:10052000A8120020F7B5054610484FF0FF33876842
:1005300002AC294641F20B0607F1090044F8043DDC
:10054000FEF70BFF042239463046FFF76DFA2146CD
:100550003046FFF755FA00F05DFC0199016028462E
:100560000121FEF757FF0198FEBD00BFA812002031
:1005700037B5034613484FF0FF3284680D4604F147
:10058000090019460192FEF7E8FE0821FEF7E5FE94
:100590000821FEF7E2FE0023E95CC1540133082B79
:1005A000FAD11422214641F20700FFF73DFA01A9D2
:1005B00041F20700FFF724FA00F02CFC019A0260D8
:1005C00010463EBDA81200202DE9FF411D46314BCB
:1005D0008646D3F808800F4608F109007146164692
:1005E0000A9CFEF7BAFE1421FEF7B7FE1421FEF7AF
:1005F000B4FE1421FEF7B1FE1421FEF7AEFED4F1D5
:10060000010138BF0021FEF7A8FE0FB1396800E0F4
:100610003946FEF7A2FE0EB1316800E03146FEF722
:100620009CFE0DB1296800E02946FEF796FE74B1E4
:10063000216839B9636841F287329342DCBF41F2E5
:1006400088336360FEF789FE6168FEF786FE2C2220
:10065000414641F20800FFF7E7F941F20800694618
:10066000FFF7CEF9009B002B09DB0FB10198386032
:100670000EB1029A326045B10399296005E000F09D
:10068000C9FB00994FF0FF330160184604B0BDE884
:10069000F08100BFA81200202DE9FF419846154BBC
:1006A00007469D6814460E4605F109003946FEF7D7
:1006B00054FE2146FEF751FE4146FEF74EFEBDF8C0
:1006C00030400C2229462046FFF7AEF9204601A90A
:1006D000FFF796F90298002804DD30460A990B9A34
:1006E000FFF798F900F096FB02990160084604B004
:1006F000BDE8F081A81200201FB5002400940194E9
:1007000041F204040294FFF7C7FF04B010BD0000DB
:100710002DE9F04F89B0039114469B46139E149D1A
:100720000290FFF7AFFEDDF808C0002857D12D4B2F
:100730009A6B511C9963D3F80890812D09F10A0333
:1007400007D0832D0AD104F1080A09F122081827DD
:1007500004E009F11A08102706461290614618466F
:10076000FEF7FBFD391FFEF7F8FD2146FEF7F5FD0C
:100770005946FEF7F2FD832D05D15146FEF7EDFDFA
:100780000821FEF7EAFD0022A24205DA0398815C07
:1007900008F802100132F7E7002CA8BFA044832D0F
:1007A0000ED0129AB6B200920196E8B249463A4685
:1007B000A3B2FFF74AF9832D0BD141F20F000AE0F3
:1007C0000020B042EDDA12990B5C08F800300130DD
:1007D000F7E741F2030005A9FFF712F9204609B037
:1007E000BDE8F08FA81200201FB5002400940194EA
:1007F00081240294FFF78CFF04B010BD202A73B54A
:1008000003460E46144622D8124A1946956805F149
:100810000900FEF7A2FD0821FEF79FFD2146FEF725
:100820009CFD0022A24203DAB15C81540132F9E757
:1008300004F10C032946DAB241F21100FFF7F4F893
:1008400041F2110001A9FFF7DBF8019801E04FF038
:10085000FF307CBDA8120020024B01225A80586054
:10086000FEF7E4BEA812002010B5084CE16022613A
:100870006361029B0399E361049A059B21626262B2
:10088000A362A061012084F8400010BDA8120020DE
:1008900070B5214C054621480023A363E363238000
:1008A00023866386A386E386E36263806360A06039
:1008B0001B48FBF755FCE1698847A26A0646012000
:1008C000904706B3E16988470028FBD1124C0035F8
:1008D000A16818BF01254D7201224FF48040FFF737
:1008E000A3F800214FF48040FFF78AF8A1680022A6
:1008F00044F20B00FFF798F844F20B000021BDE82A
:100900007040FFF77DB8E36998470028FBD0E069A5
:1009100080470028FBD1D9E7A8120020E00500207D
:100920005908010838B5094C0020A36A98472546A4
:10093000E869064C80470028FAD0A16809B1002276
:10094000A260BDE83840FBF71FBC00BFA812002022
:100950002DE9F04F83462F4885B0D0F80890144613
:1009600000259A4688464FF0FF331C2109F1090003
:1009700001930F9E0E9F0295ADF80C50FEF7EDFC13
:100980002146FEF7EAFC5946FEF7E7FC04F11001A8
:10099000FEF7E3FC3146FEF7E0FC2946FEF7E6FCF5
:1009A000BAF1000F08D01AF8052042550135062D7E
:1009B000F9D10630002207E0534602AA995CC154DF
:1009C0000133062BF9D1F4E7A24204DA18F8021039
:1009D00081540132F8E7002CA8BF00193EB1002372
:1009E0002FB1B34203DAFA5CC2540133F9E71C3485
:1009F000A319DAB249460120FFF716F801A9012030
:100A0000FEF7FEFF00F006FA01990160084605B006
:100A1000BDE8F08FA8120020F7B503460F480E4638
:100A200085681946174602AC4FF0FF3205F1090000
:100A300044F8042DFEF791FC3146FEF78EFC394652
:100A4000FEF78BFC29460C220420FEF7EDFF042064
:100A50002146FEF7D5FF0198FEBD00BFA812002079
:100A60002DE9F04F8346714885B0D0F808900D46C7
:100A700014465946002209F109009A460E9F0F9E1E
:100A80000292ADF80C20FEF768FCBBF1030F00F2F8
:100A9000BE80DFE80BF0022F76761421FEF75DFCB6
:100AA0002146FEF75AFC0021FEF760FCBAF1000F68
:100AB00007D000221AF8021081540132062AF9D117
:100AC00006E0534602A95A5CC2540133062BF9D101
:100AD00006303946FEF741FC4FF00008A04506D02D
:100AE00015F8083000F8083008F10108F6E708F1B9
:100AF00018008AE02021FEF730FC2146FEF72DFC8D
:100B00000021FEF733FCBAF1000F07D000221AF8DB
:100B1000021081540132062AF9D106E0534602AA96
:100B2000995CC1540133062BF9D139460630FEF7E2
:100B300014FC04F10C01FEF710FC3146FEF70DFC2D
:100B40001099FEF70AFC0022A24203D0AF5C875442
:100B50000132F9E7001900220421129D8718AD180F
:100B60000023B34205D015F803E007F803E0013392
:100B7000F7E701391A44F0D104F1240C0CEB83009F
:100B800043E02821FEF7E9FB2146FEF7E6FB0021C2
:100B9000FEF7ECFBBAF1000F07D000221AF80210A2
:100BA00081540132062AF9D106E0534602A95A5C63
:100BB000C2540133062BF9D139460630FEF7CDFB7E
:100BC0003146FEF7CAFB1099FEF7C7FB1199FEF7F5
:100BD000C4FB04F10801FEF7C0FB1399FEF7BDFB4F
:100BE0000021A14203D06A5C42540131F9E70019A7
:100BF000002313998B4204D0129AD15CC154013363
:100C0000F7E704F12C0808EB03001FFA80F84946C7
:100C10005FFA88F20520FEF707FF052001A9FEF71D
:100C2000EFFE019805B0BDE8F08F00BFA8120020CC
:100C300037B50B4B01469D6802AC05F10900FEF784
:100C40008CFB4FF0FF3044F8040D294604220620A7
:100C5000FEF7EAFE06202146FEF7D2FE01983EBDD1
:100C6000A812002037B548F2080248F208010240F5
:100C70008A42034613490BD10020934281F8400079
:100C80001FD023F4004424F0080545F4004302E09B
:100C9000012081F840000B494FF0FF328D6802AC13
:100CA000194605F1090044F8042DFEF756FB2946C4
:100CB00004220820FEF7B8FE08202146FEF7A0FE19
:100CC00001983EBDA812002073B50C4B01469D68EB
:100CD0004FF0FF3602AC05F109000196FEF73DFB2F
:100CE00044F8046D294604220A20FEF79DFE0A20DE
:100CF0002146FEF785FE01987CBD00BFA8120020AA
:100D000007B50D4A4FF0FF330193916890B154231A
:100D10004370037083704B7242788A72807803222A
:100D2000C8720C20FEF780FE0C2001A9FEF768FEB9
:100D3000019800E018460EBDA81200202DE9F041F0
:100D4000314886B0FFF792FB0546002858D12F4E58
:100D50002A460D2043213346FEF74AFF0546002868
:100D60004ED13778284907F1030808EB06042046DE
:100D7000FFF76EFB3378F6187078102804D904F169
:100D800010002149FFF764FBE17F204A21B112F8EE
:100D900008301F2B04D101E012F80830013400E0C4
:100DA0002023107811188A78032A29D8DFE802F066
:100DB000020E191900200125009501900290039060
:100DC0000490059012493A46034616E001208DE84A
:100DD0000900002302930393049405930C493A46B7
:100DE0000BE0012018211E2202258DE8270008496A
:100DF0000593049403203A460023FFF731FE05468D
:100E0000284606B0BDE8F081EC12002064120020F4
:100E10006512002040F29853C2F200031868704730
:100E20000F2A2DE9F00340F2A18041EA00039B075D
:100E300040F09E800C68A2F1100504604B68AC463F
:100E400043608C68BCF10F0F8460CC68C5F300155B
:100E5000C46000F1100301F110042BD975B12568AD
:100E6000ACF1100C1D6065685D60A5689D60E5686B
:100E70001034DD601033BCF10F0F1BD9276804F16B
:100E800010061F60676803F110055F60A768ACF18A
:100E9000200C9F60E768DF6024691C61776806F1B9
:100EA00010046F60B7682033AF60F668BCF10F0FB5
:100EB000EE60E3D8A2F1100828F00F0302F00F044F
:100EC00003F1100C032C00EB0C0301EB0C0851D9BF
:100ED000211F4FEA9109444608EB890C54F8046B32
:100EE000C8EB0C010CF1040C1D46644545F8046B7D
:100EF000C1F3800112D029B154F8041B644545F8B0
:100F0000041B0BD0274657F8041B2E4646F8041B3B
:100F100064686C603C1D351D6445F3D109F1010C1A
:100F20004FEA8C0902F0030208EB09014B44D2B1ED
:100F30000D789A18DC4303F8015B1419934204F00E
:100F4000010410D02CB111F8014F03F8014B93426A
:100F500009D04D781C4604F8015B8D7802315D7034
:100F6000631C9342F5D1BDE8F00370470346DEE70A
:100F70000346DDE741462246D9E700BFF0B48407C7
:100F8000034600F08D80541E002A00F08780E5079C
:100F9000CEB211D41A4602F8016B134615469207D9
:100FA00010D0621E002C79D003F8016B14469A070A
:100FB0001D4607D0013CEDE7034603F8016B9A0795
:100FC0001D46F7D1032C52D9CEB246EA06270F2C84
:100FD00047EA07432DD9A4F1100217460F2FC2F399
:100FE00000162B606B60AB60EB6005F1100216D948
:100FF0003EB1103F136053609360D36010320F2FE7
:101000000DD9203F02F11006136053609360D36046
:10101000136153619361D36120320F2FF1D8A4F192
:10102000100222F00F0204F00F041032032C1544BA
:101030001DD9271F3E462A46032E42F8043BC7F31C
:1010400080070DD927B1043E032E42F8043B07D98F
:10105000174647F8043B083E53603A1D032EF7D865
:10106000231F23F00302131D04F00304ED18ACB199
:10107000C9B2EA432C1905F8011BA318A54203F0D5
:1010800001020BD01AB105F8011BA54206D02B4670
:1010900003F8011B69705D1CA542F8D1F0BC7047D4
:1010A000054614468EE700BFC9B2F0B400294BD004
:1010B00082070FD00278002A71D0914242D0431C9F
:1010C00005E013F8012B002A3BD091423AD09A0751
:1010D0001846F6D1036841EA0127A3F1013222EA5A
:1010E000030212F0803F47EA07471CD17B40A3F17F
:1010F000013222EA030313F0803F14D1021D02E003
:1011000014F0803F0FD1104652F8043BA3F1013692
:1011100087EA030426EA0303A4F1013513F0803FB4
:1011200025EA0404ECD00278002A38D0914209D094
:10113000431C01E0914205D0184613F8012B002A08
:10114000F8D11046F0BC704783070BD00278002A14
:10115000F8D0431C03E0017801330029F2D099074D
:101160001846F8D10168A1F1013323EA010212F017
:10117000803F0AD1031D184653F8041BA1F1013426
:1011800024EA010212F0803FF5D00378002BD9D079
:10119000421C1178104601320029FAD1D2E71046DC
:1011A000D0E700BF80EA010212F0030F40F03A805E
:1011B00010F0030220F0030021F0030150F804CBEB
:1011C00008BF51F8043B0DD082F003024FEAC2027F
:1011D0006FF07F4323FA02F251F8043B4CEA020C11
:1011E00043EA0203ACF101329C4501BF22EA0C0242
:1011F00012F0803F50F804CB51F8043BF2D04FEA94
:101200000C604FEA1C2C012828BFB0EB036F08BF0D
:101210001B0AF4D003F0FF034FEA1060A0EB0300B9
:10122000704700BF10F0030F0AD010F8012B11F81F
:10123000013B012A28BF9A42F4D0A2EB0300704779
:101240004DF8045D4DF8044D4FF0010242EA0222D0
:1012500042EA024201F0030C21F0030150F8044B72
:1012600051F8045BBCF1020F26D04BD824F07F4C20
:10127000BCEB152FA4EB020323EA04030DD113EA00
:10128000C21308BF51F8045B0AD18CEA040CBCEB12
:10129000056F0CD150F8044BE8E74FEA15255CE0E8
:1012A00033F07F4352D10D784FEA146C55E04FEA8A
:1012B000146C05F0FF0550E04FEA044CA4EB020368
:1012C0004FEA1C4C23EA0403BCEB154F17D113EA79
:1012D000C21308BF51F8045B07D18CEA040CBCEBC5
:1012E000054F08D150F8044BE6E71B042ED10D88BA
:1012F0004FEA144C31E04FEA05454FEA144C4FEAEF
:1013000015452AE004F0FF0CBCEB156FA4EB0203BB
:1013100023EA04030DD113EAC21308BF51F8045B9A
:101320000AD18CEA040CBCEB052F0AD150F8044B0F
:10133000E8E74FEA156510E014F0FF0F06D051F80A
:10134000045B4FEA142C25F07F4506E04FF00000C7
:101350005DF8044B5DF8045B70470CF0FF0205F08C
:10136000FF00012828BF904204BF4FEA1C2C2D0A21
:10137000F3D0A2EB00005DF8044B5DF8045B70470E
:1013800020F0030110F00300C0F1000051F8043B0D
:1013900000F1040C4FEACC0C6FF000021CBF22FAE3
:1013A0000CF213434FF0010C4CEA0C2C4CEA0C4CA1
:1013B000A3EB0C0222EA030212EACC1204BF51F89A
:1013C000043B0430F4D013F0FF0F1FBF013013F4BF
:1013D0007F4F013013F47F0F18BF0130704700BFFB
:1013E000F0B4002A00F0838041EA000313F0030503
:1013F0002ED0551E03780A78934226D1002D7AD03C
:10140000002B7AD001358C1C4D192B1BDB0716D510
:1014100010F8013F14F8012C934216D1CC1C73B97B
:1014200036E0AC4234D00134002B31D014F8012C1A
:1014300010F8013F0134934207D1002B28D010F857
:10144000013F14F8012C9342EBD0981AF0BC70477E
:10145000032ACED904680B689C42CAD1131F4CD012
:10146000A4F1013222EA040414F0803F43D15A0768
:101470002FD542684C6804300431A24239D1043B74
:1014800006D0A2F1013424EA020212F0803F20D0FB
:101490000020DBE772686468A2F10135A24225EA08
:1014A000020526D1043B00F1040001F10401EFD054
:1014B00015F0803FECD1DCF804207C68A2F1013506
:1014C000A24225EA020514D1043BE1D015F0803F89
:1014D000DED10C46064604310430032B84460F4609
:1014E000D8D85D1E002B85D133792279ADE710461F
:1014F000ACE75D1E7EE72846A8E71846A6E700BFD2
:101500008000400020001000080000800040002003
:1015100008000000080000000800000008000000AB
:1015200008000000040000000400000004000000A7
:1015300004000000040000000000000000000000A3
:101540000001000200000000000000000A0000008E
:10155000000400000400000000000000000400007F
:1015600028000000737061726B646576696365734F
:1015700032303133007365637265740043414C4C03
:101580004241434B20004F4B200055534552465596
:101590004E43200077686F00737061726B64656DF5
:1015A0006F64657669636500616C697665004957AB
:1015B0004447525354005550444154450046414914
:1015C0004C20000A003203530054004D0033003217
:1015D0000020005600690072007400750061006C04
:1015E00000200043004F004D00200050006F0072AB
:1015F000007400200020002603530054004D0069B1
:1016000000630072006F0065006C00650063007489
:101610000072006F006E006900630073000403092C
:101620000409024300020100C03209040000010263
:101630000201000524001001052401000104240218
:10164000020524060001070582030800FF090401C2
:1016500000020A00000007050302400000070581A0
:1016600002400000120100020200004083044057C3
:101670000002010203018D01020408102040801BBA
:1016800036637C777BF26B6FC53001672BFED7AB7F
:1016900076CA82C97DFA5947F0ADD4A2AF9CA47234
:1016A000C0B7FD9326363FF7CC34A5E5F171D831AC
:1016B0001504C723C31896059A071280E2EB27B2D8
:1016C0007509832C1A1B6E5AA0523BD6B329E32FFF
:1016D0008453D100ED20FCB15B6ACBBE394A4C5833
:1016E000CFD0EFAAFB434D338545F9027F503C9F95
:1016F000A851A3408F929D38F5BCB6DA2110FFF3B4
:10170000D2CD0C13EC5F974417C4A77E3D645D19DE
:101710007360814FDC222A908846EEB814DE5E0B9F
:10172000DBE0323A0A4906245CC2D3AC629195E40C
:1017300079E7C8376D8DD54EA96C56F4EA657AAE57
:1017400008BA78252E1CA6B4C6E8DD741F4BBD8BE5
:101750008A703EB5664803F60E613557B986C11DDD
:101760009EE1F8981169D98E949B1E87E9CE552881
:10177000DF8CA1890DBFE6426841992D0FB054BBA3
:101780001652096AD53036A538BF40A39E81F3D7DB
:10179000FB7CE339829B2FFF87348E4344C4DEE910
:1017A000CB547B9432A6C2233DEE4C950B42FAC338
:1017B0004E082EA16628D924B2765BA2496D8BD142
:1017C0002572F8F66486689816D4A45CCC5D65B67C
:1017D000926C704850FDEDB9DA5E154657A78D9DA5
:1017E0008490D8AB008CBCD30AF7E45805B8B34555
:1017F00006D02C1E8FCA3F0F02C1AFBD0301138A52
:101800006B3A9111414F67DCEA97F2CFCEF0B4E624
:101810007396AC7422E7AD3585E2F937E81C75DFC5
:101820006E47F11A711D29C5896FB7620EAA18BEDD
:101830001BFC563E4BC6D279209ADBC0FE78CD5AAF
:10184000F41FDDA8338807C731B11210592780EC87
:101850005F60517FA919B54A0D2DE57A9F93C99C08
:10186000EFA0E03B4DAE2AF5B0C8EBBB3C835399EB
:1018700061172B047EBA77D626E169146355210CD3
:101880007D737369640070617373776F72640000B5
:041890004300000011
:101894000300000000000000000C0140000C0140A7
:1018A400000C0140000C0140000C01400008014004
:1018B4000008014000080140000801400008014000
:1018C40000000000000000000C0048000008014077
:1018D4000000000080250000FFFFFFFFFFFF5454BD
:1018E40054434333303030003031323334353637BB
:1018F40038390048494748204420004C4F57204479
:101904002000000000A24A040000000000000000C3
:1019140001020304060708091A03530054004D008A
:10192400330032000000000000000000000000004E
:10193400000000002DE500082DE5000891D90008FD
:101944002DE500082DE500082DE500082DE500082B
:101954002DD900082DE500082DE500082DE5000827
:101964002DE500082DE500082DE5000800C2010062
:10197400000008001D16010804000000F715010806
:1019840026000000C5150108320000008800002070
:101994001A00000021160108430000006416010823
:1019A4001200000081DC0008A1DB000891DA0008C5
:1019B400A5DA0008A9DA000805DB000829DB00081D
:1019C40095DB000889DB000869DB000800000000E3
:1019D400400000002DE500086DDA00082DE5000840
:1019E4002DE500082DE500082DE500082DE500088B
:1019F4002DE5000885DA000804010000FFFF00005F
:101A0400000000005C040020C40400202C05002019
:101A140000000000000000000000000000000000C2
:101A240000000000000000000000000000000000B2
:101A340000000000901801080000000000000000F1
:101A44000000000000000000000000000000000092
:101A54000000000000000000000000000000000082
:101A64000000000000000000000000000000000072
:101A74000000000000000000000000000000000062
:101A84000000000000000000000000000000000052
:101A94000000000000000000000000000000000042
:101AA4000000000000000000010000000000000031
:101AB4000E33CDAB34126DE6ECDE05000B000000F6
:101AC4000000000000000000000000000000000012
