:020000040800F2
:1050000000500020718E0008E9840008ED8400083B
:10501000118500083585000859850008000000004A
:105020000000000000000000000000007D85000876
:105030007F85000800000000818500088385000846
:10504000C58E0008C58E0008C58E0008A58700081B
:10505000C58E0008C58E0008E1850008018600089D
:10506000218600085586000875860008C58E000850
:10507000C58E0008C58E0008C58E0008018800088E
:10508000C58E0008C58E000891850008C58E0008F1
:1050900005880008C58E0008C58E000895860008A2
:1050A000C58E0008C58E0008C58E00085D87000803
:1050B000C58E0008C58E0008C58E0008B1850008A1
:1050C000C1850008C58E0008C58E0008D18500087E
:1050D000C58E0008C58E0008A1850008C58E000891
:1050E000E5860008C1870008C58E000800000000A2
:1050F00000000000000000000000000000000000B0
:0C51000000000000000000005FF808F153
:1051100081F0004102E000BF83F0004330B54FEA68
:1051200041044FEA430594EA050F08BF90EA020FD5
:105130001FBF54EA000C55EA020C7FEA645C7FEA68
:10514000655C00F0E2804FEA5454D4EB5555B8BF8B
:105150006D420CDD2C4480EA020281EA030382EAFC
:10516000000083EA010180EA020281EA0303362D8E
:1051700088BF30BD11F0004F4FEA01314FF4801C61
:105180004CEA113102D0404261EB410113F0004F73
:105190004FEA03334CEA133302D0524263EB43032A
:1051A00094EA050F00F0A780A4F10104D5F1200EC8
:1051B0000DDB02FA0EFC22FA05F2801841F1000123
:1051C00003FA0EF2801843FA05F359410EE0A5F1F7
:1051D00020050EF1200E012A03FA0EFC28BF4CF028
:1051E000020C43FA05F3C01851EBE37101F00045DE
:1051F00007D54FF0000EDCF1000C7EEB00006EEBEB
:105200000101B1F5801F1BD3B1F5001F0CD3490874
:105210005FEA30004FEA3C0C04F101044FEA4452CB
:1052200012F5800F80F09A80BCF1004F08BF5FEA52
:10523000500C50F1000041EB045141EA050130BD32
:105240005FEA4C0C404141EB010111F4801FA4F1D5
:105250000104E9D191F0000F04BF01460020B1FA2A
:1052600081F308BF2033A3F10B03B3F120020CDA62
:105270000C3208DD02F1140CC2F10C0201FA0CF040
:1052800021FA02F10CE002F11402D8BFC2F1200CA5
:1052900001FA02F120FA0CFCDCBF41EA0C0190405B
:1052A000E41AA2BF01EB0451294330BD6FEA0404A4
:1052B0001F3C1CDA0C340EDC04F11404C4F120028F
:1052C00020FA04F001FA02F340EA030021FA04F3A1
:1052D00045EA030130BDC4F10C04C4F1200220FAF8
:1052E00002F001FA04F340EA0300294630BD21FA36
:1052F00004F0294630BD94F0000F83F4801306BFFC
:1053000081F480110134013D4EE77FEA645C18BFEF
:105310007FEA655C29D094EA050F08BF90EA020F86
:1053200005D054EA000C04BF1946104630BD91EA7E
:10533000030F1EBF0021002030BD5FEA545C05D181
:105340004000494128BF41F0004130BD14F58004C0
:105350003CBF01F5801130BD01F0004545F0FE4134
:1053600041F470014FF0000030BD7FEA645C1ABF69
:10537000194610467FEA655C1CBF0B46024650EAA0
:10538000013406BF52EA033591EA030F41F40021CC
:1053900030BD00BF90F0000F04BF0021704730B552
:1053A0004FF4806404F132044FF000054FF0000127
:1053B00050E700BF90F0000F04BF0021704730B5E8
:1053C0004FF4806404F1320410F0004548BF4042BD
:1053D0004FF000013EE700BF42004FEAE2014FEA12
:1053E00031014FEA02701FBF12F07F4393F07F4FED
:1053F00081F06051704792F0000F14BF93F07F4F1F
:10540000704730B54FF4607401F0004521F0004161
:1054100020E700BF50EA010208BF704730B54FF0E7
:1054200000050AE050EA010208BF704730B511F0EC
:10543000004502D5404261EB41014FF4806404F124
:1054400032045FEA915C3FF4DCAE4FF003025FEAA6
:10545000DC0C18BF03325FEADC0C18BF033202EB2E
:10546000DC02C2F1200300FA03FC20FA02F001FA88
:1054700003FE40EA0E0021FA02F11444C1E600BF27
:1054800070B54FF0FF0C4CF4E06C1CEA11541DBFDA
:105490001CEA135594EA0C0F95EA0C0F00F0DEF8A5
:1054A0002C4481EA030621EA4C5123EA4C5350EA8A
:1054B000013518BF52EA033541F4801143F48013DB
:1054C00038D0A0FB02CE4FF00005E1FB02E506F06C
:1054D0000042E0FB03E54FF00006E1FB03569CF0C1
:1054E000000F18BF4EF0010EA4F1FF04B6F5007FC7
:1054F00064F5407404D25FEA4E0E6D4146EB060639
:1055000042EAC62141EA55514FEAC52040EA5E50C1
:105510004FEACE2EB4F1FD0C88BFBCF5E06F1ED86B
:10552000BEF1004F08BF5FEA500E50F1000041EBA2
:10553000045170BD06F0004646EA010140EA02004F
:1055400081EA0301B4EB5C04C2BFD4EB0C0541EA71
:10555000045170BD41F480114FF0000E013C00F386
:10556000AB8014F1360FDEBF002001F0004170BDAA
:10557000C4F10004203C35DA0C341BDC04F11404C3
:10558000C4F1200500FA05F320FA04F001FA05F24F
:1055900040EA020001F0004221F0004110EBD3701C
:1055A00021FA04F642EB06015EEA430E08BF20EA48
:1055B000D37070BDC4F10C04C4F1200500FA04F3EB
:1055C00020FA05F001FA04F240EA020001F000417D
:1055D00010EBD37041F100015EEA430E08BF20EAF0
:1055E000D37070BDC4F1200500FA05F24EEA020E38
:1055F00020FA04F301FA05F243EA020321FA04F067
:1056000001F0004121FA04F220EA020000EBD3701D
:105610005EEA430E08BF20EAD37070BD94F0000F1D
:105620000FD101F00046400041EB010111F4801F51
:1056300008BF013CF7D041EA060195F0000F18BF02
:10564000704703F00046520043EB030313F4801F3E
:1056500008BF013DF7D043EA0603704794EA0C0FF8
:105660000CEA135518BF95EA0C0F0CD050EA41060E
:1056700018BF52EA4306D1D181EA030101F000418B
:105680004FF0000070BD50EA410606BF10461946B3
:1056900052EA430619D094EA0C0F02D150EA0136BF
:1056A00013D195EA0C0F05D152EA03361CBF104600
:1056B00019460AD181EA030101F0004141F0FE419F
:1056C00041F470014FF0000070BD41F0FE4141F423
:1056D000780170BD70B54FF0FF0C4CF4E06C1CEA23
:1056E00011541DBF1CEA135594EA0C0F95EA0C0FD8
:1056F00000F0A7F8A4EB050481EA030E52EA033593
:105700004FEA013100F088804FEA03334FF08055B3
:1057100045EA131343EA12634FEA022245EA1115E0
:1057200045EA10654FEA00260EF000419D4208BF91
:10573000964244F1FD0404F5407402D25B084FEA3E
:105740003202B61A65EB03055B084FEA32024FF4EA
:1057500080104FF4002CB6EB020E75EB030E22BF47
:10576000B61A754640EA0C005B084FEA3202B6EB07
:10577000020E75EB030E22BFB61A754640EA5C00B6
:105780005B084FEA3202B6EB020E75EB030E22BF46
:10579000B61A754640EA9C005B084FEA3202B6EB47
:1057A000020E75EB030E22BFB61A754640EADC0006
:1057B00055EA060E18D04FEA051545EA16754FEA68
:1057C00006164FEAC30343EA52734FEAC2025FEA86
:1057D0001C1CC0D111F4801F0BD141EA00014FF015
:1057E00000004FF0004CB6E711F4801F04BF0143E6
:1057F0000020B4F1FD0C88BFBCF5E06F3FF6AFAE02
:10580000B5EB030C04BFB6EB020C5FEA500C50F191
:10581000000041EB045170BD0EF0004E4EEA113114
:1058200014EB5C04C2BFD4EB0C0541EA045170BD1B
:1058300041F480114FF0000E013C90E645EA060E5F
:105840008DE60CEA135594EA0C0F08BF95EA0C0F8D
:105850003FF43BAF94EA0C0F0AD150EA01347FF4D5
:1058600034AF95EA0C0F7FF425AF104619462CE7AC
:1058700095EA0C0F06D152EA03353FF4FDAE10460F
:10588000194622E750EA410618BF52EA43067FF460
:10589000C5AE50EA41047FF40DAF52EA43057FF4F0
:1058A000EBAE12E74FF0FF3C06E000BF4FF0010CFB
:1058B00002E000BF4FF0010C4DF804CD4FEA410C5F
:1058C0007FEA6C5C4FEA430C18BF7FEA6C5C1BD02C
:1058D00001B050EA410C0CBF52EA430C91EA030FAD
:1058E00002BF90EA020F0020704710F1000F91EA0A
:1058F000030F58BF994208BF90422CBFD8176FEAD8
:10590000E37040F0010070474FEA410C7FEA6C5CA5
:1059100002D150EA013C07D14FEA430C7FEA6C5CAC
:10592000D6D152EA033CD3D05DF8040B704700BFD8
:105930008446104662468C461946634600E000BF26
:1059400001B5FFF7B7FF002848BF10F1000F01BDF8
:105950004DF808EDFFF7F4FF0CBF012000205DF8C3
:1059600008FB00BF4DF808EDFFF7EAFF34BF012048
:1059700000205DF808FB00BF4DF808EDFFF7E0FFE1
:1059800094BF012000205DF808FB00BF4DF808ED32
:10599000FFF7CEFF94BF012000205DF808FB00BF99
:1059A0004DF808EDFFF7C4FF34BF012000205DF87B
:1059B00008FB00BF4FEA410212F5001215D211D5C3
:1059C0006FF47873B3EB625212D94FEAC12343F0FC
:1059D000004343EA505311F0004F23FA02F018BF7E
:1059E000404270474FF00000704750EA013005D147
:1059F00011F0004008BF6FF0004070474FF000000A
:105A0000704700BF4BB942B9002908BF002802D037
:105A10004FF0FF31084600F03BB882B0EC462DE96C
:105A2000005000F01DF8DDF804E002B00CBC704737
:105A30002DE9F0411646984604460D4600F02AF836
:105A400006FB01FCA6FB002300FB08C7FB18A21AFB
:105A500065EB0303069CC4E90023BDE8F08100BFA9
:105A60002DE9F041904606460F461D4600F070F9BC
:105A700000FB05F3A0FB084508FB0138069B4544E5
:105A8000341B67EB0505C3E90045BDE8F08100BFA5
:105A9000704700BF00292DE9F00F1D46C0F29D8020
:105AA0000024002DC0F2948080460F4694461E4686
:105AB000E3BB8A4255D9B2FA82F747B1C7F1200554
:105AC00020FA05F601FA07F1BA40B8403143170C45
:105AD000B1FBF7F61FFA82FC07FB16110CFB06F56B
:105AE000030C43EA01439D4208D9711E9B1880F0C4
:105AF00013819D4240F21081023E9B18591BB1FB5D
:105B0000F7F507FB15130CFB05FC80B240EA0341D7
:105B10008C4507D96B1E8A1880F00081944540F2AD
:105B2000FD80023D45EA0641002503E08B420CD989
:105B3000002529460A462B4614B1524263EB430323
:105B400010461946BDE8F00F7047B3FA83F5002DF3
:105B500040F087808B4201D38242EAD800250121A0
:105B6000E8E712B90126B6FBF2F2B2FA82F6002E8D
:105B700039D18E1A130C1FFA82FC0125B6FBF3F7FC
:105B800003FB17610CFB07F84FEA104949EA01468D
:105B9000B04506D9791EB61802D2B04500F2D380BE
:105BA0000F46C8EB0606B6FBF3F103FB11630CFBD3
:105BB00001FC80B240EA03439C4506D94E1E9A1868
:105BC00002D2944500F2C280314641EA0741B1E772
:105BD000E443524263EB430366E7404261EB410119
:105BE0004FF0FF345DE7B240C6F1200921FA09F712
:105BF00020FA09F901FA06F1130CB7FBF3F81FFAC2
:105C000082FC03FB18770CFB08F549EA01094FEA0F
:105C1000194141EA0747B040BD420AD9BF1808F10F
:105C2000FF3680F08E80BD4240F28B80A8F10208E2
:105C3000BF18791BB1FBF3F503FB15170CFB05F639
:105C40001FFA89F949EA07418E4206D96F1E891861
:105C500071D28E426FD9023D89188E1B45EA0845E4
:105C60008CE7C5F1200122FA01F306FA05F627FABE
:105C700001F207FA05F720FA01F11E434FEA16492F
:105C8000B2FBF9F81FFA86FA09FB18220AFB08FB97
:105C90000F433B0C43EA024293450CFA05FC08D93A
:105CA000921908F1FF314AD2934548D9A8F1020868
:105CB0009219CBEB0203B3FBF9F109FB11320AFB9A
:105CC00001FABFB247EA02439A4506D94A1E9B1918
:105CD00033D29A4531D902399B1941EA08410F0C58
:105CE0001FFA8CF808FB07F68AB24FEA1C4C08FB37
:105CF00002F80CFB02620CFB07FC02EB1842964216
:105D000088BF0CF5803CCAEB03030CEB124C6345D7
:105D10000ED305D000250DE70E46EFE61D4601E740
:105D200000FA05F01FFA88F808EB0245A842F1D204
:105D300001390025FEE63D468FE71146CDE788464E
:105D4000B7E7B04675E7023FB6182AE702393CE7E5
:105D50002DE9F007144605460E46002B3DD18A4238
:105D600049D9B2FA82F747B1C7F1200120FA01F20E
:105D700006FA07F6BC40BD401643220CB6FBF2F013
:105D8000A1B202FB106601FB00F32F0C47EA0646A6
:105D9000B34208D9471E361980F0FA80B34240F268
:105DA000F78002383619F61AB6FBF2F302FB1362DB
:105DB00001FB03F1ADB245EA0242914207D95E1EF2
:105DC000121980F0E780914240F2E480023B43EAFE
:105DD00000400021BDE8F00770478B4243D8B3FA7A
:105DE00083F4002C42D18B4202D3824200F2E18044
:105DF00000210120EEE712B90127B7FBF2F4B4FA53
:105E000084F2002A40F089800A1B230CA7B20121EA
:105E1000B2FBF3F603FB162207FB06F04FEA154C24
:105E20004CEA0242904207D9121906F1FF3C02D215
:105E3000904200F2D0806646121AB2FBF3F003FBE8
:105E4000102307FB00F7ADB245EA03439F4207D991
:105E5000421E1B1980F0A0809F4240F29D800238B4
:105E600040EA0640B6E700210846B3E7C4F1200641
:105E700022FA06F703FA04F321FA06F501FA04F10F
:105E800020FA06F63B434FEA134CB5FBFCF71FFA2A
:105E900083F80CFB175508FB07F946EA010A4FEA9D
:105EA0001A4141EA0545A94502FA04F204D97E1EC9
:105EB000ED18C0F081803746C9EB0501B1FBFCF657
:105EC0000CFB161508FB06F81FFA8AFA4AEA054188
:105ED000884503D9751EC91874D32E4646EA07466D
:105EE000370C1FFA82FC0CFB07F5120CB3B20CFB4B
:105EF00003FC02FB035302FB07F203EB1C439D422E
:105F000088BF02F58032C8EB010102EB13429142D7
:105F10004CD343D0304600215CE79440C2F12005C9
:105F200021FA05F620FA05F501FA02F1230CB6FB79
:105F3000F3FCA7B203FB1C6607FB0CF829430D0C0E
:105F400045EA0646B04500FA02F508D936190CF1C3
:105F5000FF303ED2B0453CD9ACF1020C3619C8EB4B
:105F60000602B2FBF3F003FB102607FB00F889B230
:105F700041EA0642904506D9461E121927D290459D
:105F800025D902381219C8EB020240EA0C413FE75A
:105F9000384608E733461AE7104661E700FA04F08E
:105FA0001FFA8CFC0CEB03439842B3D2701E002105
:105FB00010E7214620460DE7A9457FF67CAF023F5A
:105FC000ED1879E7884588D9023EC91886E730463A
:105FD000D9E78446C3E7023E12192DE7014B03605F
:105FE000704700BF607F0108014B0360704700BF2E
:105FF000787F0108034B10B50446036000F034FCC1
:10600000204610BD607F0108034B10B504460360B5
:1060100000F02AFC204610BD787F010870B5094CBD
:1060200006460D462088012101F00EF8304601F0A9
:1060300055F82088002101F007F82846BDE8704097
:1060400001F04CB80000002010B50446002C05DD1E
:10605000C8206421FFF7E2FF013CF7E710BD000014
:1060600008B50220FFF7F0FF4FF41651054801F084
:106070004BFE4FF47A7001F031F80520BDE808407E
:10608000FFF7E2BF981B002037B50D4C00210D4DE6
:106090000B4600910A46204601F050F92A460A496B
:1060A000204608340CF0DEF9204601F03FFC074999
:1060B00020462A4603B0BDE830400CF0D3B900BFFB
:1060C000640B0020000F0020DD5F0008E95F00087E
:1060D00010B51B4C1B4904F10800502201F0F2FBE3
:1060E00000B31949194801F0A9F9194904F1080048
:1060F00001F0A4F9174904F1080001F09FF91649CD
:1061000004F1080001F09AF9144904F1080001F0C3
:1061100095F904F1080001F085F900F0DDFFC4F8FD
:10612000200210BD0E49094801F088F90D490748C1
:1061300001F084F904F10800BDE8104001F0ECBA68
:10614000640B00200400002080AA0108981B002096
:1061500091AA010863AB01087BAB010897AB01086A
:10616000A9AB0108BFAB01082DE9F0419448ADF59A
:10617000067D01F001FB00250646B54206AC05D0C0
:106180008F4801F096FA60550135F6E70023635514
:106190008C4D284601F046F9284601F043F98A491A
:1061A000284601F036F9284601F03CF920460DF06A
:1061B00017FC024628682146C368284698472846A7
:1061C00001F030F9284601F02DF9804A03AB106840
:1061D000516803C31189907A1980987003A92046E9
:1061E0000DF0D6FEE0B1051B03A80DF0F9FB471931
:1061F000E319DA7819790A2707FB0210744EA0F523
:10620000047303A8C6F824320DF0EAFB4219A4185F
:10621000A179E07907FB0107A7F50477C6F8287292
:106220006C4B9C8899791A68ADF8084006AC8DF8DB
:106230000A10204601A901920DF0AAFE002864D0A0
:10624000071B01A80DF0CCFBC51966193379F0784E
:106250004FF00A0808FB00325D4EA2F5047501A854
:10626000C6F82C520DF0BCFBC1196418E379A07973
:10627000D6F8244208FB0032A542A2F50473C6F802
:1062800030324FF03C0109DA6FF03B00444304F533
:10629000B46201FB0525C6F8345203E02D1B6943A7
:1062A000C6F83412D6F82822494C934206DAD4F8BC
:1062B000341219B94FF4B460C4F83402444C414864
:1062C000D4F834125B189A1AC4F8342201F0AAF8F0
:1062D0003C4801F0A7F840493A4801F09AF80A22F0
:1062E000D4F83412374801F000F93C49354801F040
:1062F00090F8344801F096F8324801F093F8D4F859
:106300003402132801DCFFF79FFE314C012084F892
:10631000380204F1080001F033FB40B194F8381260
:1063200029B104F1080001F027FA054610B3284C02
:1063300004F1080001F024FB10B994F8393243BB92
:10634000234C04F1080001F01BFB40B900F0C4FE2F
:10635000D4F8202242F21071801A884225D81C4CB1
:1063600004F1080001F00CFB84F839020DF5067DFC
:10637000BDE8F0811A49134801F060F84FF49670B7
:1063800000F0ACFE04F1080001F0C6F984F83852C0
:10639000CDE70C4801F046F812490A4801F04EF8E2
:1063A00004F1080001F0B8F9CAE7064801F03AF82C
:1063B0000D49044801F042F8FFF78AFECFE700BF1D
:1063C0006C0B0020981B0020D1AB01086AAC0108BF
:1063D000640B002075AC0108EFAB0108FFAB0108AE
:1063E00008AC0108BFAB01082FAC010810B50131A2
:1063F000002393420ED0040F092C01D8303400E062
:10640000373401F8014C01330024000101F8024B3C
:10641000DBB2EEE710BD000010B54FF000604FF4A6
:10642000A04106F06DF90124174B184821461C7055
:1064300006F084FB05F0FAF904F0D2FE2146402074
:1064400006F03AFC6FF07F4005F046F8E72005F0D3
:10645000BFF80F48047004F00BFF7D2006F050FCDD
:1064600018B10C490C7006F05FFC40F6B83004F02F
:1064700067FF05F0A3FC05F013FF074801F01CFEC1
:10648000064B01221A7010BD5C1C00200004300075
:10649000C51B00201C260020496C0008E01B0020C2
:1064A00010B501F09FFE104B187818B90F490A7803
:1064B000002AF6D00E4C2378002BF2D10D4801783B
:1064C0000029EED1094C2278012A01D00A4B2BB9C0
:1064D0000A490029E5D0FFF747FEE2E7FFF7C0FDD4
:1064E00001202070F4E700BFC31B0020A00D002096
:1064F000C41B00201C2600206160000869610008A0
:106500004D4B70B51A6812B11868411E19604B4C9A
:1065100025782DB14A4C2278E2B14A4828BB19E0CF
:10652000494C236813B12368581E12E0474A10787B
:1065300080B947490D786DB9464B1A7852B9464E25
:10654000464D3078B0B1E72005F0BCF8297879B134
:10655000142020603D4D2C785CBB204605F0B0F93E
:1065600040F6B73188421BD823E000F0B5FBF1E7D5
:106570000120EEE7297849B14FF6FF7004F0ACFF37
:106580000125E72005F024F83570E3E7E72005F062
:106590004DF8334B1A780AB13220DAE76420D8E795
:1065A000204605F095F92F490B787BB901222A7016
:1065B0000CE0002005F084F941F65733984205D9E4
:1065C000002005F085F9284801220270254801784D
:1065D000C1B91F4B1A78AAB1244847F22F5341681A
:1065E00099420CD9BFF34F8F214E2248F56805F42C
:1065F000E06444EA0002F260BFF34F8FFEE74268B6
:10660000511C41601C480368B3F57A7F0FD3002307
:10661000036006F0F1FA042006F08AF84FF6FF71E5
:10662000884208D00420BDE8704006F073B80268C4
:10663000511C016070BD70BD242600203C1C002050
:1066400034110020D96C000820260020C01B002037
:10665000C41B0020C61B0020C51B0020C31B00203C
:10666000C21B0020D91B0020CA1B0020A00D002047
:1066700000ED00E00400FA052826002008B5094BCB
:10668000186005F045FB002005F08AFB064804F081
:10669000CBFD05F053FB05F071FBBDE8084007F0AA
:1066A00027BA00BFE4010020A0860100074B18684C
:1066B000052808D106490A7A012A04D1887A0B7B79
:1066C000C11AC8B270470020704700BF7C1C002070
:1066D000A00D00200D4B10B51868052813D10C4CE7
:1066E000217A01290FD16289A389D01A012804D106
:1066F00000210320217207F066FBA389E218591CD0
:10670000907BA18110BD4FF0FF3010BD7C1C00209C
:10671000A00D002008B50C4B1968052912D10B4BB0
:106720001A6D991881F85400501CB0F5807F08BF8D
:106730000020186505F0BCF920B16420BDE80840D0
:1067400004F072BD08BD00BF7C1C0020A00D00201D
:1067500070B5234A92F85431012B3FD0D2F858013A
:10676000B0F5807F02D10021C2F85811D2F858311B
:10677000126D1B48934203D1002180F8541170BD63
:106780008CBFC3F58072C3EB0202154CC0F85C21CC
:10679000D4F85C5199B2402D07D94033403DC4F83C
:1067A0005831C4F85C51402606E0E8180023AEB228
:1067B000C4F85801C4F85C310A4A01255018C021B8
:1067C000324684F8545107F075FA2846314607F0EE
:1067D0007BFB2846BDE8704007F0E4BA70BD00BFFF
:1067E000A00D0020F40D0020094B10B593E8140013
:1067F0000833186810180AD008220649FFF7F6FD7A
:10680000054920460422BDE81040FFF7EFBD10BD4A
:10681000E8F7FF1F93010020A301002038B50D46C3
:106820000446AC4203D254F8043B9847F9E738BD1C
:1068300008B507480749FFF7F1FF07480749FFF781
:10684000EDFF07480749BDE80840FFF7E7BF00BF75
:1068500000B3010800B3010800B3010848B3010800
:1068600048B3010848B301080BF06CBF07B5064BED
:10687000052000936E21054A002305F03BFE07200A
:1068800005F088FEFEE700BF7CAC0108E07E010851
:1068900007B50B4A0B4913681818884210600CD9C9
:1068A000094A052000928B21084A002305F022FEA8
:1068B000082005F06FFE0BF00FFE18460EBD00BF5E
:1068C000180000200048002088AC0108F07E010874
:1068D0004FF0FF30704701207047FEE7014B18680A
:1068E000704700BF040F0020064B0246582000FBF3
:1068F000013101F1080303CB10605160186890600A
:10690000704700BF040F0020014BD3F864017047AB
:10691000040F0020064B0246142000FB013101F554
:10692000B67303CB1060516018689060704700BF69
:10693000040F00200E4B2DE9F041D3F8647180461E
:106940000024BC4211DA14256543094E41467019F2
:1069500000F5B6700C220DF073F820B97519D5F852
:106960006801BDE8F0810134EBE70020BDE8F0816B
:10697000040F00202DE9F04788B0814668460D4697
:1069800000F060FE1E4B0024D3F800A054452DDA21
:1069900055B3582666431A4F494607F1040808EBD9
:1069A000060004300C220DF04BF8E8B928460DF033
:1069B00017F806F11001402834BF0246402208EBC8
:1069C000010029460CF05AFABE19012286F8582017
:1069D000694604A8746800F057FE04A8A04704465E
:1069E00004A800F0EDFD03E00134CFE74FF0FF34E1
:1069F000684600F0E5FD204608B0BDE8F08700BF1E
:106A0000040F002038B50546064C28B104F006FEF8
:106A1000012384F8303238BD04F0AEFD84F83052E2
:106A200038BD00BF040F0020024B00221A6005F0A1
:106A300051BA00BFA40D0020034A0448002313707C
:106A4000036005F085BA00BFC41B0020A40D002020
:106A5000044B0549002001221A7008604FF4C02041
:106A600005F012BAC41B0020A40D002010B5064C7E
:106A7000206802F0A3FE2368013303D0411E484280
:106A8000484110BD012010BD1C000020F0B5274B6F
:106A90000646187887B00F46002843D124490A7863
:106AA000002A3FD1FFF7E2FF044600283AD1214DEA
:106AB0008DF80C002B688DF80D008DF80E008DF808
:106AC0000F0006A9580901EB800203F01F01012005
:106AD00000FA01F052F80C1C0494014342F80C1C1B
:106AE00004A841F288320592009003A9581C22465E
:106AF000234603F015FD002816DD2B6806A95D0965
:106B000001EB850050F80C5C03F01F0245FA02F51A
:106B100015F0010008D0184631463A46234603F0E6
:106B20009FFD01E04FF0FF3007B0F0BDD81B002003
:106B3000D91B00201C00002070B50B4B05461878AF
:106B40000C4670B909490A785AB9FFF78FFF034616
:106B500038B90748294600682246BDE8704003F06E
:106B6000FBBD4FF0FF3070BDD81B0020D91B0020AB
:106B70001C00002030B51E48ADF5797D07F014FAF1
:106B8000002832D11B4B1C481C4D04931C491D4A44
:106B90001D4B059009951D481D4D069107920A93BE
:106BA0001C491D4A1D4B0B900E951D481D4D1E4C3A
:106BB0000C910D921D491E4A0F931E4B1090139578
:106BC00015A85FAD119112921493089403900CAC28
:106BD000029505F003FA284605F006FA00940448E9
:106BE000154902AA04AB07F0E6F90DF5797D30BD31
:106BF00038110020396B00088D6A0008296A0008E6
:106C0000516A0008396A0008056A0008D97000084E
:106C100075690008DD680008E9680008096900086E
:106C200015690008F5BF000819C00008E96E0008E2
:106C30003569000809C00008E8F7FF1F014807F0A0
:106C4000CABF00BF3811002030B5022011228DB01C
:106C5000014603F0AFFB051E28DB154907A807F026
:106C6000BDFA022316200024ADF80C308DF80E007A
:106C70003321E0220123BB208DF811408DF80F1045
:106C80008DF810208DF812308DF813000324102297
:106C900003A90091019200231322284607A903F0BB
:106CA00065FD013CF3D1284603F0B2FB0DB030BDC9
:106CB000E8F7FF1F10B5074CFFF75CFF204607F011
:106CC00076F9204607F0D2FC0446FFF7BDFF2046C8
:106CD00010BD00BF3811002038B5114CD4F8445A0B
:106CE0002DB1D4F8441A4B1EC4F8443A38BDD4F838
:106CF000483A0C4A52F8230004F016FCE72004F04E
:106D000067FC094A6420D4F8481AC4F8440A506859
:106D10004B1C8342C4F8483AA8BFC4F8485A38BD4F
:106D2000040F0020047F01081C0000207FB5022012
:106D30000121062203F03EFB041E23DB0020082273
:106D4000022335218DF802004FF4FA50ADF80030DF
:106D50008DF803108DF804208DF805208DF806209D
:106D60008DF8072001F0A0F969460646102220465A
:106D700003F0AAFB0546304601F096F9204603F0E1
:106D800047FB01E04FF0FF35284604B070BD00001E
:106D900010B5064C2068002805DB03F039FB4FF0E6
:106DA000FF33236010BD002010BD00BF1C00002079
:106DB00030B5A7B0FFF7ECFF02200121062203F057
:106DC000F9FA334B0028186051DB324802221621B1
:106DD0003324A0F84C2A80F84E1A80F84F4A05A8B0
:106DE00005F0C8F89DF814300025009533B1012B4B
:106DF00017D0294B01A803F1100502E0069A009272
:106E000014E0024659681868083303C2AB421046C2
:106E1000F7D101A906AC0FC907C424F8023B1B0C2B
:106E200023700A24009D0DB9013C23D1009808B9B4
:106E30001A490091009D174B280A2A0C2C0E83F842
:106E4000520A4FF4FA5083F8504A83F8512A83F8D3
:106E5000535A01F029F90E490546102208681049D5
:106E600003F032FB0446284601F01EF90CE04FF017
:106E7000FF3409E07E2106A80CF072FE6A4681B25A
:106E800006A803F0EBFACDE7204627B030BD00BFDF
:106E90001C000020040F002094AC010804E5D0364B
:106EA000501900200F4B2DE9F041D3F86471804652
:106EB0000024BC4211DA142565430A4E414670197C
:106EC00000F5B6700C220CF0BBFD20B9751995F8D1
:106ED0007801BDE8F0810134EBE74FF0FF30BDE809
:106EE000F08100BF040F002008B5FFF7DBFF013879
:106EF000082803D8024B1918087F08BD022008BDD6
:106F0000047F010803F0E0BA13B5094C00210B46D9
:106F100000910A46204600F011FA20460549064A2B
:106F20000BF0A0FA054802B0BDE8104007F02CB8FD
:106F300060190020DD5F0008000F002038110020DC
:106F400014282DE9F34104460E4675D8FF2973D065
:106F500000F0FEFA28B10D2C6ED00F2C6CD00E2C48
:106F60006AD000F07FF908B1012C65D900F064FE09
:106F700018B1A4F11203012B5ED9304D20012F5816
:106F80002F492A188F42B2F8048001D1042003E06F
:106F90002C4B9F4203D10820012105F099FEADF84A
:106FA0000480062E44D8DFE806F00411181F2631AD
:106FB0003C00224A102302EB041403200021A17399
:106FC0008DF807308DF80600083431E004218DF883
:106FD000071005EB0414012229E048228DF8072050
:106FE00005EB0414022222E028208DF8070005EBAF
:106FF000041403221BE0114B182203218DF80720F3
:107000008DF8061003EB0414042210E00B481C2139
:1070100003238DF807108DF8063000EB04140522C9
:1070200005E000208DF8070005EB04140622A2738A
:10703000384601A905F028FDBDE8FC8124000020A8
:1070400000080140000C0140142870B504460E46AB
:107050003ED8204B03EB0010817B012938D0022958
:1070600036D0032934D0062932D0FF2930D000F0A1
:107070006FFA30B10D2C2BD00F2C29D00E2C00D153
:1070800070BD00F0EFF810B1012C00D870BD00F019
:10709000D3FD20B1A4F11202012A00D870BD0D4D1C
:1070A00005EB0413987B042803D120460021FFF749
:1070B00047FF012E05D124012819295983880B6126
:1070C00070BD2EB9240129192B598A885A6170BDC7
:1070D00070BD00BF2400002004F0D8BF1FB50446D7
:1070E0004FF47A73164800930268A118016004F007
:1070F000CDFF019004F0CAFF02900298019BC21AD2
:1071000003920399002903DA0198029B1A1803924B
:107110000399A14213D20398009B984204D2084AD3
:107120001168B1F57A7FE5D3039800F57A7300937F
:1071300001F058F8034A11780029F9D1DAE71FBDA8
:10714000D41B0020C41B002013B5084C0021009163
:107150000A460B46204600F0F1F80549054A20464C
:1071600002B0BDE810400BF07DB900BF94190020BB
:10717000DD5F0008000F0020024B18785978401A94
:10718000704700BF9C190020064B5A78197891422D
:1071900004D99818013280785A7070474FF0FF3048
:1071A000704700BF9C190020054B5A78197891420E
:1071B00002D99818807870474FF0FF30704700BFB1
:1071C0009C19002070470000014B0360704700BF0E
:1071D000787F0108034B10B504460360FFF744FBBA
:1071E000204610BD787F0108F8B5094B054693F895
:1071F0002200164650B10C468F18BC4206D02968B2
:1072000028468A6814F8011B9047F6E73046F8BD17
:107210009C19002010B50C4B012293F822408CB130
:1072200093F823401F2C02D94260002010BD93F830
:1072300024001C1884F82510411CC8B283F82400CF
:1072400083F82300104610BD9C19002000224260E4
:10725000024A4FF47A71816002607047387F0108FA
:1072600070477047014B93F8590070479C190020F4
:1072700073B50E4C002104F164050D4E0B460091D0
:107280000A46284600F05AF86C3432460949284626
:107290000BF0E8F82046FFF7D9FF074920463246B1
:1072A00002B0BDE870400BF0DDB800BF9C190020B3
:1072B000000F0020DD5F0008C971000808B5034B0E
:1072C00053F8200000B1804708BD00BF181A002005
:1072D00013B5084C002100910A460B46204600F0E9
:1072E0002DF80549054A204602B0BDE810400BF0D4
:1072F000B9B800BF581A0020DD5F0008000F002059
:107300002DE9F041002407460E4625463B19197920
:107310000A22304600F0C9F82E218046304600F09F
:107320007CF801344044032C0544EFD13046F97910
:107330000A2200F0BAF82818BDE8F08130B5837150
:10734000044D9DF80C300446056001714271C37113
:1073500030BD00BF607F010805480021054B017169
:1073600041718171C171044A044903600BF07AB81C
:10737000601A0020607F0108000F0020DD5F000818
:1073800013B5084C002100910A460B462046FFF732
:10739000D5FF0549054A204602B0BDE810400BF074
:1073A00061B800BF681A0020DD5F0008000F0020F0
:1073B000014B0360704700BF787F0108F8B50646AF
:1073C0000C468F180025BC4207D0336830469A68B7
:1073D00014F8011B90472D18F5E72846F8BD00006A
:1073E000034B10B504460360FFF73EFA204610BD7C
:1073F000787F010838B505460C46084641B10CF0C7
:10740000EFFA2B680246DB6828462146984738BDCC
:1074100038BD08B5FFF7EEFF08BD08B503689A68E8
:10742000904708BD38B50D210546FFF7F6FF0A2144
:1074300004462846FFF7F1FF001938BD38B5044669
:10744000FFF7D8FF05462046FFF7ECFF281838BDA8
:1074500070B500238AB08DF82430012A98BF0A2223
:107460000DF12303B1FBF2F505FB1211CCB2092C8F
:107470001E4601D8303400E03734E4B203F8014945
:107480002946002DEED13146FFF7B4FF0AB070BD9A
:1074900010B5044622B90268C9B29268904710BD7F
:1074A000D2B2BDE81040FFF7D3BFFFF7F1BFF8B588
:1074B00006460D46144622B90368C9B29A68904739
:1074C000F8BD0A2A0CD100290BDA2D21FFF7A5FF00
:1074D0006942074622463046FFF7BAFFC019F8BD99
:1074E000D2B2BDE8F840FFF7B3BFFFF7E0BF00003E
:1074F00013B5084C002100910A460B462046FFF7C1
:107500001DFF0549054A204602B0BDE810400AF0BB
:10751000A9BF00BF741A0020DD5F0008000F002023
:1075200013B5084C002100910A460B462046FFF790
:1075300005FF0549054A204602B0BDE810400AF0A3
:1075400091BF00BF7C1A0020DD5F0008000F002003
:10755000014B587D704700BF841A0020704700001F
:1075600013B5084C002100910A460B462046FFF750
:10757000E5FE0549054A204602B0BDE810400AF084
:1075800071BF00BF9C1A0020DD5F0008000F0020C3
:1075900013B5084C002100910A460B462046FFF720
:1075A000CDFE0549054A204602B0BDE810400AF06C
:1075B00059BF00BFA81A0020DD5F0008000F00209F
:1075C00010B5044600680BF0BDF8204610BD10B59C
:1075D0000446006808B10BF0B5F800232360A360EF
:1075E000636010BD38B504460D46006801310BF0EC
:1075F00089FE10B184E82100012038BD036810B570
:10760000044613B14068884207D22046FFF7EAFFDC
:1076100020B1A16809B922681170012010BD70B5B0
:107620000E46114604461546FFF7E8FF18B92046F6
:10763000FFF7CDFF04E0A560206831460CF072F939
:10764000204670BD38B50023044603604360836064
:1076500003730D4639B108460CF0C2F929460246BB
:107660002046FFF7DCFF204638BD884210B50B46A8
:10767000044607D0096819B19A68FFF7D0FF01E006
:10768000FFF7A5FF204610BD002310B50446036098
:10769000436083600373FFF7E8FF204610BD13B516
:1076A000026802AB03F8011DD46819460122A04705
:1076B0001CBDB0F81622B0F8143210B59A42044638
:1076C00007D0B4F81432E018591C007DA4F8141245
:1076D00010BD01680A6990470028F2D14FF0FF30D1
:1076E00010BDB0F81622B0F8143210B59A42044614
:1076F00004D0B4F814022418207D10BD01680A6972
:1077000090470028F5D14FF0FF3010BD0023A0F8BE
:107710001432A0F81632704710B5044600690828E4
:1077200001D002F075FE0823236110BDF8B517469D
:10773000B0F81432B0F8162204469A420E4606D12A
:1077400001680D69A84710B94FF0FF3512E0B4F891
:107750001402B4F816222118151ABD4228BF3D465E
:10776000143130462A460BF089FBB4F81432E9187C
:10777000A4F814122846F8BD30B5B0F8163287B018
:10778000044633B1B0F814229A4202D10168CB69A1
:10779000984700F07DFC60B32069082829D0B4F830
:1077A0001622B2F5007F24D2410906AB03EB810318
:1077B00000F01F02012101FA02F100258DF80C50A2
:1077C0008DF80D508DF80E508DF80F5053F80C2C8D
:1077D00001300A4343F80C2C04A941F28833059385
:1077E00000912A4603A92B46049502F099FEA8426F
:1077F00006DCB4F81612B4F81432C81A07B030BD5B
:10780000206906AB420903EB820151F80C2C00F011
:107810001F0342FA03F1CB07EBD5B4F81632E11897
:107820001431C3F500722B4602F01AFF0028E0DD88
:10783000B4F816220AB9A4F814221018A4F81602F3
:10784000D7E77FB504460D46164600F021FC002818
:1078500036D002200121062202F0ACFD0028206172
:107860002BDB23682046D9698847320A6B79A979CE
:1078700002208DF803602E79ED79ADF800004FF409
:10788000FA508DF805308DF802208DF804608DF8DF
:1078900006108DF8075000F007FC102205466946D7
:1078A0002069FFF72FFB0646284600F0FDFB002E5F
:1078B00005DA2068C26A20469047002000E00120D7
:1078C00004B070BD2DE9F04188B005460E469046E3
:1078D00000F0DEFB002718B308AC304644F8147DF6
:1078E0000CF07EF8224681B2304602F0B7FDB84275
:1078F00015DD039B04A8DAB2190E0092C3F3074208
:10790000C3F30723FFF71AFD28680749059B046A9C
:1079100006910793284606A94246A04700E038464C
:1079200008B0BDE8F08100BF607F01084FF47A71B4
:107930008160054900220160082142600161A0F8D0
:107940001422A0F816227047907F0108036910B531
:10795000082B044601D1002010BD00F099FB00283F
:10796000F9D0206901F02AFFD0F1010038BF0020D2
:1079700010BD08B5FFF7EAFF003018BF012008BDB1
:1079800038B50446FFF7E2FF01281BD0B4F81622F1
:10799000B4F814329A4217D12069082803D001F0B4
:1079A0000DFF012801D000250FE020680169204665
:1079B0008847051C18BF01253DB922682046D36AB7
:1079C000984702E0054600E00125284638BD70B51D
:1079D00004460E461546FFF7B9FF38B12069314617
:1079E0002A460023BDE8704002F0B6BE4FF0FF30DB
:1079F00070BD000013B5084C002100910A460B46EB
:107A00002046FFF79BFC0549054A204602B0BDE829
:107A100010400AF027BD00BFB01A0020DD5F00084B
:107A2000000F002013B5084C002100910A460B46B8
:107A30002046FFF783FC0549054A204602B0BDE811
:107A400010400AF00FBD00BFB81A0020DD5F00082B
:107A5000000F002013B5084C002100910A460B4688
:107A60002046FFF76BFC0549054A204602B0BDE8F9
:107A700010400AF0F7BC00BFC01A0020DD5F00080C
:107A8000000F0020014B0360704700BF787F0108A2
:107A90000369186C596C421A02F03F007047036981
:107AA000196C5A6C914202D0586C185C70474FF0B8
:107AB000FF3070470369196C5A6C914207D0586CBB
:107AC000596C185C4A1C02F03F01596470474FF032
:107AD000FF30704770B504460E46284840F22771C3
:107AE00005F0B7FB20B963691A6C586C82422FD13C
:107AF00061690D6C6B1C03F03F056069426C954237
:107B00002DD11E4840F2277105F0A3FB0028F4D0C8
:107B10001A48802105F097FB0028EED00022174874
:107B200040F2277105F06DFB6069426C531C815C6B
:107B30004364124805F07FFB6169486C00F03F0226
:107B40004A640E4840F22771012205F05AFBD4E73F
:107B50000A4840F22771012205F053FBC8E7016C87
:107B60004654636905481D640125257640F2277156
:107B70002A4605F046FB284670BD00BF0044004081
:107B800010B50446237E13B90020207610BD0348AB
:107B9000802105F058FB0028F4D0F5E700440040B0
:107BA000034B10B504460360FEF75EFE204610BD91
:107BB000787F010810B51E4840F2255105F049FBB9
:107BC00078B11B4805F03BFB1A4BC0B25A6D511CF3
:107BD00001F03F02996D8A4203D0596D5A655918D8
:107BE0000875134840F2277105F033FBF8B1114CCA
:107BF000D4F89C00D4F8A030984207D10C4840F249
:107C000027710022BDE8104005F0FBBAD4F8A000AF
:107C10002218431C92F85C100548C4F8A03005F007
:107C20000AFBD4F8A01001F03F00C4F8A00010BD7A
:107C300000440040C81A0020014B187C704700BF68
:107C4000C81A0020F7B5164C002504F1A406154FFC
:107C50002B4629462A4600953046FFF76FFB3A46E9
:107C6000304611490AF0FEFB04F114010F4804F1FB
:107C70005C02C4F8BC100E494FF47A73C4F8AC002F
:107C8000C4F8C02004F1AC003A46C4F8B050C4F8BF
:107C9000B43084F8C45003B0BDE8F0400AF0E2BB51
:107CA000C81A0020000F0020DD5F0008D07F010807
:107CB000857A000870474FF0FF307047014B036032
:107CC000704700BF787F0108034B10B5044603607E
:107CD000FEF7CAFD204610BD787F0108084608B5AA
:107CE000FEF718FD012008BD08B5FEF7DFFC08BD52
:107CF000FEF7F0BC00224260024A4FF47A718160C4
:107D000002607047F87F01080846FEF7B7BC000024
:107D100037B50D4C00210D4D0B4600910A4620460B
:107D2000FFF70CFB2A460A49204608340AF09AFB62
:107D30002046FFF7DFFF074920462A4603B0BDE88B
:107D400030400AF08FBB00BF901B0020000F0020C6
:107D5000DD5F0008BD7C0008002303601846704703
:107D600000230360184670470023036018467047DD
:107D700048F20202904210B522D00EDC99285CD065
:107D8000511E88426FD1384C0123E370FFF7A4F9EC
:107D900000F5EA403030606010BD48F28003984240
:107DA00007D0B0F5084F4CD048F2100290425AD19B
:107DB00031E02D480123002103704370817010BD14
:107DC000294CE27882B1FFF787F9284B00F5EA42A7
:107DD0000020303218704FF47F40626003F07CFB6B
:107DE000E72003F0F5FB06E0207A10B1411E217276
:107DF00001E0012323761C498A7850B2421C01D14C
:107E000001238B700022CA704A768A76CA760A7776
:107E10004A778A7710BD087D134B58B90122586004
:107E20004FF47F405A7603F057FBE720BDE810403F
:107E300003F0CEBB0021597610BD0B490122CA7751
:107E400010BD0846002101F054F80121044601F05C
:107E500097F8074803689C4205D1034900220A7736
:107E60004A77CA768A7610BDA81B00203C1C0020E9
:107E70001C0000202DE9F04191F8008086B00C46EE
:107E8000B8F1000F14BF90464FF0000806460BF003
:107E9000A7FD074620460BF0A3FD012518231E2150
:107EA000022201930291039205900023009504940D
:107EB000404631463A4602F087FD044B83F82000E5
:107EC00083F8215006B0BDE8F08100BFA81B002058
:107ED0001FB54FF0000C0A234FF461514FF461625B
:107EE0008DE80E10054B44F620621A60684601A921
:107EF00002AA03AB01F066FD05B000BD381C0020EE
:107F00001FB50023009301930293039301A86946D0
:107F100002AA03AB01F01EFD05B000BD30B5584DFF
:107F200000249FB0FF202C706C7085F82140EC700D
:107F30006C76EC77AC76EC762C776C7703F0CCFA39
:107F4000E72003F045FB21462246204602F018FDBB
:107F50002B46012103F8094F0E200A4601F0B4FD1B
:107F6000474BD878012805D1642003F055F901F07A
:107F70002DF9F5E710210C2001F0F2FD414802F047
:107F8000C0F9414802F06AFE012002F04BFE68464B
:107F90003E4900F037FE3A4D297895F821200A43F2
:107FA0001ED195F82250002D5FD0FF2002F0EEFD8B
:107FB00000285AD11A24013C06D0E72003F036FBF2
:107FC000322003F029F9F6E72D4D0E202B4603F859
:107FD000084F0121224601F077FD85F82240DAE7BB
:107FE000E72003F0F5FA0E200121002205F1080335
:107FF00001F03EFD2C781CB102F04EFE85F8200009
:108000001F4C012194F820300022581C234603F80D
:10801000080F0E2001F058FD00200146012202F059
:10802000AFFC01252346294603F8095F2A460E20A6
:1080300001F04AFD02F02AFC642003F0EDF8002074
:1080400002F0EEFB48F2442084F8235002F0B8FD21
:108050004FF47F4003F040FAE72003F0B9FAFFF74E
:1080600037FF002121761FB030BDE72003F0DEFA94
:10807000FA2003F0D1F8684600F032FE8BE700BF2B
:10808000A81B00201880010878010020757E0008D8
:10809000044B5A7E22B99878003018BF01207047EF
:1080A00001207047A81B0020024B1A681860104678
:1080B000704700BF381C002030B53E4C85B0606270
:1080C00003F058FD03F098FC3B4B3C483C493D4ACB
:1080D000009301903C4B029103923C493C4A3D483D
:1080E00002F086FB642003F097F8002002F098FB72
:1080F0000025012348F24420657784F8233002F0FC
:108100005FFD3548018801292FD00E2010212A4615
:1081100004F1080301F0ACFC102826D1254CA3780B
:1081200093B9207A10B9012121760DE0607A58B90F
:108130000146012202F024FC0121234603F8091F15
:108140000E200A4601F0C0FC1A4B9A7850B2002863
:1081500027DC197E29B3214801F0E8FCFFF7D0FEA7
:1081600005B0BDE83040FFF7B3BEFF2002F00EFDC2
:1081700000210E2001F0F4FC10210E2001F0F0FC93
:108180000021102216480AF0FFFF00220E201021C5
:10819000134B01F099FC104A0024148003F030FEC8
:1081A000BCE74FF47F4003F097F9E72003F010FAA3
:1081B000D1E700BFA81B0020B1BA0008C5BA00086B
:1081C00031BB000859BB0008697D0008597D0008D3
:1081D000617D0008717D0008C6020020D01B0020D0
:1081E000B01B0020F7B5A34C0023E36294F83000E5
:1081F00048B994F8311031B962686AB3FEF76CFF80
:108200006568A84228D39B4C94F82350B5B3002549
:10821000E57065606576656384F8305084F82350B6
:10822000A576E57625776577A57702F02FFB6420A4
:1082300002F0F2FF237E3BB1284602F0F1FA012062
:1082400084F82300FFF76AFE4FF47F4003F044F9FF
:10825000E72003F0BDF911E0864C94F823306BB9A8
:10826000A07828B9FEF738FF00F5EA4130316160A7
:10827000002002F0D5FA012284F823207D4D297ECA
:1082800011B1FFF74BFE06E0AA7854B2002C02DDD4
:108290006C7E002C6ED077484178012914D1427E43
:1082A000012A11D1C478012C0ED1032472480BF09D
:1082B00097FB714982B2012002F064FA631E13F049
:1082C000FF04F3D16B4844706A4C94F8381031B90C
:1082D000A37E002B67D1E27E002A64D1E7E0627EB4
:1082E000F2B194F83130DBB9A07E00286DD017E0F0
:1082F000234603F80B2F0E200121032201F0E4FB9B
:108300004FF6FF7003F0E8F8E72003F061F9FEF79D
:108310004FFD0028574A7DDB0023012453639476E8
:10832000544CA27E002A00F0C280E17EB9B9FEF76B
:10833000C1FC002811D002DA4FF47F0007E00128C9
:1083400001D14E4803E0022803D14FF0FF1003F0A3
:10835000C3F8E72003F03CF901E00120E076FEF7E6
:108360006DFC002840F0A380424B18775877D876F0
:1083700098769CE02146224620466C6002F000FB85
:108380003F480BF02DFB3F4E074630460BF028FBD5
:108390002346019000960320711F3A4602F08CFAA2
:1083A000FF23AB7077E7FEF7F3FC32490020087734
:1083B0004877C87688764FF47F4003F08DF8E72041
:1083C00003B0BDE8F04003F003B9642002F024FFDD
:1083D00004F1390001F03AFBA17F002990D04FF45D
:1083E0007F0003F079F8234CA27F002A80D0E72099
:1083F00003F0EEF84FF4FA7002F00EFFE72003F0FE
:10840000F5F84FF4FA7002F007FFA27F511EC8B2D0
:10841000A077E8E792F83030002B48D1546B611C0C
:10842000022951630BD1012082F83000164A0191D4
:108430000092042040F26B21144A04F05BF8FEF72E
:1084400075FC00280B4B23DA596B481C0228586333
:108450000CD1012283F830200B4B019000930420B3
:108460004FF41D71094A002304F044F80224014B23
:108470000FE000BFA81B00207B0100200060FF0070
:108480008201002087010020A4AC01082980010896
:1084900003249C77074C0E20A17F234603F80B1F73
:1084A0000322012101F010FB0020A07638E703B081
:1084B000F0BD00BFA81B002013B5084C002100919F
:1084C0000A460B462046FEF739FF0549054A204675
:1084D00002B0BDE8104009F0C5BF00BF1C1C002061
:1084E000DD5F0008000F00207047000007B5064B55
:1084F000052000935221054A002303F0FBFF0120D1
:1085000004F048F8FEE700BFD7AC0108408001083E
:1085100007B5064B052000936221054A002303F0AE
:10852000E9FF032004F036F8FEE700BFE1AC0108E4
:108530005980010807B5064B052000937221054AB2
:10854000002303F0D7FF042004F024F8FEE700BF67
:10855000EBAC01087280010807B5064B05200093BB
:108560008221054A002303F0C5FF052004F012F81C
:10857000FEE700BFF4AC01088A800108704770472D
:10858000704708B503F07AFDBDE80840FDF7B8BFB5
:1085900008B5024B0BB1AFF3008008BD000000002E
:1085A00008B5024B0BB1FFF705FB08BDB57B000812
:1085B00008B5024B0BB1FEF753FE08BD617200080F
:1085C00008B5024B0BB1FEF74CFE08BD6372000804
:1085D00008B5024B0BB1FEF7C1FF08BD5D75000881
:1085E00008B5012004F0C0F938B1012004F0CCF93D
:1085F000024B13B10020FEF761FE08BDBD720008FA
:1086000008B5022004F0B0F938B1022004F0BCF93A
:10861000024B13B10120FEF751FE08BDBD720008E8
:1086200008B5042004F0A0F978B1042004F0ACF9F6
:108630000020064B0146188003F086F804481021FC
:108640000122BDE8084004F094BD08BD581C00207C
:10865000002C014008B5082004F086F938B1082044
:1086600004F092F9024B13B10320FEF727FE08BD78
:10867000BD72000808B5102004F076F938B110205A
:1086800004F082F9024B13B10420FEF717FE08BD77
:10869000BD72000808B5202004F066F938B120202A
:1086A00004F072F90E4B13B10520FEF707FE4020CF
:1086B00004F05AF938B1402004F066F9084810B1C6
:1086C0000620FEF7FBFD802004F04EF938B1802033
:1086D00004F05AF9024911B10720FEF7EFFD08BD79
:1086E000BD72000808B54FF4005004F03DF940B1E8
:1086F0004FF4005004F048F9174B13B10D20FEF76A
:10870000DDFD4FF4804004F02FF940B14FF480407C
:1087100004F03AF9104810B10E20FEF7CFFD4FF4E7
:10872000004004F021F940B14FF4004004F02CF96E
:10873000094911B10F20FEF7C1FD4FF4006004F0AC
:1087400013F938B14FF4006004F01EF9BDE8084099
:1087500002F0ECBC08BD00BFBD72000808B50F48B0
:10876000102104F03FFDC0B10C48102104F045FD7C
:10877000002003F095F828B9094B1A880A3290B204
:10878000188008BD10210548002204F0F2FC0020EA
:108790000121BDE8084002F0D7BF08BD002C014010
:1087A000581C002008B5012004F012FB30B1012054
:1087B00004F020FBBDE8084004F0EEBA08BD00005C
:1087C00008B5022004F004FBB0B10C4B00224FF4BA
:1087D00000301A7004F0D8F8012004F037FA10B114
:1087E000012004F03DFA04F0D7FA022004F002FB65
:1087F000BDE8084004F0D0BA08BD00BFD91B002076
:1088000002F006BC00F062B838B514490B78012BB1
:1088100023D1134A13680BB90B7038BD114C402B90
:10882000206881B205D94030403B2060136040256C
:1088300004E09DB2C3180020236010600A4A50185B
:10884000C0212A4605F036FA0120294605F03CFBF6
:108850000120BDE8384005F0A5BA38BDF40E00206F
:10886000FC0E0020F80E0020F40D0020094908B588
:108870000020094B0122088003201A7005F050FBEC
:10888000064B0246188006484FF48871BDE8084040
:1088900005F027BAAC0D0020A80D0020AA0D00207D
:1088A000AE0D0020074B1868052809D1064B1A6841
:1088B000511C052A196003D100201860FDF748BF3C
:1088C000704700BF7C1C0020241C00203A4A38B5A9
:1088D00011683A4B88B23A4D18801C88298821408B
:1088E00001F4007084B244B14FF6FF5515609A78D8
:1088F000511CC8B29870FFF7D5FF304C304B25881B
:108900001A882A4002F4004188B225461C4608B164
:1089100005F00AF92A882388134003F4806188B29D
:1089200030B1254B27494FF6FF321A60486880471F
:10893000224A234B11881B88194001F4005081B250
:1089400019B11D494DF6FF7008601288134003F4F9
:10895000805398B230B1184A4EF6FF711160002072
:1089600003F084FD154B164918880A88024002F46A
:10897000006398B260B114490A7812B103F056FD51
:1089800002E0022003F072FD0B4B4FF2FF70186003
:108990000A490B480A880388134003F480718AB29D
:1089A00042B1054B4FF6FF6018600720BDE8384024
:1089B00003F05CBD38BD00BF445C0040281C0020B3
:1089C000682600201C020020E8020020034B987A51
:1089D00010B1034905220A60704700BF44260020F9
:1089E0007C1C0020014B04221A6070477C1C002074
:1089F000034B1A78202A01D100201870704700BF5D
:108A00002C1C002070470000212810B508D1114807
:108A10000368197801F07F02212A11D0022010BDCD
:108A20002028FBD10B4B19680A780B4902F07F0311
:108A30000A4A212B0CBF0B46002310700BB9EDE73F
:108A4000074B044C206800248361448220469847E9
:108A5000204610BD64260020B18A00082C1C00208E
:108A6000998A0008074B19680A7802F07F03212BC6
:108A700005D1022801D1002070472228FBD0022016
:108A8000704700BF6426002009B10220704701280A
:108A9000FBD808467047000020B9034B082219682C
:108AA0000A8270470148704764260020E4010020D4
:108AB00020B9034B082219680A82704701487047A1
:108AC00064260020E4010020054B1968CA78042AB6
:108AD00004D8044B03EBC20104F0A6BD002070478C
:108AE00064260020EC010020014904F09DBD00BF78
:108AF0000C020020014904F097BD00BF14020020C1
:108B0000334A344BD179186810B50024417284720D
:108B1000C472204605F0F8F820464FF4007105F0C5
:108B2000FBF81021204605F003F94021204605F00E
:108B30009FF98021204605F08BF9204605F054F975
:108B4000254B204693F8641005F0CCF9204605F03B
:108B50003AF90120214605F0DFF80120C02105F097
:108B600077F90120202105F0E3F80120214605F0E6
:108B7000FCF802204FF4C06105F0CEF802204FF45B
:108B8000807105F065F90220214605F0EEF802201B
:108B9000202105F0CDF80320214605F0BDF8032083
:108BA0004FF4887105F064F90320402105F09AF92B
:108BB00003204FF4405105F0D8F80320214605F07A
:108BC000B7F8204604F042FF044A0120106010BDAF
:108BD0000081010864260020E40100207C1C0020A4
:108BE00010B5FDF701FE054B00241868847203F0F0
:108BF00005FC05F0ABF902490C6010BD64260020AD
:108C00007C1C002038B504460D46FFF773F820465B
:108C100025614FF41651FFF777F8204638BD000064
:108C200013B5084C002100910A460B462046FEF77A
:108C300085FB0549054A204602B0BDE8104009F011
:108C400011BC00BF301C0020DD5F0008000F0020B9
:108C500070B506460D46002428460AF0C1FE84423F
:108C600008D2295D3046FFF739F8012002F0D4FA26
:108C70000134F1E770BD00002DE9F84304460F46CA
:108C800090460D46C7EB05095FFA89F92046FFF7C4
:108C90002BF80028FADD2046FFF72AF8C145C6B2B6
:108CA00006D100232B7020460C49FFF7D1FF0AE0C4
:108CB0000D2EF6D00A2EF4D020463146FFF70EF8DE
:108CC00005F8016BDEE72046FFF70EF8002803DD0C
:108CD0002046FFF70DF8F6E7BDE8F883ABAE0108D4
:108CE000F0B585B00446FEF7FFFF002840F39D80F5
:108CF0002046FEF7FDFFC0B2772867D104F11406C5
:108D000000212122304604F135050AF03DFA002108
:108D1000412228460AF038FA04F17607002284F846
:108D2000762020467A704249FFF792FF204631466E
:108D30002022FFF7A1FF20463E49FFF789FF394671
:108D400001222046FFF798FF94F87630A3F1300116
:108D50000329F0D8312B0BD120463749FFF778FF94
:108D600020463649FFF774FF20463549FFF770FF6C
:108D700094F87600B0F1300708D020463149FFF76B
:108D800067FF204629464022FFF776FF20462E49FE
:108D9000FFF75EFF23693A4630462946984720464A
:108DA0002A49FFF755FF20462949FFF751FF204682
:108DB0002849FFF74DFF20462749FFF749FF204686
:108DC0002649FFF745FF2046254929E069282CD18F
:108DD000244A01AB10685168002503C391682046FE
:108DE00019602149FFF734FF01AEAE5D300900F193
:108DF0003001392988BF00F1570106F00F062046DF
:108E0000FEF76CFF06F13001392988BF06F15701E2
:108E100020460135FEF762FF0C2DE5D113492046AF
:108E200005B0BDE8F040FFF713BF05B0F0BD00BFCF
:108E3000FFAC010806AD010833AD010869AD0108BA
:108E400094AD0108DAAD0108E5AD010828AE0108CE
:108E500048AE01087BAE0108AEAE0108EDAE0108D8
:108E60001EAF0108E8F7FF1F34AF0108ABAE0108E1
:108E7000002100F004B80E4B5B58435004310D48FC
:108E80000D4B42189A42FFF4F6AF0C4A00F003B8BB
:108E9000002342F8043B0A4B9A42FFF4F9AF03F077
:108EA0002FFAFDF7B9FAFDF7C3FCFDF7F9FA7047A1
:108EB00048B3010800000020640B0020640B002070
:108EC00074260020FFF7FEBF01700B0A0A0C090E82
:108ED00043708270C170043070470170090A41709C
:108EE0000230704743185A78405C00EB022188B288
:108EF000704710B543189A78DC78415C120402EB95
:108F000004625878521802EB002010BD73B5447902
:108F10000023022C01930FD0032C19D0012C2BD14C
:108F2000164D28692E4620B1296901A888470246B6
:108F3000B8B9B16801201BE0104DE8682E4620B199
:108F4000E96801A88847024658B9B16802200FE0D5
:108F50000A4D6A692E464AB16B6901A898470246D4
:108F600020B1A9682046BDF8043003E0B1680320B1
:108F70000022134600F08AFC7CBD00BFAC1D00201F
:108F8000072830B512D8012910D8EFF3108472B633
:108F9000012505FA00F501FA00F0054B1A6822EAEE
:108FA000050202431A60E30700D462B630BD00BF79
:108FB00074020020F0B5012187B00546FFF792FF4B
:108FC00000F48043044698B250B3B4F5824F27D1E1
:108FD00028460521FFF786FF002607460735344659
:108FE000BE4208D028460221FFF77CFF0136241834
:108FF0000435B6B2F4E7744B188E21188AB21A867B
:10900000D86B2418DC63D96B9A6B914240F0CE8008
:1090100093F84000002800F0C9809B69992033E054
:1090200024F4FF4121F07F0290B2002800F09B80E1
:1090300048F2100294422AD00CD8B4F5004F40F206
:10904000C08048F202039C4217D9991C8C4240F020
:10905000B88012E048F2800084420ED005D848F271
:109060004002944240F0AD8051E0B4F5024F04D08C
:10907000B4F5084F40F0A5806CE05349886900289A
:1090800000F094808B69204600210A4669E00023A5
:10909000EA1851790DF803100133042BF8D1687ADE
:1090A0002B7BAA7AE97A8DF804008DF807308DF8C9
:1090B00005208DF8061005F10D00002306AAD21830
:1090C000C15C0133042B02F8101CF7D105F111002B
:1090D000002306AAD218C15C0133042B02F80C1C31
:1090E000F7D105F11500002300AAD218C15C0133A5
:1090F000042B1174F8D1344928798A698DF8140049
:10910000002A53D08B6920466946152229E005358F
:1091100000212846FFF7EDFE042100902846FFF7C6
:10912000E8FE082101902846FFF7E3FE0C2102909B
:109130002846FFF7DEFE102103902846FFF7D9FEF0
:10914000214B04909969002930D09B6920466946DB
:10915000142206E01C48826942B38369691D2046D7
:109160000122984722E041F203039C4205D00C33D0
:109170009C4202D0591E8C421AD16C1D04212046FB
:10918000FFF7B7FE39301CD12D790F480021C56299
:109190002046FFF7AEFE042105462046FFF7A9FE54
:1091A000393003D128460121FFF7EAFE012009E00A
:1091B000054A138899B28C4204D0B4F5805FF5D18A
:1091C00000E0002007B0F0BDAC1D002070B5214BC1
:1091D0008CB05D88ADB2002D38D05C682678321F27
:1091E000504250EB020636B12046FFF7E3FE011C69
:1091F00018BF012100E031460D4611BB002E25D0DD
:10920000144B93F841200ABB134800902178019138
:1092100063780293A2780392E07804902179059113
:1092200063790693A2790792E0790C4A0890217A33
:1092300004200991637A40F213310A932B4603F01C
:1092400059F904480022428001F0FAFD28460CB08A
:1092500070BD00BFAC1D002045AF0108558101085D
:109260002DE9F0478AB004468946904602F00EFF89
:1092700000250790B24F7B8898B2002840F0B78055
:1092800002F004FF08900899079BC81A0990099AF0
:10929000002A03DA0799089B58180990A94A13680D
:1092A000002BE7D009999942E4D3A74D0898079974
:1092B000099A0095A24D019002910420F821039291
:1092C0000493A24A002303F015F92B88A04A9BB20D
:1092D0008DE80C000420F9219C4A002303F00AF9D0
:1092E000288841F2070281B2914224D8531E994244
:1092F0006CD240F20220814268D00DD80C2906D8E9
:10930000082963D200294DD006295FD966E00D29CE
:1093100059D040F201230BE041F20202914258D8A9
:10932000B1F5805F52D8B1F5017F4CD940F20723E7
:10933000994237D147E041F21100814243D014D81D
:1093400041F20B02914241D005D841F20903994202
:109350003CD03ED837E041F20F00814239D035D8B9
:1093600041F20D0291421DD133E042F206039942CF
:1093700029D007D8B1F5005F14D942F20400814228
:1093800021D92EE0B1F5804F00F00E8205D8A1F56D
:109390000052083A012A05D815E044F20B0399421D
:1093A00000F0028266496B4A088840F2011183B2DC
:1093B0008DE80C000520654A002303F09BF80B2084
:1093C00003F0E8F8F0E1FF222270EDE14FF0FF3109
:1093D00005E04FF0FF3121606160E5E1002121608F
:1093E000E2E1204600213A2209F0CEFEDCE17E686F
:1093F0003278042A40F07D8130460121FFF772FD6A
:1094000005463046FFF7D6FD002840F0688141F25E
:109410000703771D9D4253D85A1E954280F0B880AD
:1094200040F20220854200F0B38014D80C2D09D8F8
:10943000082D80F0AD80002D00F05181062D40F206
:10944000A780E9E00D2D00F0A08040F20127BD4289
:1094500040F0458199E041F20202954218D8B5F5F5
:10946000805F00F29580B5F5017F40F28E8040F27A
:1094700007218D4240F033813379002104F8013B0C
:109480003846FFF736FD01462046FFF71DFD26E171
:1094900041F20400854200F0958040F2AC803846ED
:1094A0000021FFF726FD042120603846FFF721FD4B
:1094B0006060083406F10D07224606F11D017AE0CE
:1094C00041F21100854260D02CD841F20B02954246
:1094D0005ED01CD841F209018D4259D000F297802C
:1094E00000213846FFF705FD042120603846FFF7CC
:1094F00000FD082160603846FFF7FBFC0C21A060EE
:109500003846FFF7F6FC04F10C0AE060E6E041F2B1
:109510000F0085426FD041D841F20D02954240F0D4
:10952000DE804FE042F206018D422ED014D8B5F510
:10953000005F40F2D48042F204039D4225D98FE0BF
:10954000AC1D0020381C0020A1AF01087381010868
:10955000E4AF01081DB0010842F208039D42C0F0CB
:10956000BE80581C854210D944F20B02954240F04F
:10957000B6807179DFF838A23846AAF83010012198
:10958000FFF7B0FCAAF83200A9E037792770A6E00F
:1095900038460021FFF7ADFC2060A0E000213846EE
:1095A000FFF7A7FCA2464AF8040B04213846FFF750
:1095B000A0FC606092E057F8043B8F4242F8043B05
:1095C000F9D18CE000213846FFF793FC042120609C
:1095D0003846FFF78EFC082160603846FFF789FCAB
:1095E00004F1080AA060E46814F1390376D101217E
:1095F000FFF7C6FC72E000213846FFF77AFC042131
:1096000020603846FFF775FC6060083467E0337906
:1096100023713F68276062E038460021FFF769FC4C
:10962000042120603846FFF764FC0821606038465A
:10963000FFF758FC0A21A0603846FFF753FCC4F836
:109640000A000C3406F11107224606F1350157F8DD
:10965000043B8F4242F8043BF9D1388810803EE049
:109660000022B7187879A0540132042AF9D106F102
:1096700009070023F95CE0180133042B0171F9D1CB
:1096800006F10D070020395C221801300428117200
:10969000F9D106F111070023F95CE2180133042B1C
:1096A0001173F9D106F115000022875CA11801326F
:1096B000042A0F74F9D106F119000023C75CE118E0
:1096C0000133062B0F75F9D106F11F000021475C0D
:1096D0006218013120299776F9D100E05446344BC5
:1096E000188882B2954246D100271F8083F84170C6
:1096F00041E0F98E8BB283B9F88E3F8880B2B9B25F
:109700002C4F01920290039100970495042040F29F
:109710000F21294A02F0EEFE2DE03046032196F893
:1097200002A0FFF7DFFB0746B9F1000F0BD00421C1
:10973000701DFFF7DEFB06F115010246C8F80000B8
:10974000484609F09BFBCAEB07077B1EB3F5806F09
:1097500007D20AF10502B11820463A4609F08EFBFD
:1097600001E04FF0FF37B8F1000F01D0C8F80070EA
:109770000F490020C8860E4F00237B8001F060FB5C
:109780003078042805D1B5F5805F02D13046FFF767
:10979000BDFB3A8891B200297FF46CAD044BD88EA2
:1097A00082B2002A7FF466AD00200AB0BDE8F087DF
:1097B000AC1D00202DB001087381010807284FF06F
:1097C00001030ED8EFF3108272B603FA00F00649D7
:1097D0000B6818420CBF00200120D10702D462B6EA
:1097E00070471846704700BF74020020034B188072
:1097F000084600210A46FFF733BD00BFAC1D00201C
:1098000010B5034B0124DC86BDE81040FFF728BDEE
:10981000AC1D002038B50346154601224A710C469E
:10982000881D1946FFF759FB291D0570204601F0D8
:1098300075FB002038BD38B5BDF814500C469B1898
:10984000A071E81885B202216171E271294604F124
:109850000800FFF742FB6A1D204691B201F05EFB53
:10986000002038BD38B59B180C469DB202216171AD
:10987000A071E271294604F10800FFF72EFB6A1D72
:10988000204691B2BDE8384001F048BB2DE9F047D1
:109890001D4605F1020A032301F107091FFA8AFA9E
:1098A00088714B710C46484651461746FFF715FB29
:1098B000B5F57A7F804613D82946FFF70EFB294677
:1098C0004046FFF70AFB394604F10B002A4609F02F
:1098D000D5FAA91D204689B2BDE8F04701F01EBBAC
:1098E0004FF47A76B5FBF6F10AEB410291B2FFF73D
:1098F000F4FA31464046FFF7F0FA394604F10B001E
:10990000324609F0BBFAA5F57A75204640F2EE31F1
:10991000ADB2BF1901F002FBB5F57A7F05D9A5F507
:109920007A7085B24FF47A7601E02E460025A04683
:10993000394628F8056F4846324609F09FFAB31CAD
:10994000404699B2BF1901F0E9FA002DE4D1BDE813
:10995000F0870000F7B51A4C1E46A468FF238DF867
:1099600007300025475D63190135042D5F72F9D179
:1099700000200D5C2318013004285D73F9D100210B
:10998000505C6318013104295874F9D104F11500B1
:109990000021FFF799FA0022B35C83540132042AB4
:1099A000FAD12146142242F20100FFF733FF42F2BE
:1099B00001000DF10701FFF719FF9DF90700FEBD3A
:1099C000AC1D00202DE9F34106460C461E483168C7
:1099D0001546D0F808804A1E1F46FF23122A8DF82C
:1099E000073008F1090001D81423336021684A1EAA
:1099F000122A01D81423236029684A1E122A01D88A
:109A000014232B6039684A1E122A01D814233B60A4
:109A10003168FFF759FA2168FFF756FA2968FFF70E
:109A200053FA3968FFF750FA4146142242F209000E
:109A3000FFF7F0FE42F209000DF10701FFF7D6FE35
:109A40009DF90700BDE8FC81AC1D002038B5074B2F
:109A500042F205040546996820460022FFF7DAFE27
:109A600020462946BDE83840FFF7C0BEAC1D0020A7
:109A70002DE9F341864613480D46866871461F4618
:109A800002ACFF2306F1090004F8053D9046FFF7FC
:109A90001BFA2946FFF718FA40F201254146FFF765
:109AA00013FA0C2231462846FFF7B4FE2846214619
:109AB000FFF79CFE3846002101AAFFF7A1FE01989E
:109AC000BDE8FC81AC1D00202DE9F3418646164817
:109AD0000C4686687146984602AD4FF0FF3306F19A
:109AE0000A0045F8043D1746FFF7EEF90C21FFF791
:109AF000EBF92146FFF7E8F93946FFF7E5F941466A
:109B0000224606F11A0009F0B9F9902031461022D8
:109B1000A3B2FFF7A7FE40F202202946FFF766FE38
:109B20000198BDE8FC8100BFAC1D002037B50B4B90
:109B300040F207250446996800222846FFF76AFE8E
:109B400028466946FFF752FE9DF803009DF8041071
:109B5000207061709DF800003EBD00BFAC1D00206C
:109B600037B50D4A034695680C4605F109001946BC
:109B7000FFF7AAF9214640F20324FFF7A5F9294689
:109B800008222046FFF746FE20460DF10601FFF7AA
:109B90002DFEBDF806003EBDAC1D00202DE9F043B2
:109BA0000023CA5CC2540133102BFAD10022334B7C
:109BB000467B991891F8018004789F19F97A88EA10
:109BC0000405847B85EA01081D194178EF7A90F835
:109BD0000CC04F40C17B80F810805D1895F80B9049
:109BE0008578634489EA050593F80B90C378477438
:109BF00089EA030390F80490FFB288EA090890F814
:109C00000590857487EA090790F80690EDB285EA19
:109C1000090590F80790C374DBB283EA090390F852
:109C2000089080F814805FFA88F888EA090890F8AC
:109C300009904775FFB287EA090790F80A90857581
:109C4000EDB285EA090590F80B90C375DBB283EAA3
:109C5000090388EA0C0C7E406C405940013280F8C0
:109C6000188047768576C37680F81CC0467784775F
:109C7000C17710300A2A9AD1BDE8F08385810108A6
:109C800010F0800F4FEA400018BF80F01B00C0B2F8
:109C9000704700002DE9F04F037891F8A0A004462A
:109CA0008AEA030A80F800A091F8A1204078A778FA
:109CB00082EA0005657091F8A260E07886EA070301
:109CC000A37091F8A32097B0059582EA0005E5708E
:109CD00091F8A4902679069389EA060984F80490FD
:109CE00091F8A5706379079587EA0302627191F88C
:109CF000A600A579E37980EA0506A67191F8A77018
:109D00000C9287EA030B84F807B0227A91F8A880B6
:109D1000607A88EA020884F8088091F8A9700896A9
:109D20004740677291F8AA50A67AE07A85EA06035E
:109D3000A37291F8AB20267B82EA0005E57291F8C8
:109D4000ACC009938CEA060C84F80CC091F8ADE025
:109D5000637BA27B8EEA030E84F80DE00D9591F8EB
:109D6000AE50E07B5540A57391F8AF204B4B42407D
:109D7000E2739A4491F890009AF80B619944464036
:109D8000267091F8940099F80BA198448AEA00068D
:109D9000267191F8980098F80B919C4489EA000686
:109DA00026729CF80BA191F89C009E448AEA00065A
:109DB0002673DF199EF80B8197F80BC191F891007B
:109DC00091F89D6088EA00098CEA060060730C9F98
:109DD000DDF814A0DE1996F80B0191F89970DDF802
:109DE000208080EA0706667203EB0A0091F895600E
:109DF00090F80B7184F8019087EA0600607103EB1C
:109E00000800DDF818E090F80B91099803EB0E07B5
:109E100003EB000E9EF80BC191F8920091F89A6046
:109E200097F80B718CEA000A77405D1991F89E60F3
:109E300084F802A091F8960095F80B81A772079F0D
:109E400088EA000589EA0606A673A571DE1996F868
:109E50000B0191F89F5003EB0B0791F8936045407D
:109E600097F80B019A1880EA06070D98E7701E18FC
:109E700096F80B7191F897004FF0090B87EA0006EE
:109E8000E67191F89B3092F80B71E57387EA030055
:109E9000E0720D46CDF840B002E000BF85810108B8
:109EA00094F80090A77887EA0900FFF7E9FEFFF72A
:109EB000E7FE94F80180E678824686EA0800FFF71C
:109EC000DFFEFFF7DDFE8AEA070380EA0802277952
:109ED0007040A6798AEA09015FFA80F886EA0700ED
:109EE0005FFA82FB5FFA83FA5FFA81F903970296C1
:109EF000FFF7C6FEFFF7C4FEE6796779014686EAFA
:109F000007000491FFF7BCFEFFF7BAFE039B049A1B
:109F100094F808C082EA0301CBB2029947404A4054
:109F2000A17A7040C6B2059381EA0C00D3B20291C7
:109F3000CDF804C006930796FFF7A2FEFFF7A0FE38
:109F4000637AE67A024686EA030003930492FFF7F7
:109F500097FEFFF795FE049ADDF804C0039B82EAA2
:109F60000C015FFA81FC80EA0301CBB202990993EC
:109F70004A40D3B2CDF820C00A9394F80CC0A17B1C
:109F80007040C6B281EA0C000291CDF804C00B9675
:109F9000FFF776FEFFF774FE637BE67B024686EAF8
:109FA000030003930492FFF76BFEFFF769FEDDF8F1
:109FB00004C0049A039B82EA0C015FFA81FC80EAE8
:109FC0000301CBB2029970404A40C6B288EA0A0146
:109FD0008BEA09000D93D3B20E930291CDF830C0F5
:109FE0000F9681EA0006FFF74BFE89EA000286EA37
:109FF000020C5FFA8CFC8AEA0B0084F800C0CDF8F2
:10A0000004C0FFF73DFE8BEA000386EA030B0299CA
:10A010005FFA8BFC84F801C00846CDF844C0FFF716
:10A020002FFE8AEA000286EA020A5FFA8AFB88EAC1
:10A03000090084F802B0CDF848B0FFF721FE88EAA5
:10A040000000DDF818900599079A4640FFB2F6B275
:10A0500082EA090887EA0100E670139688EA00069A
:10A06000FFF70EFE059B584086EA0001CAB248463B
:10A07000227178401492FFF703FE474086EA0703F7
:10A08000D8B2159060714046FFF7FAFD89EA0001E9
:10A09000059B86EA01020798D7B25840A771069738
:10A0A000FFF7EEFD0799089A48404640F6B20A9F2E
:10A0B0000596E67109980B9E50407E4086EA00079F
:10A0C000FFF7DEFDDDF820A08AEA000387EA030C33
:10A0D0005FFA8CF884F8088009990A984840FFF7DD
:10A0E000CFFD099A504087EA000B5FFA8BF93046A2
:10A0F00084F80990FFF7C4FD0A9E524686EA0003E1
:10A1000087EA03010B985FFA81FB504084F80AB09C
:10A11000FFF7B6FDDDF82CA00E998AEA00000C9E30
:10A1200047400F9B0D98FFB24B407040E77283EAA7
:10A13000000A0293FFF7A4FD0C9A0D9B50408AEA97
:10A1400000060E98F6B226735840FFF799FD0D9958
:10A15000029B81EA00028AEA0200C1B261731846DA
:10A160000391FFF78DFD0E9A0C9B50408AEA000187
:10A170000F98CAB2A27358400492FFF781FD0F995D
:10A18000514B48408AEA000C5FFA8CFADDF804C0B3
:10A1900084F80FA003EB0C0295F8800092F80B11E5
:10A1A000DDF850C081EA0002227003EB0C0195F843
:10A1B000840091F80B219E1982EA000103EB08024A
:10A1C000217195F8880092F80BC196F80B218CEA62
:10A1D0000001217295F88C00039E82EA0001217330
:10A1E0009A1995F8811092F80B0103EB090680EAA1
:10A1F000010295F88D0096F80B11DDF844C081EA54
:10A20000000615996673581890F80B6195F8891037
:10A21000DF1986EA0100607203EB0C0695F88500F1
:10A2200096F80B116270129A81EA0006667199180D
:10A23000DDF818C095F88A6091F80B0103EB0C0269
:10A2400095F88E10704092F80B6103EB0B02714091
:10A2500092F80BC195F882608CEA0602049EA27007
:10A260009A1992F80B6195F886205640A671A07253
:10A270001398A173191895F88F2091F80B61DDF8E8
:10A2800014C0724003EB0C0695F8831096F80B018E
:10A2900053444840E07095F8871097F80B01484008
:10A2A000E07195F88B0093F80B11E273109A81EA34
:10A2B0000003511E103D11F0FF00E37210907FF477
:10A2C000EFAD17B0BDE8F08F8581010838B5054CBA
:10A2D00005462046FFF762FC28462146BDE8384087
:10A2E000FFF7D8BCB81C002008B510210346002297
:10A2F0000C20FFF7BDFB102814BF4FF0FF300020EB
:10A3000008BD034610210C200022FFF7DDBB000032
:10A3100030B58BB0054601F0B9FE0790214CE36AD9
:10A320004BB108F0EBF8E36A03600020E06208F04C
:10A33000E5F8006834E02846FFF740FA00282DD100
:10A3400001F0A4FE0890089A0798111A0991099B38
:10A35000002B03DA0798089A11180991124B0998F3
:10A360001B6898420FD30898104C0799099A0190DE
:10A370000291039204930094042091210C4A00233B
:10A3800002F0B8F80AE007490A8E90B20028C5D05A
:10A390000B8E5A1E90B20886002001E04FF0FF306D
:10A3A0000BB030BDAC1D0020381C00208AB0010865
:10A3B00090830108F7B5034614480D468668194690
:10A3C000174602AC4FF0FF3206F1090044F8042DA5
:10A3D000FEF77AFD2946FEF777FD41F20105394681
:10A3E000FEF772FD0C2231462846FFF713FA21468C
:10A3F0002846FFF7FBF908F081F80199016008464B
:10A400000021FEF7BDFD0198FEBD00BFAC1D002080
:10A41000F7B5054610484FF0FF33876802AC294670
:10A4200041F20B0607F1090044F8043DFEF74CFD2C
:10A43000042239463046FFF7EDF921463046FFF752
:10A44000D5F908F05BF80199016028460121FEF773
:10A4500097FD0198FEBD00BFAC1D0020F7B50C466E
:10A460000746164608F04AF84FF0FF33E62C036023
:10A4700023D814480821856805F10900FEF724FD5A
:10A480002146FEF721FD0021A14203DA7A5C425405
:10A490000131F9E704F10802D2B2294641F2100075
:10A4A000FFF7B8F9694641F21000FFF79FF908F08D
:10A4B00025F80099019B0160336008F01FF80068DF
:10A4C000FEBD00BFAC1D002037B5034613484FF05A
:10A4D000FF3284680D4604F1090019460192FEF727
:10A4E000F3FC0821FEF7F0FC0821FEF7EDFC002349
:10A4F000E95CC1540133082BFAD11422214641F200
:10A500000700FFF787F901A941F20700FFF76EF98D
:10A5100007F0F4FF019A026010463EBDAC1D00201A
:10A520002DE9FF411D46314B8646D3F808800F4682
:10A5300008F10900714616460A9CFEF7C5FC142175
:10A54000FEF7C2FC1421FEF7BFFC1421FEF7BCFC91
:10A550001421FEF7B9FCD4F1010138BF0021FEF748
:10A56000B3FC0FB1396800E03946FEF7ADFC0EB11F
:10A57000316800E03146FEF7A7FC0DB1296800E024
:10A580002946FEF7A1FC74B1216839B9636841F22C
:10A5900087329342DCBF41F288336360FEF794FC5C
:10A5A0006168FEF791FC2C22414641F20800FFF75A
:10A5B00031F941F208006946FFF718F9009B002BBA
:10A5C00009DB0FB1019838600EB1029A326045B1D3
:10A5D0000399296005E007F091FF00994FF0FF33E0
:10A5E0000160184604B0BDE8F08100BFAC1D00203A
:10A5F0002DE9FF419846194B86469E6815460F4641
:10A6000006F1090071460B9CFEF75EFC2946FEF739
:10A610005BFC4146FEF758FCBDF830500C22314639
:10A620002846FFF7F7F8284601A9FFF7DFF8029858
:10A6300000280ADD0A9938466A46FFF7E1F80099D2
:10A6400004B121600029D8BF029107F057FF029A98
:10A650000260104604B0BDE8F08100BFAC1D0020D0
:10A660001FB500240094019441F204040294FFF702
:10A67000BFFF04B010BD00002DE9F04F89B08A463D
:10A6800016469B46149C0390FFF742FEDDF80CC073
:10A6900000285CD12F4B9A6B511C9963D3F808802A
:10A6A000812C08F10A0307D0832C0CD106F108098C
:10A6B00008F12205182709E008F11A05814610273C
:10A6C0001390129002E005468146074661461846FF
:10A6D000FEF7FAFB391FFEF7F7FB3146FEF7F4FBF6
:10A6E0005946FEF7F1FB832C05D14946FEF7ECFBFA
:10A6F0000821FEF7E9FB0023B34204DA1AF803004D
:10A70000E8540133F8E7002EA8BFAD19832C0FD011
:10A71000139B129998B2009101904146E0B23A46DB
:10A72000B3B2FFF788F8832C0BD141F20F000AE097
:10A730000020139A9042EBDA129A115C29540130EE
:10A74000F7E741F2030005A9FFF750F8069809B0B2
:10A75000BDE8F08FAC1D00201FB5002400940194CB
:10A7600081240294FFF788FF04B010BD1FB5069C3A
:10A770000094079C019483240294FFF77DFF04B0AA
:10A7800010BD0000202A73B503460E46144622D899
:10A79000124A1946956805F10900FEF795FB082154
:10A7A000FEF792FB2146FEF78FFB0022A24203DA5E
:10A7B000B15C81540132F9E704F10C032946DAB2A5
:10A7C00041F21100FFF726F841F2110001A9FFF74D
:10A7D0000DF8019801E04FF0FF307CBDAC1D00206A
:10A7E000024B01225A805860FEF7F0BCAC1D0020DD
:10A7F00010B50A4CE16022616361029B0399E36139
:10A80000049A059B216262620021A362A06101207B
:10A8100084F8400084F8411010BD00BFAC1D00203A
:10A8200070B5174B174D002406461748AC63EC6310
:10A830002C802C866C86AC86EC86EC626C806C601E
:10A84000AB6000F0C5FAA968A64214BF02262646EE
:10A8500001224E724FF48040FEF7DCFF21464FF498
:10A860008040FEF7C3FFA968224644F20B00FEF7C2
:10A87000D1FF44F20B002146BDE87040FEF7B6BFA1
:10A88000181E0020AC1D0020E1A7000838B5094CB7
:10A890000020A36A98472546E869064C80470028AF
:10A8A000FAD0A16809B10022A260BDE8384000F0EA
:10A8B000B7BA00BFAC1D00202DE9F04F83462F48EA
:10A8C00085B0D0F80890144600259A4688464FF087
:10A8D000FF331C2109F1090001930F9E0E9F029581
:10A8E000ADF80C50FEF7F0FA2146FEF7EDFA5946A6
:10A8F000FEF7EAFA04F11001FEF7E6FA3146FEF738
:10A90000E3FA2946FEF7E9FABAF1000F08D01AF87F
:10A91000052042550135062DF9D10630002207E009
:10A92000534602AA995CC1540133062BF9D1F4E7CE
:10A93000A24204DA18F8021081540132F8E7002C20
:10A94000A8BF00193EB100232FB1B34203DAFA5C6D
:10A95000C2540133F9E71C34A319DAB24946012085
:10A96000FEF758FF01A90120FEF740FF07F0C6FDE2
:10A9700001990160084605B0BDE8F08FAC1D0020CC
:10A98000F7B503460F480E4685681946174602ACD0
:10A990004FF0FF3205F1090044F8042DFEF794FA58
:10A9A0003146FEF791FA3946FEF78EFA29460C2217
:10A9B0000420FEF72FFF04202146FEF717FF019821
:10A9C000FEBD00BFAC1D00202DE9F04F82466E4851
:10A9D00085B0D0F808800D4614465146002208F193
:10A9E000090099460E9F0F9EDDF840B00292ADF827
:10A9F0000C20FEF769FABAF1030F00F2B680DFE827
:10AA00000AF0022A70701421FEF75EFA2146FEF762
:10AA10005BFA0021FEF761FAB9F1000F07D00022BE
:10AA200019F8021081540132062AF9D106E04B468A
:10AA300002A95A5CC2540133062BF9D106303946BB
:10AA4000FEF742FA0023A34203D0E95CC15401336C
:10AA5000F9E7183387E02021FEF736FA2146FEF7A2
:10AA600033FA0021FEF739FAB9F1000F07D00022BE
:10AA700019F8021081540132062AF9D106E04B463A
:10AA800002AA995CC1540133062BF9D1394606302C
:10AA9000FEF71AFA04F10C01FEF716FA3146FEF73A
:10AAA00013FA5946FEF710FA0022A24203D0AF5C17
:10AAB00087540132F9E7001900220421129D8718FA
:10AAC000AD180023B34205D015F803E007F803E002
:10AAD0000133F7E701391A44F0D1243404EB83033E
